{
  "abi": [
    {
      "type": "constructor",
      "inputs": [
        {
          "name": "_asset",
          "type": "address",
          "internalType": "address"
        },
        {
          "name": "_name",
          "type": "string",
          "internalType": "string"
        },
        {
          "name": "_management",
          "type": "address",
          "internalType": "address"
        },
        {
          "name": "_keeper",
          "type": "address",
          "internalType": "address"
        },
        {
          "name": "_emergencyAdmin",
          "type": "address",
          "internalType": "address"
        },
        {
          "name": "_donationAddress",
          "type": "address",
          "internalType": "address"
        },
        {
          "name": "_enableBurning",
          "type": "bool",
          "internalType": "bool"
        },
        {
          "name": "_tokenizedStrategyImpl",
          "type": "address",
          "internalType": "address"
        },
        {
          "name": "_vault",
          "type": "address",
          "internalType": "address payable"
        }
      ],
      "stateMutability": "nonpayable"
    },
    {
      "type": "fallback",
      "stateMutability": "nonpayable"
    },
    {
      "type": "function",
      "name": "TOKENIZED_STRATEGY_ADDRESS",
      "inputs": [],
      "outputs": [
        {
          "name": "",
          "type": "address",
          "internalType": "address"
        }
      ],
      "stateMutability": "view"
    },
    {
      "type": "function",
      "name": "availableDepositLimit",
      "inputs": [
        {
          "name": "",
          "type": "address",
          "internalType": "address"
        }
      ],
      "outputs": [
        {
          "name": "",
          "type": "uint256",
          "internalType": "uint256"
        }
      ],
      "stateMutability": "view"
    },
    {
      "type": "function",
      "name": "availableWithdrawLimit",
      "inputs": [
        {
          "name": "",
          "type": "address",
          "internalType": "address"
        }
      ],
      "outputs": [
        {
          "name": "",
          "type": "uint256",
          "internalType": "uint256"
        }
      ],
      "stateMutability": "view"
    },
    {
      "type": "function",
      "name": "deployFunds",
      "inputs": [
        {
          "name": "_amount",
          "type": "uint256",
          "internalType": "uint256"
        }
      ],
      "outputs": [],
      "stateMutability": "nonpayable"
    },
    {
      "type": "function",
      "name": "freeFunds",
      "inputs": [
        {
          "name": "_amount",
          "type": "uint256",
          "internalType": "uint256"
        }
      ],
      "outputs": [],
      "stateMutability": "nonpayable"
    },
    {
      "type": "function",
      "name": "harvestAndReport",
      "inputs": [],
      "outputs": [
        {
          "name": "",
          "type": "uint256",
          "internalType": "uint256"
        }
      ],
      "stateMutability": "nonpayable"
    },
    {
      "type": "function",
      "name": "setVault",
      "inputs": [
        {
          "name": "_vault",
          "type": "address",
          "internalType": "address payable"
        }
      ],
      "outputs": [],
      "stateMutability": "nonpayable"
    },
    {
      "type": "function",
      "name": "shutdownWithdraw",
      "inputs": [
        {
          "name": "_amount",
          "type": "uint256",
          "internalType": "uint256"
        }
      ],
      "outputs": [],
      "stateMutability": "nonpayable"
    },
    {
      "type": "function",
      "name": "tendThis",
      "inputs": [
        {
          "name": "_totalIdle",
          "type": "uint256",
          "internalType": "uint256"
        }
      ],
      "outputs": [],
      "stateMutability": "nonpayable"
    },
    {
      "type": "function",
      "name": "tendTrigger",
      "inputs": [],
      "outputs": [
        {
          "name": "",
          "type": "bool",
          "internalType": "bool"
        },
        {
          "name": "",
          "type": "bytes",
          "internalType": "bytes"
        }
      ],
      "stateMutability": "view"
    },
    {
      "type": "function",
      "name": "vault",
      "inputs": [],
      "outputs": [
        {
          "name": "",
          "type": "address",
          "internalType": "contract AjeyVault"
        }
      ],
      "stateMutability": "view"
    },
    {
      "type": "event",
      "name": "VaultUpdated",
      "inputs": [
        {
          "name": "vault",
          "type": "address",
          "indexed": true,
          "internalType": "address"
        }
      ],
      "anonymous": false
    },
    {
      "type": "error",
      "name": "NotSelf",
      "inputs": []
    },
    {
      "type": "error",
      "name": "SafeERC20FailedOperation",
      "inputs": [
        {
          "name": "token",
          "type": "address",
          "internalType": "address"
        }
      ]
    }
  ],
  "bytecode": {
    "object": "0x60e06040523461012257610e08803803809161001a8261013a565b60e0396101208160e00191126101225760e05161003681610188565b61010051916001600160401b038311610122578060ff84011215610122578260e00151610062816101a6565b916100706040519384610165565b8183526101008286010111610122576020815f926101006100ea97018386015e8301015261009f610120610199565b6100aa610140610199565b6100b5610160610199565b6100c0610180610199565b916100cc6101a06101c1565b936100d86101c0610199565b956100e46101e0610199565b97610264565b604051610872908161059682396080518181816103af01526104a5015260a05181818161029701526105ba015260c051816101fb0152f35b5f80fd5b634e487b7160e01b5f52604160045260245ffd5b60e0601f91909101601f19168101906001600160401b0382119082101761016057604052565b610126565b601f909101601f19168101906001600160401b0382119082101761016057604052565b6001600160a01b0381160361012257565b51906101a482610188565b565b6001600160401b03811161016057601f01601f191660200190565b5190811515820361012257565b156101d557565b60405162461bcd60e51b815260206004820152600760248201526607661756c743d360cc1b6044820152606490fd5b90816020910312610122575161021981610188565b90565b6040513d5f823e3d90fd5b1561022e57565b60405162461bcd60e51b815260206004820152600e60248201526d0c2e6e6cae840dad2e6dac2e8c6d60931b6044820152606490fd5b97969591939794909294600160a01b6001900316978860a052866080523060c052604051958695639d808c3960e01b60208801528a60248801526044870160e0905285518096816101048a015260200161012489015e5f61012488880101526001600160a01b03908116606488015290811660848701521660a48501526001600160a01b031660c4840152151560e4830152601f1990601f011681010361012401601f19810182526103169082610165565b61031f906104df565b507f360894a13ba1a3210667c828492db98dca3e2076cc3735a920a3ca505d382bbc556001600160a01b0316906103578215156101ce565b6040516338d52e0f60e01b81528080845a92600491602094fa91821561040c57610398816103b79486945f916103dd575b506001600160a01b031614610227565b5f80546001600160a01b0319166001600160a01b038416179055610411565b7f161584aed96e7f34998117c9ad67e2d21ff46d2a42775c22b11ed282f3c7b2cd5f80a2565b6103ff915060203d602011610405575b6103f78183610165565b810190610204565b5f610388565b503d6103ed565b61021c565b6040519060205f81840163095ea7b360e01b815260018060a01b03861660248601528119604486015260448552610449606486610165565b84519082855af15f51903d816104b3575b501590505b61046857505050565b60405163095ea7b360e01b60208201526001600160a01b039390931660248401525f60448085019190915283526101a4926104ae906104a8606482610165565b8261053d565b61053d565b151590506104d3575061045f6001600160a01b0382163b15155b5f61045a565b600161045f91146104cd565b60805181515f9283926020909101906001600160a01b03165af43d15610535573d9061050a826101a6565b916105186040519384610165565b82523d5f602084013e5b1561052a5790565b6040513d90815f823efd5b606090610522565b905f602091828151910182855af11561021c575f513d61058c57506001600160a01b0381163b155b61056c5750565b635274afe760e01b5f9081526001600160a01b0391909116600452602490fd5b6001141561056556fe60806040526004361015610019575b341561049b575b5f80fd5b5f3560e01c806304bd4629146100ba5780633d6cb575146100bf57806346aa2f12146100ba57806349317f1d146100b5578063503160d9146100b05780635d265d3f146100ab5780636817031b146100a65780639d7fb70c14610097578063ba865115146100a1578063fbfa77cf1461009c5763fde813a80361000e575b610383565b6103de565b61039a565b6101db565b610176565b610158565b61012e565b6100d5565b61010e565b6001600160a01b0381160361001557565b34610015576020366003190112610015576100f16004356100c4565b60206040515f198152f35b60209060031901126100155760043590565b346100155761012c61011f366100fc565b6101276104d7565b6104fe565b005b34610015575f366003190112610015576101466104d7565b6020610150610597565b604051908152f35b346100155761012c610169366100fc565b6101716104d7565b6106ce565b34610015575f366003190112610015576040516060602082019163440368a360e01b8352600481526101a9602482610405565b6040519283915f8352604060208401525180918160408501528484015e5f828201840152601f01601f19168101030190f35b34610015575f6020366003190112610015576004356101f9816100c4565b7f00000000000000000000000000000000000000000000000000000000000000006001600160a01b0316803b15610015575f602491604051928380926348e4a64960e01b82523360048301525afa801561033a5761036e575b506001600160a01b0316801561033f576040516338d52e0f60e01b8152602081600481855afa90811561033a576102e49183915f9161030b575b506001600160a01b037f00000000000000000000000000000000000000000000000000000000000000008116916102c59116821461045e565b5f80546001600160a01b0319166001600160a01b038416179055610714565b7f161584aed96e7f34998117c9ad67e2d21ff46d2a42775c22b11ed282f3c7b2cd5f80a280f35b61032d915060203d602011610333575b6103258183610405565b810190610446565b5f61028c565b503d61031b565b61043b565b60405162461bcd60e51b815260206004820152600760248201526607661756c743d360cc1b6044820152606490fd5b61037b9192505f90610405565b5f905f610252565b3461001557610391366100fc565b5061012c6104d7565b34610015575f366003190112610015576040517f00000000000000000000000000000000000000000000000000000000000000006001600160a01b03168152602090f35b34610015575f366003190112610015575f546040516001600160a01b039091168152602090f35b90601f8019910116810190811067ffffffffffffffff82111761042757604052565b634e487b7160e01b5f52604160045260245ffd5b6040513d5f823e3d90fd5b90816020910312610015575161045b816100c4565b90565b1561046557565b60405162461bcd60e51b815260206004820152600e60248201526d0c2e6e6cae840dad2e6dac2e8c6d60931b6044820152606490fd5b365f80375f8036817f00000000000000000000000000000000000000000000000000000000000000005af43d5f803e156104d3573d5ff35b3d5ffd5b3033036104e057565b6314e1dbf760e11b5f5260045ffd5b90816020910312610015575190565b801561056c575f8054604051632d182be560e21b8152600481019390935230602484018190526044840152602091839160649183916001600160a01b03165af1801561033a5761054b5750565b61056c9060203d60201161056f575b6105648183610405565b8101906104ef565b50565b503d61055a565b9190820180921161058357565b634e487b7160e01b5f52601160045260245ffd5b6040516370a0823160e01b81523060048201526020816024816001600160a01b037f0000000000000000000000000000000000000000000000000000000000000000165afa90811561033a575f916106af575b505f546001600160a01b03169081156106aa576040516370a0823160e01b8152306004820152602081602481865afa801561033a5761064e936020925f9261068b575b5060405180809681946303d1689d60e11b8352600483019190602083019252565b03915afa90811561033a5761045b925f9261066a575b50610576565b61068491925060203d60201161056f576105648183610405565b905f610664565b6106a3919250833d851161056f576105648183610405565b905f61062d565b905090565b6106c8915060203d60201161056f576105648183610405565b5f6105ea565b801561056c575f8054604051636e553f6560e01b81526004810193909352306024840152602091839160449183916001600160a01b03165af1801561033a5761054b5750565b6040519060205f81840163095ea7b360e01b815260018060a01b0386166024860152811960448601526044855261074c606486610405565b84519082855af15f51903d816107b8575b501590505b61076b57505050565b60405163095ea7b360e01b60208201526001600160a01b039390931660248401525f60448085019190915283526107b6926107b1906107ab606482610405565b826107e4565b6107e4565b565b151590506107d857506107626001600160a01b0382163b15155b5f61075d565b600161076291146107d2565b905f602091828151910182855af11561043b575f513d61083357506001600160a01b0381163b155b6108135750565b635274afe760e01b5f9081526001600160a01b0391909116600452602490fd5b6001141561080c56fea2646970667358221220700e6617772785dcbe042f69a8c9ec76635c7c0661dfd73c46e5845f1597fc6a64736f6c634300081a0033",
    "linkReferences": {}
  },
  "methodIdentifiers": {
    "TOKENIZED_STRATEGY_ADDRESS()": "ba865115",
    "availableDepositLimit(address)": "46aa2f12",
    "availableWithdrawLimit(address)": "04bd4629",
    "deployFunds(uint256)": "503160d9",
    "freeFunds(uint256)": "3d6cb575",
    "harvestAndReport()": "49317f1d",
    "setVault(address)": "6817031b",
    "shutdownWithdraw(uint256)": "fde813a8",
    "tendThis(uint256)": "9d7fb70c",
    "tendTrigger()": "5d265d3f",
    "vault()": "fbfa77cf"
  },
  "id": 56
}