{
  "abi": [
    {
      "type": "constructor",
      "inputs": [
        {
          "name": "admin",
          "type": "address",
          "internalType": "address"
        },
        {
          "name": "agent",
          "type": "address",
          "internalType": "address"
        }
      ],
      "stateMutability": "nonpayable"
    },
    {
      "type": "function",
      "name": "AGENT_ROLE",
      "inputs": [],
      "outputs": [
        {
          "name": "",
          "type": "bytes32",
          "internalType": "bytes32"
        }
      ],
      "stateMutability": "view"
    },
    {
      "type": "function",
      "name": "DEFAULT_ADMIN_ROLE",
      "inputs": [],
      "outputs": [
        {
          "name": "",
          "type": "bytes32",
          "internalType": "bytes32"
        }
      ],
      "stateMutability": "view"
    },
    {
      "type": "function",
      "name": "getRoleAdmin",
      "inputs": [
        {
          "name": "role",
          "type": "bytes32",
          "internalType": "bytes32"
        }
      ],
      "outputs": [
        {
          "name": "",
          "type": "bytes32",
          "internalType": "bytes32"
        }
      ],
      "stateMutability": "view"
    },
    {
      "type": "function",
      "name": "grantRole",
      "inputs": [
        {
          "name": "role",
          "type": "bytes32",
          "internalType": "bytes32"
        },
        {
          "name": "account",
          "type": "address",
          "internalType": "address"
        }
      ],
      "outputs": [],
      "stateMutability": "nonpayable"
    },
    {
      "type": "function",
      "name": "hasRole",
      "inputs": [
        {
          "name": "role",
          "type": "bytes32",
          "internalType": "bytes32"
        },
        {
          "name": "account",
          "type": "address",
          "internalType": "address"
        }
      ],
      "outputs": [
        {
          "name": "",
          "type": "bool",
          "internalType": "bool"
        }
      ],
      "stateMutability": "view"
    },
    {
      "type": "function",
      "name": "isAggregator",
      "inputs": [
        {
          "name": "",
          "type": "address",
          "internalType": "address"
        }
      ],
      "outputs": [
        {
          "name": "",
          "type": "bool",
          "internalType": "bool"
        }
      ],
      "stateMutability": "view"
    },
    {
      "type": "function",
      "name": "migrateShares",
      "inputs": [
        {
          "name": "owner",
          "type": "address",
          "internalType": "address"
        },
        {
          "name": "receiver",
          "type": "address",
          "internalType": "address"
        },
        {
          "name": "sourceVault",
          "type": "address",
          "internalType": "address"
        },
        {
          "name": "targetVault",
          "type": "address",
          "internalType": "address"
        },
        {
          "name": "shares",
          "type": "uint256",
          "internalType": "uint256"
        },
        {
          "name": "aggregator",
          "type": "address",
          "internalType": "address"
        },
        {
          "name": "swapCalldata",
          "type": "bytes",
          "internalType": "bytes"
        },
        {
          "name": "minAmountOut",
          "type": "uint256",
          "internalType": "uint256"
        },
        {
          "name": "deadline",
          "type": "uint256",
          "internalType": "uint256"
        }
      ],
      "outputs": [
        {
          "name": "targetSharesOut",
          "type": "uint256",
          "internalType": "uint256"
        }
      ],
      "stateMutability": "nonpayable"
    },
    {
      "type": "function",
      "name": "migrateStrategyShares",
      "inputs": [
        {
          "name": "owner",
          "type": "address",
          "internalType": "address"
        },
        {
          "name": "sourceStrategy",
          "type": "address",
          "internalType": "address"
        },
        {
          "name": "targetStrategy",
          "type": "address",
          "internalType": "address"
        },
        {
          "name": "shares",
          "type": "uint256",
          "internalType": "uint256"
        },
        {
          "name": "aggregator",
          "type": "address",
          "internalType": "address"
        },
        {
          "name": "swapCalldata",
          "type": "bytes",
          "internalType": "bytes"
        },
        {
          "name": "minAmountOut",
          "type": "uint256",
          "internalType": "uint256"
        },
        {
          "name": "deadline",
          "type": "uint256",
          "internalType": "uint256"
        }
      ],
      "outputs": [
        {
          "name": "targetSharesOut",
          "type": "uint256",
          "internalType": "uint256"
        }
      ],
      "stateMutability": "nonpayable"
    },
    {
      "type": "function",
      "name": "permitShares",
      "inputs": [
        {
          "name": "strategy",
          "type": "address",
          "internalType": "address"
        },
        {
          "name": "owner",
          "type": "address",
          "internalType": "address"
        },
        {
          "name": "value",
          "type": "uint256",
          "internalType": "uint256"
        },
        {
          "name": "deadline",
          "type": "uint256",
          "internalType": "uint256"
        },
        {
          "name": "v",
          "type": "uint8",
          "internalType": "uint8"
        },
        {
          "name": "r",
          "type": "bytes32",
          "internalType": "bytes32"
        },
        {
          "name": "s",
          "type": "bytes32",
          "internalType": "bytes32"
        }
      ],
      "outputs": [],
      "stateMutability": "nonpayable"
    },
    {
      "type": "function",
      "name": "renounceRole",
      "inputs": [
        {
          "name": "role",
          "type": "bytes32",
          "internalType": "bytes32"
        },
        {
          "name": "callerConfirmation",
          "type": "address",
          "internalType": "address"
        }
      ],
      "outputs": [],
      "stateMutability": "nonpayable"
    },
    {
      "type": "function",
      "name": "revokeRole",
      "inputs": [
        {
          "name": "role",
          "type": "bytes32",
          "internalType": "bytes32"
        },
        {
          "name": "account",
          "type": "address",
          "internalType": "address"
        }
      ],
      "outputs": [],
      "stateMutability": "nonpayable"
    },
    {
      "type": "function",
      "name": "setAggregator",
      "inputs": [
        {
          "name": "aggregator",
          "type": "address",
          "internalType": "address"
        },
        {
          "name": "allowed",
          "type": "bool",
          "internalType": "bool"
        }
      ],
      "outputs": [],
      "stateMutability": "nonpayable"
    },
    {
      "type": "function",
      "name": "supportsInterface",
      "inputs": [
        {
          "name": "interfaceId",
          "type": "bytes4",
          "internalType": "bytes4"
        }
      ],
      "outputs": [
        {
          "name": "",
          "type": "bool",
          "internalType": "bool"
        }
      ],
      "stateMutability": "view"
    },
    {
      "type": "event",
      "name": "AggregatorUpdated",
      "inputs": [
        {
          "name": "aggregator",
          "type": "address",
          "indexed": true,
          "internalType": "address"
        },
        {
          "name": "allowed",
          "type": "bool",
          "indexed": false,
          "internalType": "bool"
        }
      ],
      "anonymous": false
    },
    {
      "type": "event",
      "name": "RoleAdminChanged",
      "inputs": [
        {
          "name": "role",
          "type": "bytes32",
          "indexed": true,
          "internalType": "bytes32"
        },
        {
          "name": "previousAdminRole",
          "type": "bytes32",
          "indexed": true,
          "internalType": "bytes32"
        },
        {
          "name": "newAdminRole",
          "type": "bytes32",
          "indexed": true,
          "internalType": "bytes32"
        }
      ],
      "anonymous": false
    },
    {
      "type": "event",
      "name": "RoleGranted",
      "inputs": [
        {
          "name": "role",
          "type": "bytes32",
          "indexed": true,
          "internalType": "bytes32"
        },
        {
          "name": "account",
          "type": "address",
          "indexed": true,
          "internalType": "address"
        },
        {
          "name": "sender",
          "type": "address",
          "indexed": true,
          "internalType": "address"
        }
      ],
      "anonymous": false
    },
    {
      "type": "event",
      "name": "RoleRevoked",
      "inputs": [
        {
          "name": "role",
          "type": "bytes32",
          "indexed": true,
          "internalType": "bytes32"
        },
        {
          "name": "account",
          "type": "address",
          "indexed": true,
          "internalType": "address"
        },
        {
          "name": "sender",
          "type": "address",
          "indexed": true,
          "internalType": "address"
        }
      ],
      "anonymous": false
    },
    {
      "type": "event",
      "name": "StrategyMigrated",
      "inputs": [
        {
          "name": "owner",
          "type": "address",
          "indexed": true,
          "internalType": "address"
        },
        {
          "name": "sourceStrategy",
          "type": "address",
          "indexed": true,
          "internalType": "address"
        },
        {
          "name": "targetStrategy",
          "type": "address",
          "indexed": true,
          "internalType": "address"
        },
        {
          "name": "sharesIn",
          "type": "uint256",
          "indexed": false,
          "internalType": "uint256"
        },
        {
          "name": "assetsFrom",
          "type": "uint256",
          "indexed": false,
          "internalType": "uint256"
        },
        {
          "name": "assetsTo",
          "type": "uint256",
          "indexed": false,
          "internalType": "uint256"
        },
        {
          "name": "targetSharesOut",
          "type": "uint256",
          "indexed": false,
          "internalType": "uint256"
        }
      ],
      "anonymous": false
    },
    {
      "type": "error",
      "name": "AccessControlBadConfirmation",
      "inputs": []
    },
    {
      "type": "error",
      "name": "AccessControlUnauthorizedAccount",
      "inputs": [
        {
          "name": "account",
          "type": "address",
          "internalType": "address"
        },
        {
          "name": "neededRole",
          "type": "bytes32",
          "internalType": "bytes32"
        }
      ]
    },
    {
      "type": "error",
      "name": "ReentrancyGuardReentrantCall",
      "inputs": []
    },
    {
      "type": "error",
      "name": "SafeERC20FailedOperation",
      "inputs": [
        {
          "name": "token",
          "type": "address",
          "internalType": "address"
        }
      ]
    }
  ],
  "bytecode": {
    "object": "0x60803461007957601f61162238819003918201601f19168301916001600160401b0383118484101761007d5780849260409485528339810103126100795780610063610059602061005261006995610091565b9301610091565b91600180556100a5565b5061011b565b5060405161141390816101af8239f35b5f80fd5b634e487b7160e01b5f52604160045260245ffd5b51906001600160a01b038216820361007957565b6001600160a01b0381165f9081525f80516020611602833981519152602052604090205460ff16610116576001600160a01b03165f8181525f8051602061160283398151915260205260408120805460ff191660011790553391905f805160206115c28339815191528180a4600190565b505f90565b6001600160a01b0381165f9081525f805160206115e2833981519152602052604090205460ff16610116576001600160a01b03165f8181525f805160206115e283398151915260205260408120805460ff191660011790553391907fcab5a0bfe0b79d2c4b1c2e02599fa044d115b7511f9659307cb4276950967709905f805160206115c28339815191529080a460019056fe60806040526004361015610011575f80fd5b5f3560e01c806301ffc9a7146100e45780631e8f3c95146100df57806322459e18146100da578063248a9ca3146100d55780632f2ff15d146100d057806336568abe146100cb57806391d14854146100c6578063a217fddf146100c1578063b1baf18a146100bc578063c1488069146100b7578063d547741f146100b2578063d557d94b146100ad5763de46fc09146100a8575f80fd5b6105b8565b610519565b6104ab565b6103dc565b61030e565b6102f4565b6102a3565b61025b565b610214565b6101e2565b6101a8565b61015e565b3461013a57602036600319011261013a5760043563ffffffff60e01b811680910361013a57602090637965db0b60e01b8114908115610129575b506040519015158152f35b6301ffc9a760e01b1490505f61011e565b5f80fd5b6001600160a01b0381160361013a57565b60a4359061015c8261013e565b565b3461013a57602036600319011261013a5760043561017b8161013e565b60018060a01b03165f526002602052602060ff60405f2054166040519015158152f35b5f91031261013a57565b3461013a575f36600319011261013a5760206040517fcab5a0bfe0b79d2c4b1c2e02599fa044d115b7511f9659307cb42769509677098152f35b3461013a57602036600319011261013a57602061020c6004355f525f602052600160405f20015490565b604051908152f35b3461013a57604036600319011261013a576102596024356004356102378261013e565b61025461024f825f525f602052600160405f20015490565b610ddc565b610e14565b005b3461013a57604036600319011261013a5760043560243561027b8161013e565b336001600160a01b038216036102945761025991610ea0565b63334bd91960e11b5f5260045ffd5b3461013a57604036600319011261013a57602060ff6102e86024356004356102ca8261013e565b5f525f845260405f209060018060a01b03165f5260205260405f2090565b54166040519015158152f35b3461013a575f36600319011261013a5760206040515f8152f35b3461013a5760e036600319011261013a5760043561032b8161013e565b602435906103388261013e565b604435606435926084359060ff8216820361013a5760a4359160c4359461035d610d6d565b6001600160a01b0316803b1561013a575f9560e49460ff88946040519a8b998a9863d505accf60e01b8a5260018060a01b031660048a01523060248a01526044890152606488015216608486015260a485015260c48401525af180156103d7576103c357005b806103d15f61025993610652565b8061019e565b610679565b3461013a57604036600319011261013a576004356103f98161013e565b602435908115159081830361013a57335f9081527fad3228b676f7d3cd4284a5443f17f1962b36e491b30a40b2405849e597ba5fb5602052604090205460ff1615610494577f5c1101877f5bf6cb37b0a534b7a0f095bad2b98b53f480b6cc140ee930d0dc159161048b60209260018060a01b031694855f526002845260405f209060ff801983541691151516179055565b604051908152a2005b63e2517d3f60e01b5f52336004525f60245260445ffd5b3461013a57604036600319011261013a576102596024356004356104ce8261013e565b6104e661024f825f525f602052600160405f20015490565b610ea0565b9181601f8401121561013a5782359167ffffffffffffffff831161013a576020838186019501011161013a57565b3461013a5761012036600319011261013a576004356105378161013e565b602435906105448261013e565b604435906105518261013e565b6064359261055e8461013e565b6084359361056a61014f565b9360c4359467ffffffffffffffff861161013a576105b4966105936105a49736906004016104eb565b94909360e435966101043598610684565b6040519081529081906020820190565b0390f35b3461013a5761010036600319011261013a576004356105d68161013e565b602435906105e38261013e565b604435906105f08261013e565b608435926064356106008561013e565b60a4359367ffffffffffffffff851161013a576105b4956106286105a49636906004016104eb565b93909260c4359561063860e43590565b976106e2565b634e487b7160e01b5f52604160045260245ffd5b90601f8019910116810190811067ffffffffffffffff82111761067457604052565b61063e565b6040513d5f823e3d90fd5b9897969594939291906001600160a01b03808b169116036106ab576106a8986106e2565b90565b60405162461bcd60e51b815260206004820152600f60248201526e3932b1b2b4bb32b9109eb7bbb732b960891b6044820152606490fd5b959397949690600260015414610b065760026001556001600160a01b03871695610721903388148015610ac1575b61071990610b15565b421115610b53565b61072c861515610b89565b6001600160a01b03169586151580610aaf575b61074890610bbf565b6001600160a01b0383169761075f888a1415610bfa565b61076a851515610c36565b60408051632606a10b60e01b815290816004815f8d5af1610a81575b506040516278744560e21b81526020816004818c5afa9081156103d7575f91610a62575b506040516318160ddd60e01b8152906020826004818d5afa9081156103d7576107ef925f92610a3d575b506107ea906107e4831515610c95565b88610ce4565b610cfc565b956107fb871515610d1a565b6040516338d52e0f60e01b8152936020856004818d5afa9081156103d7576004955f92610a1c575b506040516338d52e0f60e01b8152956020908790818f5afa9283156103d75761088c965f946109eb575b50604051632d182be560e21b8152600481018b90523060248201526001600160a01b03871660448201529660209088908e9082905f9082906064820190565b03925af19485156103d7576108fd9e6020986108cd976109d0575b506001600160a01b03868116968d91871688036109bf5750945050505050948591611255565b604051636e553f6560e01b8152600481018490526001600160a01b03909116602482015297889081906044820190565b03815f8a5af19687156103d7575f97610964575b5060408051928352602083019390935291810191909152606081018590527f4016b99ee97d6a61d57fda899165030771512a4129017534cb223e2cc2a503229080608081015b0390a49061015c60018055565b7f4016b99ee97d6a61d57fda899165030771512a4129017534cb223e2cc2a5032293929197506109ae6109579160203d6020116109b8575b6109a68183610652565b810190610c86565b9791929350610911565b503d61099c565b6109c896611045565b948591611255565b6109e6908a3d8c116109b8576109a68183610652565b6108a7565b610a0e91945060203d602011610a15575b610a068183610652565b810190610d58565b925f61084d565b503d6109fc565b610a3691925060203d602011610a1557610a068183610652565b905f610823565b6107ea919250610a5b9060203d6020116109b8576109a68183610652565b91906107d4565b610a7b915060203d6020116109b8576109a68183610652565b5f6107aa565b610aa29060403d604011610aa8575b610a9a8183610652565b810190610c70565b50610786565b503d610a90565b506001600160a01b038316151561073f565b50335f9081527fe298cb3514b0702cec56ac2053c1ecb2187cfdc8a325f22a672bc5027eadc9e26020526040902061071990610aff905b5460ff1690565b9050610710565b633ee5aeb560e01b5f5260045ffd5b15610b1c57565b60405162461bcd60e51b815260206004820152600f60248201526e1b9bdd081bdddb995c8bd859d95b9d608a1b6044820152606490fd5b15610b5a57565b60405162461bcd60e51b8152602060048201526007602482015266195e1c1a5c995960ca1b6044820152606490fd5b15610b9057565b60405162461bcd60e51b815260206004820152600760248201526606f776e65723d360cc1b6044820152606490fd5b15610bc657565b60405162461bcd60e51b815260206004820152600c60248201526b62616420737472617465677960a01b6044820152606490fd5b15610c0157565b60405162461bcd60e51b815260206004820152600d60248201526c73616d6520737472617465677960981b6044820152606490fd5b15610c3d57565b60405162461bcd60e51b815260206004820152600b60248201526a7a65726f2073686172657360a81b6044820152606490fd5b919082604091031261013a576020825192015190565b9081602091031261013a575190565b15610c9c57565b60405162461bcd60e51b815260206004820152600c60248201526b736f7572636520656d70747960a01b6044820152606490fd5b634e487b7160e01b5f52601160045260245ffd5b81810292918115918404141715610cf757565b610cd0565b8115610d06570490565b634e487b7160e01b5f52601260045260245ffd5b15610d2157565b60405162461bcd60e51b815260206004820152600f60248201526e7a65726f2061737365747346726f6d60881b6044820152606490fd5b9081602091031261013a57516106a88161013e565b335f9081527fe298cb3514b0702cec56ac2053c1ecb2187cfdc8a325f22a672bc5027eadc9e2602052604090205460ff1615610da557565b63e2517d3f60e01b5f52336004527fcab5a0bfe0b79d2c4b1c2e02599fa044d115b7511f9659307cb427695096770960245260445ffd5b5f8181526020818152604080832033845290915290205460ff1615610dfe5750565b63e2517d3f60e01b5f523360045260245260445ffd5b5f818152602081815260408083206001600160a01b038616845290915290205460ff16610e9a575f818152602081815260408083206001600160a01b03861684529091529020805460ff1916600117905533916001600160a01b0316907f2f8788117e7eff1d82e926ec794901d17c78024a50270940304540a733656f0d5f80a4600190565b50505f90565b5f818152602081815260408083206001600160a01b038616845290915290205460ff1615610e9a575f818152602081815260408083206001600160a01b03861684529091529020805460ff1916905533916001600160a01b0316907ff6391f5c32d9c69d2a47ea670b442974b53935d1edc7fd64eb21e047a839171b5f80a4600190565b15610f2b57565b60405162461bcd60e51b815260206004820152600f60248201526e1859d9c81b9bdd08185b1b1bddd959608a1b6044820152606490fd5b908092918237015f815290565b67ffffffffffffffff811161067457601f01601f191660200190565b3d15610fb5573d90610f9c82610f6f565b91610faa6040519384610652565b82523d5f602084013e565b606090565b15610fc25750565b604460209160405192839162461bcd60e51b83528160048401528051918291826024860152018484015e5f828201840152601f01601f19168101030190fd5b91908203918211610cf757565b1561101557565b60405162461bcd60e51b8152602060048201526008602482015267736c69707061676560c01b6044820152606490fd5b61108490959293949561107361106e610af88860018060a01b03165f52600260205260405f2090565b610f24565b6001600160a01b0316938585611255565b6040516370a0823160e01b8152306004820152946001600160a01b03919091169190602086602481865afa9586156103d7575f9661115d575b505f6110f09281926110d460405180938193610f62565b039082885af16110ea6110e5610f8b565b611294565b90610fba565b6040516370a0823160e01b815230600482015290602090829060249082905afa9081156103d7576106a89461113992611130925f9161113e575b50611001565b9485101561100e565b611188565b611157915060203d6020116109b8576109a68183610652565b5f61112a565b5f9196506110f09261117e839260203d6020116109b8576109a68183610652565b97925092506110bd565b6040519060205f81840163095ea7b360e01b815260018060a01b0386166024860152816044860152604485526111bf606486610652565b84519082855af15f51903d81611229575b501590505b6111de57505050565b60405163095ea7b360e01b60208201526001600160a01b039390931660248401525f604480850191909152835261015c926112249061121e606482610652565b82611385565b611385565b1515905061124957506111d56001600160a01b0382163b15155b5f6111d0565b60016111d59114611243565b60405163095ea7b360e01b60208281019182526001600160a01b0385166024840152604480840196909652948252929390925f906111bf606486610652565b604481511061135b576103e881511161131f57600481015181016024810191906020908290031261013a5760248101519067ffffffffffffffff821161013a57018160438201121561013a576024810151906112ef82610f6f565b926112fd6040519485610652565b8284526044828401011161013a57815f926044602093018386015e8301015290565b5060405161132e604082610652565b601a81527f73776170206661696c65643a206461746120746f6f206c6f6e67000000000000602082015290565b5060405161136a604082610652565b600b81526a1cddd85c0819985a5b195960aa1b602082015290565b905f602091828151910182855af115610679575f513d6113d457506001600160a01b0381163b155b6113b45750565b635274afe760e01b5f9081526001600160a01b0391909116600452602490fd5b600114156113ad56fea26469706673582212208470125eec393c79662322f3a2be33acba8d582708dd9cc8acb3ddbc42b235ed64736f6c634300081a00332f8788117e7eff1d82e926ec794901d17c78024a50270940304540a733656f0de298cb3514b0702cec56ac2053c1ecb2187cfdc8a325f22a672bc5027eadc9e2ad3228b676f7d3cd4284a5443f17f1962b36e491b30a40b2405849e597ba5fb5",
    "linkReferences": {}
  },
  "methodIdentifiers": {
    "AGENT_ROLE()": "22459e18",
    "DEFAULT_ADMIN_ROLE()": "a217fddf",
    "getRoleAdmin(bytes32)": "248a9ca3",
    "grantRole(bytes32,address)": "2f2ff15d",
    "hasRole(bytes32,address)": "91d14854",
    "isAggregator(address)": "1e8f3c95",
    "migrateShares(address,address,address,address,uint256,address,bytes,uint256,uint256)": "d557d94b",
    "migrateStrategyShares(address,address,address,uint256,address,bytes,uint256,uint256)": "de46fc09",
    "permitShares(address,address,uint256,uint256,uint8,bytes32,bytes32)": "b1baf18a",
    "renounceRole(bytes32,address)": "36568abe",
    "revokeRole(bytes32,address)": "d547741f",
    "setAggregator(address,bool)": "c1488069",
    "supportsInterface(bytes4)": "01ffc9a7"
  },
  "id": 45
}