{
  "abi": [
    {
      "type": "constructor",
      "inputs": [
        {
          "name": "_admin",
          "type": "address",
          "internalType": "address"
        },
        {
          "name": "_agent",
          "type": "address",
          "internalType": "address"
        },
        {
          "name": "_uniswapRouter",
          "type": "address",
          "internalType": "address"
        },
        {
          "name": "_defaultPoolFee",
          "type": "uint24",
          "internalType": "uint24"
        }
      ],
      "stateMutability": "nonpayable"
    },
    {
      "type": "function",
      "name": "AGENT_ROLE",
      "inputs": [],
      "outputs": [
        {
          "name": "",
          "type": "bytes32",
          "internalType": "bytes32"
        }
      ],
      "stateMutability": "view"
    },
    {
      "type": "function",
      "name": "DEFAULT_ADMIN_ROLE",
      "inputs": [],
      "outputs": [
        {
          "name": "",
          "type": "bytes32",
          "internalType": "bytes32"
        }
      ],
      "stateMutability": "view"
    },
    {
      "type": "function",
      "name": "SLIPPAGE_TOLERANCE",
      "inputs": [],
      "outputs": [
        {
          "name": "",
          "type": "uint256",
          "internalType": "uint256"
        }
      ],
      "stateMutability": "view"
    },
    {
      "type": "function",
      "name": "addAgent",
      "inputs": [
        {
          "name": "agent",
          "type": "address",
          "internalType": "address"
        }
      ],
      "outputs": [],
      "stateMutability": "nonpayable"
    },
    {
      "type": "function",
      "name": "defaultPoolFee",
      "inputs": [],
      "outputs": [
        {
          "name": "",
          "type": "uint24",
          "internalType": "uint24"
        }
      ],
      "stateMutability": "view"
    },
    {
      "type": "function",
      "name": "depositERC20",
      "inputs": [
        {
          "name": "profile",
          "type": "uint8",
          "internalType": "enum AgentOrchestrator.Profile"
        },
        {
          "name": "from",
          "type": "address",
          "internalType": "address"
        },
        {
          "name": "inputAsset",
          "type": "address",
          "internalType": "address"
        },
        {
          "name": "amountIn",
          "type": "uint256",
          "internalType": "uint256"
        },
        {
          "name": "targetAsset",
          "type": "address",
          "internalType": "address"
        },
        {
          "name": "minAmountOut",
          "type": "uint256",
          "internalType": "uint256"
        },
        {
          "name": "receiver",
          "type": "address",
          "internalType": "address"
        }
      ],
      "outputs": [
        {
          "name": "sharesOut",
          "type": "uint256",
          "internalType": "uint256"
        }
      ],
      "stateMutability": "nonpayable"
    },
    {
      "type": "function",
      "name": "getRoleAdmin",
      "inputs": [
        {
          "name": "role",
          "type": "bytes32",
          "internalType": "bytes32"
        }
      ],
      "outputs": [
        {
          "name": "",
          "type": "bytes32",
          "internalType": "bytes32"
        }
      ],
      "stateMutability": "view"
    },
    {
      "type": "function",
      "name": "grantRole",
      "inputs": [
        {
          "name": "role",
          "type": "bytes32",
          "internalType": "bytes32"
        },
        {
          "name": "account",
          "type": "address",
          "internalType": "address"
        }
      ],
      "outputs": [],
      "stateMutability": "nonpayable"
    },
    {
      "type": "function",
      "name": "harvestAll",
      "inputs": [],
      "outputs": [],
      "stateMutability": "nonpayable"
    },
    {
      "type": "function",
      "name": "harvestProfile",
      "inputs": [
        {
          "name": "profile",
          "type": "uint8",
          "internalType": "enum AgentOrchestrator.Profile"
        }
      ],
      "outputs": [],
      "stateMutability": "nonpayable"
    },
    {
      "type": "function",
      "name": "harvestStrategy",
      "inputs": [
        {
          "name": "strategy",
          "type": "address",
          "internalType": "address"
        }
      ],
      "outputs": [],
      "stateMutability": "nonpayable"
    },
    {
      "type": "function",
      "name": "hasRole",
      "inputs": [
        {
          "name": "role",
          "type": "bytes32",
          "internalType": "bytes32"
        },
        {
          "name": "account",
          "type": "address",
          "internalType": "address"
        }
      ],
      "outputs": [
        {
          "name": "",
          "type": "bool",
          "internalType": "bool"
        }
      ],
      "stateMutability": "view"
    },
    {
      "type": "function",
      "name": "isStrategyRegistered",
      "inputs": [
        {
          "name": "",
          "type": "uint8",
          "internalType": "enum AgentOrchestrator.Profile"
        },
        {
          "name": "",
          "type": "address",
          "internalType": "address"
        }
      ],
      "outputs": [
        {
          "name": "",
          "type": "bool",
          "internalType": "bool"
        }
      ],
      "stateMutability": "view"
    },
    {
      "type": "function",
      "name": "permitShares",
      "inputs": [
        {
          "name": "strategy",
          "type": "address",
          "internalType": "address"
        },
        {
          "name": "owner",
          "type": "address",
          "internalType": "address"
        },
        {
          "name": "value",
          "type": "uint256",
          "internalType": "uint256"
        },
        {
          "name": "deadline",
          "type": "uint256",
          "internalType": "uint256"
        },
        {
          "name": "v",
          "type": "uint8",
          "internalType": "uint8"
        },
        {
          "name": "r",
          "type": "bytes32",
          "internalType": "bytes32"
        },
        {
          "name": "s",
          "type": "bytes32",
          "internalType": "bytes32"
        }
      ],
      "outputs": [],
      "stateMutability": "nonpayable"
    },
    {
      "type": "function",
      "name": "reallocate",
      "inputs": [
        {
          "name": "profile",
          "type": "uint8",
          "internalType": "enum AgentOrchestrator.Profile"
        },
        {
          "name": "owner",
          "type": "address",
          "internalType": "address"
        },
        {
          "name": "sourceAsset",
          "type": "address",
          "internalType": "address"
        },
        {
          "name": "targetAsset",
          "type": "address",
          "internalType": "address"
        },
        {
          "name": "shares",
          "type": "uint256",
          "internalType": "uint256"
        },
        {
          "name": "minAmountOut",
          "type": "uint256",
          "internalType": "uint256"
        }
      ],
      "outputs": [],
      "stateMutability": "nonpayable"
    },
    {
      "type": "function",
      "name": "removeAgent",
      "inputs": [
        {
          "name": "agent",
          "type": "address",
          "internalType": "address"
        }
      ],
      "outputs": [],
      "stateMutability": "nonpayable"
    },
    {
      "type": "function",
      "name": "renounceRole",
      "inputs": [
        {
          "name": "role",
          "type": "bytes32",
          "internalType": "bytes32"
        },
        {
          "name": "callerConfirmation",
          "type": "address",
          "internalType": "address"
        }
      ],
      "outputs": [],
      "stateMutability": "nonpayable"
    },
    {
      "type": "function",
      "name": "revokeRole",
      "inputs": [
        {
          "name": "role",
          "type": "bytes32",
          "internalType": "bytes32"
        },
        {
          "name": "account",
          "type": "address",
          "internalType": "address"
        }
      ],
      "outputs": [],
      "stateMutability": "nonpayable"
    },
    {
      "type": "function",
      "name": "setStrategy",
      "inputs": [
        {
          "name": "profile",
          "type": "uint8",
          "internalType": "enum AgentOrchestrator.Profile"
        },
        {
          "name": "asset",
          "type": "address",
          "internalType": "address"
        },
        {
          "name": "strategy",
          "type": "address",
          "internalType": "address"
        }
      ],
      "outputs": [],
      "stateMutability": "nonpayable"
    },
    {
      "type": "function",
      "name": "strategiesByProfile",
      "inputs": [
        {
          "name": "",
          "type": "uint8",
          "internalType": "enum AgentOrchestrator.Profile"
        },
        {
          "name": "",
          "type": "uint256",
          "internalType": "uint256"
        }
      ],
      "outputs": [
        {
          "name": "",
          "type": "address",
          "internalType": "address"
        }
      ],
      "stateMutability": "view"
    },
    {
      "type": "function",
      "name": "strategyOf",
      "inputs": [
        {
          "name": "",
          "type": "uint8",
          "internalType": "enum AgentOrchestrator.Profile"
        },
        {
          "name": "",
          "type": "address",
          "internalType": "address"
        }
      ],
      "outputs": [
        {
          "name": "",
          "type": "address",
          "internalType": "address"
        }
      ],
      "stateMutability": "view"
    },
    {
      "type": "function",
      "name": "supportsInterface",
      "inputs": [
        {
          "name": "interfaceId",
          "type": "bytes4",
          "internalType": "bytes4"
        }
      ],
      "outputs": [
        {
          "name": "",
          "type": "bool",
          "internalType": "bool"
        }
      ],
      "stateMutability": "view"
    },
    {
      "type": "function",
      "name": "uniswapRouter",
      "inputs": [],
      "outputs": [
        {
          "name": "",
          "type": "address",
          "internalType": "contract IUniswapV3Router"
        }
      ],
      "stateMutability": "view"
    },
    {
      "type": "function",
      "name": "withdrawERC20",
      "inputs": [
        {
          "name": "profile",
          "type": "uint8",
          "internalType": "enum AgentOrchestrator.Profile"
        },
        {
          "name": "owner",
          "type": "address",
          "internalType": "address"
        },
        {
          "name": "strategyAsset",
          "type": "address",
          "internalType": "address"
        },
        {
          "name": "assets",
          "type": "uint256",
          "internalType": "uint256"
        },
        {
          "name": "outputAsset",
          "type": "address",
          "internalType": "address"
        },
        {
          "name": "minAmountOut",
          "type": "uint256",
          "internalType": "uint256"
        },
        {
          "name": "receiver",
          "type": "address",
          "internalType": "address"
        }
      ],
      "outputs": [
        {
          "name": "amountOut",
          "type": "uint256",
          "internalType": "uint256"
        }
      ],
      "stateMutability": "nonpayable"
    },
    {
      "type": "event",
      "name": "Deposited",
      "inputs": [
        {
          "name": "profile",
          "type": "uint8",
          "indexed": true,
          "internalType": "enum AgentOrchestrator.Profile"
        },
        {
          "name": "from",
          "type": "address",
          "indexed": true,
          "internalType": "address"
        },
        {
          "name": "assetIn",
          "type": "address",
          "indexed": true,
          "internalType": "address"
        },
        {
          "name": "assetTarget",
          "type": "address",
          "indexed": false,
          "internalType": "address"
        },
        {
          "name": "amountIn",
          "type": "uint256",
          "indexed": false,
          "internalType": "uint256"
        },
        {
          "name": "sharesOut",
          "type": "uint256",
          "indexed": false,
          "internalType": "uint256"
        },
        {
          "name": "receiver",
          "type": "address",
          "indexed": false,
          "internalType": "address"
        }
      ],
      "anonymous": false
    },
    {
      "type": "event",
      "name": "Reallocated",
      "inputs": [
        {
          "name": "profile",
          "type": "uint8",
          "indexed": true,
          "internalType": "enum AgentOrchestrator.Profile"
        },
        {
          "name": "owner",
          "type": "address",
          "indexed": true,
          "internalType": "address"
        },
        {
          "name": "sourceAsset",
          "type": "address",
          "indexed": true,
          "internalType": "address"
        },
        {
          "name": "targetAsset",
          "type": "address",
          "indexed": false,
          "internalType": "address"
        },
        {
          "name": "sharesMoved",
          "type": "uint256",
          "indexed": false,
          "internalType": "uint256"
        },
        {
          "name": "amountSwapped",
          "type": "uint256",
          "indexed": false,
          "internalType": "uint256"
        }
      ],
      "anonymous": false
    },
    {
      "type": "event",
      "name": "RoleAdminChanged",
      "inputs": [
        {
          "name": "role",
          "type": "bytes32",
          "indexed": true,
          "internalType": "bytes32"
        },
        {
          "name": "previousAdminRole",
          "type": "bytes32",
          "indexed": true,
          "internalType": "bytes32"
        },
        {
          "name": "newAdminRole",
          "type": "bytes32",
          "indexed": true,
          "internalType": "bytes32"
        }
      ],
      "anonymous": false
    },
    {
      "type": "event",
      "name": "RoleGranted",
      "inputs": [
        {
          "name": "role",
          "type": "bytes32",
          "indexed": true,
          "internalType": "bytes32"
        },
        {
          "name": "account",
          "type": "address",
          "indexed": true,
          "internalType": "address"
        },
        {
          "name": "sender",
          "type": "address",
          "indexed": true,
          "internalType": "address"
        }
      ],
      "anonymous": false
    },
    {
      "type": "event",
      "name": "RoleRevoked",
      "inputs": [
        {
          "name": "role",
          "type": "bytes32",
          "indexed": true,
          "internalType": "bytes32"
        },
        {
          "name": "account",
          "type": "address",
          "indexed": true,
          "internalType": "address"
        },
        {
          "name": "sender",
          "type": "address",
          "indexed": true,
          "internalType": "address"
        }
      ],
      "anonymous": false
    },
    {
      "type": "event",
      "name": "StrategySet",
      "inputs": [
        {
          "name": "profile",
          "type": "uint8",
          "indexed": true,
          "internalType": "enum AgentOrchestrator.Profile"
        },
        {
          "name": "asset",
          "type": "address",
          "indexed": true,
          "internalType": "address"
        },
        {
          "name": "strategy",
          "type": "address",
          "indexed": true,
          "internalType": "address"
        }
      ],
      "anonymous": false
    },
    {
      "type": "event",
      "name": "Withdrawn",
      "inputs": [
        {
          "name": "profile",
          "type": "uint8",
          "indexed": true,
          "internalType": "enum AgentOrchestrator.Profile"
        },
        {
          "name": "owner",
          "type": "address",
          "indexed": true,
          "internalType": "address"
        },
        {
          "name": "assetStrategy",
          "type": "address",
          "indexed": true,
          "internalType": "address"
        },
        {
          "name": "assetOut",
          "type": "address",
          "indexed": false,
          "internalType": "address"
        },
        {
          "name": "assetsBurned",
          "type": "uint256",
          "indexed": false,
          "internalType": "uint256"
        },
        {
          "name": "amountOut",
          "type": "uint256",
          "indexed": false,
          "internalType": "uint256"
        },
        {
          "name": "receiver",
          "type": "address",
          "indexed": false,
          "internalType": "address"
        }
      ],
      "anonymous": false
    },
    {
      "type": "event",
      "name": "YieldHarvested",
      "inputs": [
        {
          "name": "strategy",
          "type": "address",
          "indexed": false,
          "internalType": "address"
        },
        {
          "name": "profit",
          "type": "uint256",
          "indexed": false,
          "internalType": "uint256"
        },
        {
          "name": "loss",
          "type": "uint256",
          "indexed": false,
          "internalType": "uint256"
        }
      ],
      "anonymous": false
    },
    {
      "type": "error",
      "name": "AccessControlBadConfirmation",
      "inputs": []
    },
    {
      "type": "error",
      "name": "AccessControlUnauthorizedAccount",
      "inputs": [
        {
          "name": "account",
          "type": "address",
          "internalType": "address"
        },
        {
          "name": "neededRole",
          "type": "bytes32",
          "internalType": "bytes32"
        }
      ]
    },
    {
      "type": "error",
      "name": "ReentrancyGuardReentrantCall",
      "inputs": []
    },
    {
      "type": "error",
      "name": "SafeERC20FailedOperation",
      "inputs": [
        {
          "name": "token",
          "type": "address",
          "internalType": "address"
        }
      ]
    }
  ],
  "bytecode": {
    "object": "0x60c03461011a57601f611f5638819003918201601f19168301916001600160401b0383118484101761011e5780849260809460405283398101031261011a5761004781610132565b61005360208301610132565b90606061006260408501610132565b9301519262ffffff8416840361011a57600180556001600160a01b03169182156100ea5761009261009892610146565b506101bc565b5060805260a052604051611ca6908161025082396080518181816102960152818161063b01528181610aa40152610f65015260a0518181816102e50152818161068a01528181610aee0152610fa70152f35b60405162461bcd60e51b81526020600482015260086024820152670726f757465723d360c41b6044820152606490fd5b5f80fd5b634e487b7160e01b5f52604160045260245ffd5b51906001600160a01b038216820361011a57565b6001600160a01b0381165f9081525f80516020611f36833981519152602052604090205460ff166101b7576001600160a01b03165f8181525f80516020611f3683398151915260205260408120805460ff191660011790553391905f80516020611ef68339815191528180a4600190565b505f90565b6001600160a01b0381165f9081525f80516020611f16833981519152602052604090205460ff166101b7576001600160a01b03165f8181525f80516020611f1683398151915260205260408120805460ff191660011790553391907fcab5a0bfe0b79d2c4b1c2e02599fa044d115b7511f9659307cb4276950967709905f80516020611ef68339815191529080a460019056fe6080806040526004361015610012575f80fd5b5f905f3560e01c90816301ffc9a7146114185750806316178606146113dc57806322459e18146113b5578063248a9ca3146113835780632f2ff15d14611346578063362e8d1314610da157806336568abe14610d5d5780634c20378614610d415780634fc2d27a14610b3b57806361f13e0014610b125780636f60a6dd14610ad3578063735de9f714610a8f57806384e7984214610a6657806387d26ed614610a2c5780638ed955b9146109d357806391d148541461098b578063928c9c081461093457806397a6278e1461090b578063a217fddf146108f1578063aea2c4b81461088d578063b1baf18a146107cb578063bd7213fe14610467578063d547741f146104205763e31b273b14610126575f80fd5b3461041d576101343661155e565b909493959296610142611700565b61014a6118f0565b6001600160a01b038516948515158061040b575b610167906116c9565b88156103d85760206101dc9161017c876114dc565b6001600160a01b038b81165f908152918452604090912054166101a08115156115d1565b604051632d182be560e21b8152600481018d90523060248201526001600160a01b03909216604483015290928391908290869082906064820190565b03925af1801561039e576103a9575b506001600160a01b03838116971695819087890361028d57505061021188838199611b9c565b60038410156102795750604080516001600160a01b039384168152602081810199909952908101879052911660608201527fe47c59f2cff91bf36efd2838073963250e61b69891913f152a7cd1667bc99eaf9080608081015b0390a460018055604051908152f35b634e487b7160e01b81526021600452602490fd5b602090610343907f00000000000000000000000000000000000000000000000000000000000000006001600160a01b0316906102ca8d838d611910565b604051906102d78261160b565b8b82528c8583015262ffffff7f00000000000000000000000000000000000000000000000000000000000000001660408301523060608301524260808301528d60a083015260c08201528460e082015260405194858094819363414bf38960e01b835260048301611660565b03925af1801561039e578290610366575b6103619150838199611b9c565b610211565b506020813d602011610396575b8161038060209383611628565b81010312610392576103619051610354565b5f80fd5b3d9150610373565b6040513d84823e3d90fd5b6020813d6020116103d0575b816103c260209383611628565b8101031261039257516101eb565b3d91506103b5565b60405162461bcd60e51b815260206004820152600b60248201526a7a65726f2061737365747360a81b6044820152606490fd5b506001600160a01b038316151561015e565b80fd5b503461041d57604036600319011261041d5761046360043561044061146b565b9061045e610459825f525f602052600160405f20015490565b611798565b611a6d565b5080f35b503461041d576104763661155e565b90946104859794969397611700565b61048d6118f0565b6001600160a01b031693841515806107b9575b6104a9906116c9565b8715610786576104b8846114dc565b6001600160a01b038481165f9081526020929092526040909120541696871561074c5760018060a01b03169561051e6040516323b872dd60e01b60208201528760248201523060448201528a606482015260648152610518608482611628565b88611bd8565b6001600160a01b03841690899088830361063057508861057f996105486020948794928391611910565b604051636e553f6560e01b815260048101919091526001600160a01b03909216602483015290988991908290859082906044820190565b03925af19687156106235781976105ef575b5060038410156102795750604080516001600160a01b039384168152602081810199909952908101879052911660608201527f29f644b0aed8dd41a35bdc49989878813ad8d300fbb44d69d1345722ba5bed2990806080810161026a565b9096506020813d60201161061b575b8161060b60209383611628565b810103126103925751955f610591565b3d91506105fe565b50604051903d90823e3d90fd5b83916020916106e7917f00000000000000000000000000000000000000000000000000000000000000006001600160a01b03169161066f82848f611910565b6040519161067c8361160b565b8d8352878684015262ffffff7f000000000000000000000000000000000000000000000000000000000000000016604084015230606084015242608084015260a083015260c08201528460e082015260405194858094819363414bf38960e01b835260048301611660565b03925af190811561074157839161070f575b508861057f996105486020948794928391611910565b90506020813d602011610739575b8161072a60209383611628565b810103126103925751886106f9565b3d915061071d565b6040513d85823e3d90fd5b60405162461bcd60e51b81526020600482015260126024820152716e6f2074617267657420737472617465677960701b6044820152606490fd5b60405162461bcd60e51b815260206004820152600b60248201526a1e995c9bc8185b5bdd5b9d60aa1b6044820152606490fd5b506001600160a01b03821615156104a0565b50346103925760e0366003190112610392576107e5611497565b6107ed61146b565b6084359160ff831680930361039257610804611700565b6001600160a01b031691823b156103925760e45f9283604051958694859363d505accf60e01b855260018060a01b0316600485015230602485015260443560448501526064356064850152608484015260a43560a484015260c43560c48401525af1801561088257610874575080f35b61088091505f90611628565b005b6040513d5f823e3d90fd5b34610392576020366003190112610392576004356003811015610392576108bb906108b6611700565b61151e565b80545f5b8181106108c857005b806108eb6108d860019386611535565b848060a01b0391549060031b1c16611aed565b016108bf565b34610392575f3660031901126103925760206040515f8152f35b3461039257602036600319011261039257610880610927611497565b61092f611749565b6119dc565b346103925760403660031901126103925760043560038110156103925761095d6024359161151e565b80548210156103925760209161097291611535565b905460405160039290921b1c6001600160a01b03168152f35b34610392576040366003190112610392576109a461146b565b6004355f525f60205260405f209060018060a01b03165f52602052602060ff60405f2054166040519015158152f35b34610392575f366003190112610392576109eb611700565b5f5b600381101561088057600190610a028161151e565b8054905f5b828110610a1757505050016109ed565b80610a266108d8879385611535565b01610a07565b3461039257610a44610a3d366114ad565b9190611507565b9060018060a01b03165f52602052602060ff60405f2054166040519015158152f35b3461039257602036600319011261039257610880610a82611497565b610a8a611749565b6117d0565b34610392575f366003190112610392576040517f00000000000000000000000000000000000000000000000000000000000000006001600160a01b03168152602090f35b34610392575f36600319011261039257602060405162ffffff7f0000000000000000000000000000000000000000000000000000000000000000168152f35b3461039257602036600319011261039257610880610b2e611497565b610b36611700565b611aed565b3461039257606036600319011261039257600435600381101561039257610b6061146b565b610b68611481565b90610b71611749565b6001600160a01b03169081151580610d2f575b610b8d906116c9565b6040516338d52e0f60e01b81526001600160a01b03919091169290602081600481875afa80156108825783915f91610cea575b506001600160a01b031603610cba57610bd8816114dc565b825f5260205260405f20836bffffffffffffffffffffffff60a01b825416179055610c0281611507565b835f5260205260ff60405f20541615610c3c575b7fbb8bb0d7c7b3020027b45dff61cc82838c9dc019182446107127e43a2398a1f55f80a4005b610c4581611507565b835f5260205260405f20600160ff19825416179055610c638161151e565b805468010000000000000000811015610ca657610c8591600182018155611535565b81546001600160a01b0360039290921b91821b19169085901b179055610c16565b634e487b7160e01b5f52604160045260245ffd5b60405162461bcd60e51b81526020600482015260086024820152670dad2e6dac2e8c6d60c31b6044820152606490fd5b9150506020813d602011610d27575b81610d0660209383611628565b8101031261039257516001600160a01b038116810361039257829085610bc0565b3d9150610cf9565b506001600160a01b0381161515610b84565b34610392575f36600319011261039257602060405161251c8152f35b3461039257604036600319011261039257610d7661146b565b336001600160a01b03821603610d925761088090600435611a6d565b63334bd91960e11b5f5260045ffd5b346103925760c036600319011261039257600435600381101561039257610dc661146b565b90610dcf611481565b6064356001600160a01b03811693919291908481036103925760843590610df4611700565b610dfc6118f0565b6001600160a01b038316948515611317576001600160a01b0316958615158061130e575b156112df578087146112ad57821561127a57610e3b856114dc565b5f88815260209190915260409020546001600160a01b031693610e5d866114dc565b5f83815260209190915260409020546001600160a01b03169185151580611271575b610e88906115d1565b60408051632606a10b60e01b815290816004815f8b5af1611243575b506040516278744560e21b81526020816004818a5afa908115610882575f91611211575b506040516318160ddd60e01b8152906020826004818b5afa918215610882575f926111dd575b5081156111a9578087029087820403611195570495861561115e57604051632d182be560e21b8152600481018890523060248201526001600160a01b038416604482015290602090829060649082905f905af1908115610882578a91611129575b506110076020915f98610f8c8160018060a01b037f0000000000000000000000000000000000000000000000000000000000000000168094611910565b60405190610f998261160b565b8d8252858583015262ffffff7f000000000000000000000000000000000000000000000000000000000000000016604083015230606083015242608083015260a082015260a43560c08201528960e0820152604051998a8094819363414bf38960e01b835260048301611660565b03925af1958615610882575f966110f3575b508260209261102d885f9661106095611910565b604051636e553f6560e01b8152600481018990526001600160a01b03909116602482015293849283919082906044820190565b03925af18015610882576110c1575b50604080516001600160a01b0390921682526020820192909252908101919091527f2357f06850232eedccd75d284d36ff9337a2b413b6e27925065324b5e40640979080606081015b0390a460018055005b6020813d6020116110eb575b816110da60209383611628565b8101031261039257506110b861106f565b3d91506110cd565b909295506020813d602011611121575b8161111060209383611628565b810103126103925751949182611019565b3d9150611103565b90506020813d602011611156575b8161114460209383611628565b81010312610392575088611007610f4f565b3d9150611137565b60405162461bcd60e51b815260206004820152600f60248201526e7a65726f2061737365747346726f6d60881b6044820152606490fd5b634e487b7160e01b5f52601160045260245ffd5b60405162461bcd60e51b815260206004820152600c60248201526b656d70747920736f7572636560a01b6044820152606490fd5b9091506020813d602011611209575b816111f960209383611628565b810103126103925751908b610eee565b3d91506111ec565b90506020813d60201161123b575b8161122c60209383611628565b8101031261039257518a610ec8565b3d915061121f565b6112649060403d60401161126a575b61125c8183611628565b81019061164a565b50610ea4565b503d611252565b50821515610e7f565b60405162461bcd60e51b815260206004820152600b60248201526a7a65726f2073686172657360a81b6044820152606490fd5b60405162461bcd60e51b815260206004820152600a6024820152691cd85b5948185cdcd95d60b21b6044820152606490fd5b60405162461bcd60e51b8152602060048201526007602482015266061737365743d360cc1b6044820152606490fd5b50801515610e20565b60405162461bcd60e51b815260206004820152600760248201526606f776e65723d360cc1b6044820152606490fd5b346103925760403660031901126103925761088060043561136561146b565b9061137e610459825f525f602052600160405f20015490565b611868565b346103925760203660031901126103925760206113ad6004355f525f602052600160405f20015490565b604051908152f35b34610392575f3660031901126103925760206040515f80516020611c318339815191528152f35b34610392576113f46113ed366114ad565b91906114dc565b6001600160a01b039182165f90815260209182526040908190205490519216825290f35b34610392576020366003190112610392576004359063ffffffff60e01b821680920361039257602091637965db0b60e01b811490811561145a575b5015158152f35b6301ffc9a760e01b14905083611453565b602435906001600160a01b038216820361039257565b604435906001600160a01b038216820361039257565b600435906001600160a01b038216820361039257565b604090600319011261039257600435600381101561039257906024356001600160a01b03811681036103925790565b60038110156114f3575f52600260205260405f2090565b634e487b7160e01b5f52602160045260245ffd5b60038110156114f3575f52600460205260405f2090565b60038110156114f3575f52600360205260405f2090565b805482101561154a575f5260205f2001905f90565b634e487b7160e01b5f52603260045260245ffd5b60e090600319011261039257600435600381101561039257906024356001600160a01b038116810361039257906044356001600160a01b03811681036103925790606435906084356001600160a01b0381168103610392579060a4359060c4356001600160a01b03811681036103925790565b156115d857565b60405162461bcd60e51b815260206004820152600b60248201526a6e6f20737472617465677960a81b6044820152606490fd5b610100810190811067ffffffffffffffff821117610ca657604052565b90601f8019910116810190811067ffffffffffffffff821117610ca657604052565b9190826040910312610392576020825192015190565b81516001600160a01b03908116825260208084015182169083015260408084015162ffffff16908301526060808401518216908301526080808401519083015260a0808401519083015260c0808401519083015260e09283015116918101919091526101000190565b156116d057565b60405162461bcd60e51b81526020600482015260086024820152673130b21030b2323960c11b6044820152606490fd5b335f9081525f80516020611c51833981519152602052604090205460ff161561172557565b63e2517d3f60e01b5f52336004525f80516020611c3183398151915260245260445ffd5b335f9081527fad3228b676f7d3cd4284a5443f17f1962b36e491b30a40b2405849e597ba5fb5602052604090205460ff161561178157565b63e2517d3f60e01b5f52336004525f60245260445ffd5b5f8181526020818152604080832033845290915290205460ff16156117ba5750565b63e2517d3f60e01b5f523360045260245260445ffd5b6001600160a01b0381165f9081525f80516020611c51833981519152602052604090205460ff16611863576001600160a01b03165f8181525f80516020611c5183398151915260205260408120805460ff191660011790553391905f80516020611c31833981519152907f2f8788117e7eff1d82e926ec794901d17c78024a50270940304540a733656f0d9080a4600190565b505f90565b5f818152602081815260408083206001600160a01b038616845290915290205460ff166118ea575f818152602081815260408083206001600160a01b0395909516808452949091528120805460ff19166001179055339291907f2f8788117e7eff1d82e926ec794901d17c78024a50270940304540a733656f0d9080a4600190565b50505f90565b600260015414611901576002600155565b633ee5aeb560e01b5f5260045ffd5b60405163095ea7b360e01b60208083019182526001600160a01b0385166024840152604480840196909652948252929390925f9061194f606486611628565b84519082855af15f513d826119b7575b50501561196b57505050565b60405163095ea7b360e01b60208201526001600160a01b0390931660248401525f60448085019190915283526119b5926119b0906119aa606482611628565b82611bd8565b611bd8565b565b9091506119d457506001600160a01b0381163b15155b5f8061195f565b6001146119cd565b6001600160a01b0381165f9081525f80516020611c51833981519152602052604090205460ff1615611863576001600160a01b03165f8181525f80516020611c5183398151915260205260408120805460ff191690553391905f80516020611c31833981519152907ff6391f5c32d9c69d2a47ea670b442974b53935d1edc7fd64eb21e047a839171b9080a4600190565b5f818152602081815260408083206001600160a01b038616845290915290205460ff16156118ea575f818152602081815260408083206001600160a01b0395909516808452949091528120805460ff19169055339291907ff6391f5c32d9c69d2a47ea670b442974b53935d1edc7fd64eb21e047a839171b9080a4600190565b6001600160a01b0381168015611b985760405f916004825180948193632606a10b60e01b83525af1918215610882577ff343dfc1e44c65296fb907b287e6e12133eb7945ba79ec463d65ef129757c2ff925f925f91611b73575b50604080516001600160a01b03909316835260208301939093529181019190915280606081015b0390a1565b611b6e9350611b91915060403d60401161126a5761125c8183611628565b9092611b47565b5050565b60405163a9059cbb60e01b60208201526001600160a01b039290921660248301526044808301939093529181526119b5916119b0606483611628565b905f602091828151910182855af115610882575f513d611c2757506001600160a01b0381163b155b611c075750565b635274afe760e01b5f9081526001600160a01b0391909116600452602490fd5b60011415611c0056fecab5a0bfe0b79d2c4b1c2e02599fa044d115b7511f9659307cb4276950967709e298cb3514b0702cec56ac2053c1ecb2187cfdc8a325f22a672bc5027eadc9e2a2646970667358221220a4ea7ef9a3e20a0ea6040bdb0607ce915b31592f356a5d0f0ff7169ee388362264736f6c634300081a00332f8788117e7eff1d82e926ec794901d17c78024a50270940304540a733656f0de298cb3514b0702cec56ac2053c1ecb2187cfdc8a325f22a672bc5027eadc9e2ad3228b676f7d3cd4284a5443f17f1962b36e491b30a40b2405849e597ba5fb5",
    "linkReferences": {}
  },
  "methodIdentifiers": {
    "AGENT_ROLE()": "22459e18",
    "DEFAULT_ADMIN_ROLE()": "a217fddf",
    "SLIPPAGE_TOLERANCE()": "4c203786",
    "addAgent(address)": "84e79842",
    "defaultPoolFee()": "6f60a6dd",
    "depositERC20(uint8,address,address,uint256,address,uint256,address)": "bd7213fe",
    "getRoleAdmin(bytes32)": "248a9ca3",
    "grantRole(bytes32,address)": "2f2ff15d",
    "harvestAll()": "8ed955b9",
    "harvestProfile(uint8)": "aea2c4b8",
    "harvestStrategy(address)": "61f13e00",
    "hasRole(bytes32,address)": "91d14854",
    "isStrategyRegistered(uint8,address)": "87d26ed6",
    "permitShares(address,address,uint256,uint256,uint8,bytes32,bytes32)": "b1baf18a",
    "reallocate(uint8,address,address,address,uint256,uint256)": "362e8d13",
    "removeAgent(address)": "97a6278e",
    "renounceRole(bytes32,address)": "36568abe",
    "revokeRole(bytes32,address)": "d547741f",
    "setStrategy(uint8,address,address)": "4fc2d27a",
    "strategiesByProfile(uint8,uint256)": "928c9c08",
    "strategyOf(uint8,address)": "16178606",
    "supportsInterface(bytes4)": "01ffc9a7",
    "uniswapRouter()": "735de9f7",
    "withdrawERC20(uint8,address,address,uint256,address,uint256,address)": "e31b273b"
  },
  "id": 57
}