{
  "abi": [
    {
      "type": "constructor",
      "inputs": [
        {
          "name": "asset_",
          "type": "address",
          "internalType": "contract IERC20"
        },
        {
          "name": "aToken_",
          "type": "address",
          "internalType": "contract IERC20"
        },
        {
          "name": "treasury_",
          "type": "address",
          "internalType": "address"
        },
        {
          "name": "feeBps_",
          "type": "uint16",
          "internalType": "uint16"
        },
        {
          "name": "aavePool_",
          "type": "address",
          "internalType": "contract IAaveV3Pool"
        },
        {
          "name": "admin",
          "type": "address",
          "internalType": "address"
        }
      ],
      "stateMutability": "nonpayable"
    },
    {
      "type": "receive",
      "stateMutability": "payable"
    },
    {
      "type": "function",
      "name": "AGENT_ROLE",
      "inputs": [],
      "outputs": [
        {
          "name": "",
          "type": "bytes32",
          "internalType": "bytes32"
        }
      ],
      "stateMutability": "view"
    },
    {
      "type": "function",
      "name": "A_TOKEN",
      "inputs": [],
      "outputs": [
        {
          "name": "",
          "type": "address",
          "internalType": "contract IERC20"
        }
      ],
      "stateMutability": "view"
    },
    {
      "type": "function",
      "name": "DEFAULT_ADMIN_ROLE",
      "inputs": [],
      "outputs": [
        {
          "name": "",
          "type": "bytes32",
          "internalType": "bytes32"
        }
      ],
      "stateMutability": "view"
    },
    {
      "type": "function",
      "name": "PAUSER_ROLE",
      "inputs": [],
      "outputs": [
        {
          "name": "",
          "type": "bytes32",
          "internalType": "bytes32"
        }
      ],
      "stateMutability": "view"
    },
    {
      "type": "function",
      "name": "UNDERLYING",
      "inputs": [],
      "outputs": [
        {
          "name": "",
          "type": "address",
          "internalType": "contract IERC20"
        }
      ],
      "stateMutability": "view"
    },
    {
      "type": "function",
      "name": "aTokenBalance",
      "inputs": [],
      "outputs": [
        {
          "name": "",
          "type": "uint256",
          "internalType": "uint256"
        }
      ],
      "stateMutability": "view"
    },
    {
      "type": "function",
      "name": "aavePool",
      "inputs": [],
      "outputs": [
        {
          "name": "",
          "type": "address",
          "internalType": "contract IAaveV3Pool"
        }
      ],
      "stateMutability": "view"
    },
    {
      "type": "function",
      "name": "addAgent",
      "inputs": [
        {
          "name": "agent",
          "type": "address",
          "internalType": "address"
        }
      ],
      "outputs": [],
      "stateMutability": "nonpayable"
    },
    {
      "type": "function",
      "name": "allowance",
      "inputs": [
        {
          "name": "owner",
          "type": "address",
          "internalType": "address"
        },
        {
          "name": "spender",
          "type": "address",
          "internalType": "address"
        }
      ],
      "outputs": [
        {
          "name": "",
          "type": "uint256",
          "internalType": "uint256"
        }
      ],
      "stateMutability": "view"
    },
    {
      "type": "function",
      "name": "approve",
      "inputs": [
        {
          "name": "spender",
          "type": "address",
          "internalType": "address"
        },
        {
          "name": "value",
          "type": "uint256",
          "internalType": "uint256"
        }
      ],
      "outputs": [
        {
          "name": "",
          "type": "bool",
          "internalType": "bool"
        }
      ],
      "stateMutability": "nonpayable"
    },
    {
      "type": "function",
      "name": "asset",
      "inputs": [],
      "outputs": [
        {
          "name": "",
          "type": "address",
          "internalType": "address"
        }
      ],
      "stateMutability": "view"
    },
    {
      "type": "function",
      "name": "balanceOf",
      "inputs": [
        {
          "name": "account",
          "type": "address",
          "internalType": "address"
        }
      ],
      "outputs": [
        {
          "name": "",
          "type": "uint256",
          "internalType": "uint256"
        }
      ],
      "stateMutability": "view"
    },
    {
      "type": "function",
      "name": "checkpoint",
      "inputs": [],
      "outputs": [],
      "stateMutability": "nonpayable"
    },
    {
      "type": "function",
      "name": "convertToAssets",
      "inputs": [
        {
          "name": "shares",
          "type": "uint256",
          "internalType": "uint256"
        }
      ],
      "outputs": [
        {
          "name": "",
          "type": "uint256",
          "internalType": "uint256"
        }
      ],
      "stateMutability": "view"
    },
    {
      "type": "function",
      "name": "convertToShares",
      "inputs": [
        {
          "name": "assets",
          "type": "uint256",
          "internalType": "uint256"
        }
      ],
      "outputs": [
        {
          "name": "",
          "type": "uint256",
          "internalType": "uint256"
        }
      ],
      "stateMutability": "view"
    },
    {
      "type": "function",
      "name": "decimals",
      "inputs": [],
      "outputs": [
        {
          "name": "",
          "type": "uint8",
          "internalType": "uint8"
        }
      ],
      "stateMutability": "view"
    },
    {
      "type": "function",
      "name": "deposit",
      "inputs": [
        {
          "name": "assets",
          "type": "uint256",
          "internalType": "uint256"
        },
        {
          "name": "receiver",
          "type": "address",
          "internalType": "address"
        }
      ],
      "outputs": [
        {
          "name": "shares",
          "type": "uint256",
          "internalType": "uint256"
        }
      ],
      "stateMutability": "nonpayable"
    },
    {
      "type": "function",
      "name": "depositEth",
      "inputs": [
        {
          "name": "receiver",
          "type": "address",
          "internalType": "address"
        }
      ],
      "outputs": [
        {
          "name": "shares",
          "type": "uint256",
          "internalType": "uint256"
        }
      ],
      "stateMutability": "payable"
    },
    {
      "type": "function",
      "name": "ethGateway",
      "inputs": [],
      "outputs": [
        {
          "name": "",
          "type": "address",
          "internalType": "contract IWETHGateway"
        }
      ],
      "stateMutability": "view"
    },
    {
      "type": "function",
      "name": "ethMode",
      "inputs": [],
      "outputs": [
        {
          "name": "",
          "type": "bool",
          "internalType": "bool"
        }
      ],
      "stateMutability": "view"
    },
    {
      "type": "function",
      "name": "feeBps",
      "inputs": [],
      "outputs": [
        {
          "name": "",
          "type": "uint16",
          "internalType": "uint16"
        }
      ],
      "stateMutability": "view"
    },
    {
      "type": "function",
      "name": "getRoleAdmin",
      "inputs": [
        {
          "name": "role",
          "type": "bytes32",
          "internalType": "bytes32"
        }
      ],
      "outputs": [
        {
          "name": "",
          "type": "bytes32",
          "internalType": "bytes32"
        }
      ],
      "stateMutability": "view"
    },
    {
      "type": "function",
      "name": "grantRole",
      "inputs": [
        {
          "name": "role",
          "type": "bytes32",
          "internalType": "bytes32"
        },
        {
          "name": "account",
          "type": "address",
          "internalType": "address"
        }
      ],
      "outputs": [],
      "stateMutability": "nonpayable"
    },
    {
      "type": "function",
      "name": "hasRole",
      "inputs": [
        {
          "name": "role",
          "type": "bytes32",
          "internalType": "bytes32"
        },
        {
          "name": "account",
          "type": "address",
          "internalType": "address"
        }
      ],
      "outputs": [
        {
          "name": "",
          "type": "bool",
          "internalType": "bool"
        }
      ],
      "stateMutability": "view"
    },
    {
      "type": "function",
      "name": "idleUnderlying",
      "inputs": [],
      "outputs": [
        {
          "name": "",
          "type": "uint256",
          "internalType": "uint256"
        }
      ],
      "stateMutability": "view"
    },
    {
      "type": "function",
      "name": "lastCheckpointAssets",
      "inputs": [],
      "outputs": [
        {
          "name": "",
          "type": "uint256",
          "internalType": "uint256"
        }
      ],
      "stateMutability": "view"
    },
    {
      "type": "function",
      "name": "lastCheckpointTimestamp",
      "inputs": [],
      "outputs": [
        {
          "name": "",
          "type": "uint256",
          "internalType": "uint256"
        }
      ],
      "stateMutability": "view"
    },
    {
      "type": "function",
      "name": "maxDeposit",
      "inputs": [
        {
          "name": "",
          "type": "address",
          "internalType": "address"
        }
      ],
      "outputs": [
        {
          "name": "",
          "type": "uint256",
          "internalType": "uint256"
        }
      ],
      "stateMutability": "view"
    },
    {
      "type": "function",
      "name": "maxMint",
      "inputs": [
        {
          "name": "",
          "type": "address",
          "internalType": "address"
        }
      ],
      "outputs": [
        {
          "name": "",
          "type": "uint256",
          "internalType": "uint256"
        }
      ],
      "stateMutability": "view"
    },
    {
      "type": "function",
      "name": "maxRedeem",
      "inputs": [
        {
          "name": "owner",
          "type": "address",
          "internalType": "address"
        }
      ],
      "outputs": [
        {
          "name": "",
          "type": "uint256",
          "internalType": "uint256"
        }
      ],
      "stateMutability": "view"
    },
    {
      "type": "function",
      "name": "maxWithdraw",
      "inputs": [
        {
          "name": "owner",
          "type": "address",
          "internalType": "address"
        }
      ],
      "outputs": [
        {
          "name": "",
          "type": "uint256",
          "internalType": "uint256"
        }
      ],
      "stateMutability": "view"
    },
    {
      "type": "function",
      "name": "mint",
      "inputs": [
        {
          "name": "shares",
          "type": "uint256",
          "internalType": "uint256"
        },
        {
          "name": "receiver",
          "type": "address",
          "internalType": "address"
        }
      ],
      "outputs": [
        {
          "name": "assets",
          "type": "uint256",
          "internalType": "uint256"
        }
      ],
      "stateMutability": "nonpayable"
    },
    {
      "type": "function",
      "name": "name",
      "inputs": [],
      "outputs": [
        {
          "name": "",
          "type": "string",
          "internalType": "string"
        }
      ],
      "stateMutability": "view"
    },
    {
      "type": "function",
      "name": "pause",
      "inputs": [],
      "outputs": [],
      "stateMutability": "nonpayable"
    },
    {
      "type": "function",
      "name": "paused",
      "inputs": [],
      "outputs": [
        {
          "name": "",
          "type": "bool",
          "internalType": "bool"
        }
      ],
      "stateMutability": "view"
    },
    {
      "type": "function",
      "name": "previewDeposit",
      "inputs": [
        {
          "name": "assets",
          "type": "uint256",
          "internalType": "uint256"
        }
      ],
      "outputs": [
        {
          "name": "",
          "type": "uint256",
          "internalType": "uint256"
        }
      ],
      "stateMutability": "view"
    },
    {
      "type": "function",
      "name": "previewMint",
      "inputs": [
        {
          "name": "shares",
          "type": "uint256",
          "internalType": "uint256"
        }
      ],
      "outputs": [
        {
          "name": "",
          "type": "uint256",
          "internalType": "uint256"
        }
      ],
      "stateMutability": "view"
    },
    {
      "type": "function",
      "name": "previewRedeem",
      "inputs": [
        {
          "name": "shares",
          "type": "uint256",
          "internalType": "uint256"
        }
      ],
      "outputs": [
        {
          "name": "",
          "type": "uint256",
          "internalType": "uint256"
        }
      ],
      "stateMutability": "view"
    },
    {
      "type": "function",
      "name": "previewWithdraw",
      "inputs": [
        {
          "name": "assets",
          "type": "uint256",
          "internalType": "uint256"
        }
      ],
      "outputs": [
        {
          "name": "",
          "type": "uint256",
          "internalType": "uint256"
        }
      ],
      "stateMutability": "view"
    },
    {
      "type": "function",
      "name": "redeem",
      "inputs": [
        {
          "name": "shares",
          "type": "uint256",
          "internalType": "uint256"
        },
        {
          "name": "receiver",
          "type": "address",
          "internalType": "address"
        },
        {
          "name": "owner",
          "type": "address",
          "internalType": "address"
        }
      ],
      "outputs": [
        {
          "name": "assets",
          "type": "uint256",
          "internalType": "uint256"
        }
      ],
      "stateMutability": "nonpayable"
    },
    {
      "type": "function",
      "name": "removeAgent",
      "inputs": [
        {
          "name": "agent",
          "type": "address",
          "internalType": "address"
        }
      ],
      "outputs": [],
      "stateMutability": "nonpayable"
    },
    {
      "type": "function",
      "name": "renounceRole",
      "inputs": [
        {
          "name": "role",
          "type": "bytes32",
          "internalType": "bytes32"
        },
        {
          "name": "callerConfirmation",
          "type": "address",
          "internalType": "address"
        }
      ],
      "outputs": [],
      "stateMutability": "nonpayable"
    },
    {
      "type": "function",
      "name": "revokeRole",
      "inputs": [
        {
          "name": "role",
          "type": "bytes32",
          "internalType": "bytes32"
        },
        {
          "name": "account",
          "type": "address",
          "internalType": "address"
        }
      ],
      "outputs": [],
      "stateMutability": "nonpayable"
    },
    {
      "type": "function",
      "name": "setEthGateway",
      "inputs": [
        {
          "name": "gateway",
          "type": "address",
          "internalType": "address"
        },
        {
          "name": "enabled",
          "type": "bool",
          "internalType": "bool"
        }
      ],
      "outputs": [],
      "stateMutability": "nonpayable"
    },
    {
      "type": "function",
      "name": "setParams",
      "inputs": [
        {
          "name": "treasury_",
          "type": "address",
          "internalType": "address"
        },
        {
          "name": "feeBps_",
          "type": "uint16",
          "internalType": "uint16"
        }
      ],
      "outputs": [],
      "stateMutability": "nonpayable"
    },
    {
      "type": "function",
      "name": "supplyToAave",
      "inputs": [
        {
          "name": "amount",
          "type": "uint256",
          "internalType": "uint256"
        }
      ],
      "outputs": [],
      "stateMutability": "nonpayable"
    },
    {
      "type": "function",
      "name": "supportsInterface",
      "inputs": [
        {
          "name": "interfaceId",
          "type": "bytes4",
          "internalType": "bytes4"
        }
      ],
      "outputs": [
        {
          "name": "",
          "type": "bool",
          "internalType": "bool"
        }
      ],
      "stateMutability": "view"
    },
    {
      "type": "function",
      "name": "symbol",
      "inputs": [],
      "outputs": [
        {
          "name": "",
          "type": "string",
          "internalType": "string"
        }
      ],
      "stateMutability": "view"
    },
    {
      "type": "function",
      "name": "takeFees",
      "inputs": [],
      "outputs": [],
      "stateMutability": "nonpayable"
    },
    {
      "type": "function",
      "name": "totalAssets",
      "inputs": [],
      "outputs": [
        {
          "name": "",
          "type": "uint256",
          "internalType": "uint256"
        }
      ],
      "stateMutability": "view"
    },
    {
      "type": "function",
      "name": "totalSupply",
      "inputs": [],
      "outputs": [
        {
          "name": "",
          "type": "uint256",
          "internalType": "uint256"
        }
      ],
      "stateMutability": "view"
    },
    {
      "type": "function",
      "name": "transfer",
      "inputs": [
        {
          "name": "to",
          "type": "address",
          "internalType": "address"
        },
        {
          "name": "value",
          "type": "uint256",
          "internalType": "uint256"
        }
      ],
      "outputs": [
        {
          "name": "",
          "type": "bool",
          "internalType": "bool"
        }
      ],
      "stateMutability": "nonpayable"
    },
    {
      "type": "function",
      "name": "transferFrom",
      "inputs": [
        {
          "name": "from",
          "type": "address",
          "internalType": "address"
        },
        {
          "name": "to",
          "type": "address",
          "internalType": "address"
        },
        {
          "name": "value",
          "type": "uint256",
          "internalType": "uint256"
        }
      ],
      "outputs": [
        {
          "name": "",
          "type": "bool",
          "internalType": "bool"
        }
      ],
      "stateMutability": "nonpayable"
    },
    {
      "type": "function",
      "name": "treasury",
      "inputs": [],
      "outputs": [
        {
          "name": "",
          "type": "address",
          "internalType": "address"
        }
      ],
      "stateMutability": "view"
    },
    {
      "type": "function",
      "name": "unpause",
      "inputs": [],
      "outputs": [],
      "stateMutability": "nonpayable"
    },
    {
      "type": "function",
      "name": "withdraw",
      "inputs": [
        {
          "name": "assets",
          "type": "uint256",
          "internalType": "uint256"
        },
        {
          "name": "receiver",
          "type": "address",
          "internalType": "address"
        },
        {
          "name": "owner",
          "type": "address",
          "internalType": "address"
        }
      ],
      "outputs": [
        {
          "name": "shares",
          "type": "uint256",
          "internalType": "uint256"
        }
      ],
      "stateMutability": "nonpayable"
    },
    {
      "type": "function",
      "name": "withdrawEth",
      "inputs": [
        {
          "name": "assets",
          "type": "uint256",
          "internalType": "uint256"
        },
        {
          "name": "receiver",
          "type": "address",
          "internalType": "address"
        },
        {
          "name": "owner",
          "type": "address",
          "internalType": "address"
        }
      ],
      "outputs": [
        {
          "name": "shares",
          "type": "uint256",
          "internalType": "uint256"
        }
      ],
      "stateMutability": "nonpayable"
    },
    {
      "type": "function",
      "name": "withdrawFromAave",
      "inputs": [
        {
          "name": "amount",
          "type": "uint256",
          "internalType": "uint256"
        }
      ],
      "outputs": [],
      "stateMutability": "nonpayable"
    },
    {
      "type": "event",
      "name": "Approval",
      "inputs": [
        {
          "name": "owner",
          "type": "address",
          "indexed": true,
          "internalType": "address"
        },
        {
          "name": "spender",
          "type": "address",
          "indexed": true,
          "internalType": "address"
        },
        {
          "name": "value",
          "type": "uint256",
          "indexed": false,
          "internalType": "uint256"
        }
      ],
      "anonymous": false
    },
    {
      "type": "event",
      "name": "Checkpointed",
      "inputs": [
        {
          "name": "assets",
          "type": "uint256",
          "indexed": false,
          "internalType": "uint256"
        },
        {
          "name": "timestamp",
          "type": "uint256",
          "indexed": false,
          "internalType": "uint256"
        }
      ],
      "anonymous": false
    },
    {
      "type": "event",
      "name": "Deposit",
      "inputs": [
        {
          "name": "sender",
          "type": "address",
          "indexed": true,
          "internalType": "address"
        },
        {
          "name": "owner",
          "type": "address",
          "indexed": true,
          "internalType": "address"
        },
        {
          "name": "assets",
          "type": "uint256",
          "indexed": false,
          "internalType": "uint256"
        },
        {
          "name": "shares",
          "type": "uint256",
          "indexed": false,
          "internalType": "uint256"
        }
      ],
      "anonymous": false
    },
    {
      "type": "event",
      "name": "ParamsUpdated",
      "inputs": [
        {
          "name": "param",
          "type": "bytes32",
          "indexed": true,
          "internalType": "bytes32"
        },
        {
          "name": "oldValue",
          "type": "uint256",
          "indexed": false,
          "internalType": "uint256"
        },
        {
          "name": "newValue",
          "type": "uint256",
          "indexed": false,
          "internalType": "uint256"
        }
      ],
      "anonymous": false
    },
    {
      "type": "event",
      "name": "Paused",
      "inputs": [
        {
          "name": "account",
          "type": "address",
          "indexed": false,
          "internalType": "address"
        }
      ],
      "anonymous": false
    },
    {
      "type": "event",
      "name": "PerformanceFeeTaken",
      "inputs": [
        {
          "name": "treasury",
          "type": "address",
          "indexed": true,
          "internalType": "address"
        },
        {
          "name": "feeAssets",
          "type": "uint256",
          "indexed": false,
          "internalType": "uint256"
        },
        {
          "name": "feeShares",
          "type": "uint256",
          "indexed": false,
          "internalType": "uint256"
        }
      ],
      "anonymous": false
    },
    {
      "type": "event",
      "name": "RoleAdminChanged",
      "inputs": [
        {
          "name": "role",
          "type": "bytes32",
          "indexed": true,
          "internalType": "bytes32"
        },
        {
          "name": "previousAdminRole",
          "type": "bytes32",
          "indexed": true,
          "internalType": "bytes32"
        },
        {
          "name": "newAdminRole",
          "type": "bytes32",
          "indexed": true,
          "internalType": "bytes32"
        }
      ],
      "anonymous": false
    },
    {
      "type": "event",
      "name": "RoleGranted",
      "inputs": [
        {
          "name": "role",
          "type": "bytes32",
          "indexed": true,
          "internalType": "bytes32"
        },
        {
          "name": "account",
          "type": "address",
          "indexed": true,
          "internalType": "address"
        },
        {
          "name": "sender",
          "type": "address",
          "indexed": true,
          "internalType": "address"
        }
      ],
      "anonymous": false
    },
    {
      "type": "event",
      "name": "RoleRevoked",
      "inputs": [
        {
          "name": "role",
          "type": "bytes32",
          "indexed": true,
          "internalType": "bytes32"
        },
        {
          "name": "account",
          "type": "address",
          "indexed": true,
          "internalType": "address"
        },
        {
          "name": "sender",
          "type": "address",
          "indexed": true,
          "internalType": "address"
        }
      ],
      "anonymous": false
    },
    {
      "type": "event",
      "name": "SuppliedToAave",
      "inputs": [
        {
          "name": "asset",
          "type": "address",
          "indexed": true,
          "internalType": "address"
        },
        {
          "name": "amount",
          "type": "uint256",
          "indexed": false,
          "internalType": "uint256"
        },
        {
          "name": "agent",
          "type": "address",
          "indexed": true,
          "internalType": "address"
        }
      ],
      "anonymous": false
    },
    {
      "type": "event",
      "name": "Transfer",
      "inputs": [
        {
          "name": "from",
          "type": "address",
          "indexed": true,
          "internalType": "address"
        },
        {
          "name": "to",
          "type": "address",
          "indexed": true,
          "internalType": "address"
        },
        {
          "name": "value",
          "type": "uint256",
          "indexed": false,
          "internalType": "uint256"
        }
      ],
      "anonymous": false
    },
    {
      "type": "event",
      "name": "Unpaused",
      "inputs": [
        {
          "name": "account",
          "type": "address",
          "indexed": false,
          "internalType": "address"
        }
      ],
      "anonymous": false
    },
    {
      "type": "event",
      "name": "Withdraw",
      "inputs": [
        {
          "name": "sender",
          "type": "address",
          "indexed": true,
          "internalType": "address"
        },
        {
          "name": "receiver",
          "type": "address",
          "indexed": true,
          "internalType": "address"
        },
        {
          "name": "owner",
          "type": "address",
          "indexed": true,
          "internalType": "address"
        },
        {
          "name": "assets",
          "type": "uint256",
          "indexed": false,
          "internalType": "uint256"
        },
        {
          "name": "shares",
          "type": "uint256",
          "indexed": false,
          "internalType": "uint256"
        }
      ],
      "anonymous": false
    },
    {
      "type": "event",
      "name": "WithdrawnFromAave",
      "inputs": [
        {
          "name": "asset",
          "type": "address",
          "indexed": true,
          "internalType": "address"
        },
        {
          "name": "amount",
          "type": "uint256",
          "indexed": false,
          "internalType": "uint256"
        },
        {
          "name": "agent",
          "type": "address",
          "indexed": true,
          "internalType": "address"
        }
      ],
      "anonymous": false
    },
    {
      "type": "error",
      "name": "AccessControlBadConfirmation",
      "inputs": []
    },
    {
      "type": "error",
      "name": "AccessControlUnauthorizedAccount",
      "inputs": [
        {
          "name": "account",
          "type": "address",
          "internalType": "address"
        },
        {
          "name": "neededRole",
          "type": "bytes32",
          "internalType": "bytes32"
        }
      ]
    },
    {
      "type": "error",
      "name": "ERC20InsufficientAllowance",
      "inputs": [
        {
          "name": "spender",
          "type": "address",
          "internalType": "address"
        },
        {
          "name": "allowance",
          "type": "uint256",
          "internalType": "uint256"
        },
        {
          "name": "needed",
          "type": "uint256",
          "internalType": "uint256"
        }
      ]
    },
    {
      "type": "error",
      "name": "ERC20InsufficientBalance",
      "inputs": [
        {
          "name": "sender",
          "type": "address",
          "internalType": "address"
        },
        {
          "name": "balance",
          "type": "uint256",
          "internalType": "uint256"
        },
        {
          "name": "needed",
          "type": "uint256",
          "internalType": "uint256"
        }
      ]
    },
    {
      "type": "error",
      "name": "ERC20InvalidApprover",
      "inputs": [
        {
          "name": "approver",
          "type": "address",
          "internalType": "address"
        }
      ]
    },
    {
      "type": "error",
      "name": "ERC20InvalidReceiver",
      "inputs": [
        {
          "name": "receiver",
          "type": "address",
          "internalType": "address"
        }
      ]
    },
    {
      "type": "error",
      "name": "ERC20InvalidSender",
      "inputs": [
        {
          "name": "sender",
          "type": "address",
          "internalType": "address"
        }
      ]
    },
    {
      "type": "error",
      "name": "ERC20InvalidSpender",
      "inputs": [
        {
          "name": "spender",
          "type": "address",
          "internalType": "address"
        }
      ]
    },
    {
      "type": "error",
      "name": "ERC4626ExceededMaxDeposit",
      "inputs": [
        {
          "name": "receiver",
          "type": "address",
          "internalType": "address"
        },
        {
          "name": "assets",
          "type": "uint256",
          "internalType": "uint256"
        },
        {
          "name": "max",
          "type": "uint256",
          "internalType": "uint256"
        }
      ]
    },
    {
      "type": "error",
      "name": "ERC4626ExceededMaxMint",
      "inputs": [
        {
          "name": "receiver",
          "type": "address",
          "internalType": "address"
        },
        {
          "name": "shares",
          "type": "uint256",
          "internalType": "uint256"
        },
        {
          "name": "max",
          "type": "uint256",
          "internalType": "uint256"
        }
      ]
    },
    {
      "type": "error",
      "name": "ERC4626ExceededMaxRedeem",
      "inputs": [
        {
          "name": "owner",
          "type": "address",
          "internalType": "address"
        },
        {
          "name": "shares",
          "type": "uint256",
          "internalType": "uint256"
        },
        {
          "name": "max",
          "type": "uint256",
          "internalType": "uint256"
        }
      ]
    },
    {
      "type": "error",
      "name": "ERC4626ExceededMaxWithdraw",
      "inputs": [
        {
          "name": "owner",
          "type": "address",
          "internalType": "address"
        },
        {
          "name": "assets",
          "type": "uint256",
          "internalType": "uint256"
        },
        {
          "name": "max",
          "type": "uint256",
          "internalType": "uint256"
        }
      ]
    },
    {
      "type": "error",
      "name": "EnforcedPause",
      "inputs": []
    },
    {
      "type": "error",
      "name": "ExpectedPause",
      "inputs": []
    },
    {
      "type": "error",
      "name": "ReentrancyGuardReentrantCall",
      "inputs": []
    },
    {
      "type": "error",
      "name": "SafeERC20FailedOperation",
      "inputs": [
        {
          "name": "token",
          "type": "address",
          "internalType": "address"
        }
      ]
    }
  ],
  "bytecode": {
    "object": "0x61010060405234620000e8576200002662000019620002b0565b94939093929192620009c8565b62000030620000ee565b61513c6200174e823960805181612277015260a051816121e6015260c05181818161139701528181611827015281816126e8015281816127510152818161294d015281816129c301528181612e2f01528181612e7f01528181612ff6015281816130b7015281816131ea015281816132ad015281816136ce01528181613759015281816137a9015281816139190152613aa5015260e05181818161101d0152818161189a015281816120830152613b57015261513c90f35b620000f4565b60405190565b5f80fd5b601f801991011690565b634e487b7160e01b5f52604160045260245ffd5b906200012290620000f8565b810190811060018060401b038211176200013b57604052565b62000102565b906200015862000150620000ee565b928362000116565b565b5f80fd5b5f80fd5b60018060a01b031690565b620001789062000162565b90565b62000186906200016d565b90565b62000194816200017b565b036200019c57565b5f80fd5b90505190620001af8262000189565b565b620001bc816200016d565b03620001c457565b5f80fd5b90505190620001d782620001b1565b565b61ffff1690565b620001eb81620001d9565b03620001f357565b5f80fd5b905051906200020682620001e0565b565b62000213906200016d565b90565b620002218162000208565b036200022957565b5f80fd5b905051906200023c8262000216565b565b909160c082840312620002aa5762000259835f8401620001a0565b92620002698160208501620001a0565b92620002798260408301620001c8565b92620002a76200028d8460608501620001f7565b936200029d81608086016200022d565b9360a001620001c8565b90565b6200015a565b620002d36200688a80380380620002c78162000141565b9283398101906200023e565b909192939495565b90565b620002f7620002f1620002fd9262000162565b620002db565b62000162565b90565b6200030b90620002de565b90565b620003199062000300565b90565b6200032790620002de565b90565b62000335906200031c565b90565b620003439062000300565b90565b60e01b90565b5f80fd5b5f80fd5b60018060401b03811162000373576200036f602091620000f8565b0190565b62000102565b5f5b8381106200038c575050905f910152565b8060209183015181850152016200037b565b90929192620003b7620003b18262000354565b62000141565b93818552602085019082840111620003d657620003d49262000379565b565b62000350565b9080601f83011215620003fd57816020620003fa935191016200039e565b90565b6200034c565b9060208282031262000436575f82015160018060401b03811162000430576200042d9201620003dc565b90565b6200015e565b6200015a565b5f0190565b6200044b620000ee565b3d5f823e3d90fd5b7f416a6579200000000000000000000000000000000000000000000000000000009052565b5190565b905090565b620004ac620004a292602092620004988162000478565b948580936200047c565b9384910162000379565b0190565b7f205661756c7420536861726500000000000000000000000000000000000000009052565b600c916005620004f292620004ea8162000453565b019062000481565b620004fd81620004b0565b0190565b906200052f62000510620000ee565b809362000522602083019182620004d5565b9081038252038362000116565b565b7f614a2d00000000000000000000000000000000000000000000000000000000009052565b9060036200057192620005698162000531565b019062000481565b90565b90620005a262000583620000ee565b80936200059560208301918262000556565b9081038252038362000116565b565b90565b620005c0620005ba620005c692620005a4565b620002db565b62000162565b90565b620005d490620005a7565b90565b60209181520190565b5f7f74726561737572793d3000000000000000000000000000000000000000000000910152565b62000616600a602092620005d7565b6200062181620005e0565b0190565b6200063c9060208101905f81830391015262000607565b90565b156200064757565b62000651620000ee565b62461bcd60e51b815280620006696004820162000625565b0390fd5b620006789062000300565b90565b5f7f706f6f6c3d300000000000000000000000000000000000000000000000000000910152565b620006b16006602092620005d7565b620006bc816200067b565b0190565b620006d79060208101905f818303910152620006a2565b90565b15620006e257565b620006ec620000ee565b62461bcd60e51b8152806200070460048201620006c0565b0390fd5b90565b620007246200071e6200072a9262000708565b620002db565b620001d9565b90565b5f7f66656520746f6f20686967680000000000000000000000000000000000000000910152565b62000763600c602092620005d7565b6200076e816200072d565b0190565b620007899060208101905f81830391015262000754565b90565b156200079457565b6200079e620000ee565b62461bcd60e51b815280620007b66004820162000772565b0390fd5b5f1b90565b90620007d260018060a01b0391620007ba565b9181191691161790565b620007e79062000300565b90565b90565b9062000807620008016200080f92620007dc565b620007ea565b8254620007bf565b9055565b60a01b90565b906200082b61ffff60a01b9162000813565b9181191691161790565b6200084e620008486200085492620001d9565b620002db565b620001d9565b90565b90565b90620008746200086e6200087c9262000835565b62000857565b825462000819565b9055565b6200088b90620002de565b90565b620008999062000880565b90565b90565b90620008b9620008b3620008c1926200088e565b6200089c565b8254620007bf565b9055565b90565b620008e1620008db620008e792620005a4565b620007ba565b620008c5565b90565b620008f55f620008c8565b90565b7f65d7a28e3265b37a6474929f336521b332c1681b933f6cb9f3376673440d862a90565b906200092a5f1991620007ba565b9181191691161790565b90565b620009506200094a620009569262000934565b620002db565b62000934565b90565b90565b9062000976620009706200097e9262000937565b62000959565b82546200091c565b9055565b6200098e90516200017b565b90565b5f1c90565b60018060a01b031690565b620009b0620009b69162000991565b62000996565b90565b620009c59054620009a1565b90565b9493919262000a0b86945f620009f2620009ec620009e68b6200030e565b6200032a565b62000338565b6395d89b419062000a02620000ee565b94859262000346565b8252818062000a1d600482016200043c565b03915afa91821562000c2d5762000a7c9262000a42915f9162000c06575b5062000501565b935f62000a6362000a5d62000a578c6200030e565b6200032a565b62000338565b6395d89b419062000a73620000ee565b95869262000346565b8252818062000a8e600482016200043c565b03915afa98891562000c005762000acc62000b739862000b6b9762000ac562000b9a9d62000b63985f9162000bd9575b5062000574565b9162000c67565b62000af98362000af162000aea62000ae45f620005c9565b6200016d565b916200016d565b14156200063f565b62000b3062000b08886200066d565b62000b2862000b2162000b1b5f620005c9565b6200016d565b916200016d565b1415620006da565b62000b558562000b4d62000b466105dc6200070b565b91620001d9565b11156200078c565b60c05260e0526008620007ed565b60086200085a565b60096200089f565b62000b8962000b81620008ea565b82906200106a565b5062000b94620008f8565b6200106a565b5062000ba842600c6200095c565b62000bd762000bb860c062000982565b62000bce62000bc86009620009b9565b6200066d565b5f199162001203565b565b62000bf991503d805f833e62000bf0818362000116565b81019062000403565b5f62000abe565b62000441565b62000c2691503d805f833e62000c1d818362000116565b81019062000403565b5f62000a3b565b62000441565b90565b62000c4f62000c4962000c559262000c33565b620002db565b62000934565b90565b62000c64600162000c36565b90565b9062000c74929162000c8c565b62000c8a62000c8262000c58565b60076200095c565b565b9062000c99929162000c9b565b565b9062000ca8929162000caa565b565b9062000cb7929162000cb9565b565b9062000cc6929162000cc8565b565b9062000cd5929162000d02565b565b90565b60ff1690565b62000cf962000cf362000cff9262000cd7565b620002db565b62000cda565b90565b9162000d0e9162000d3d565b62000d19816200142a565b905f1462000d2a575b60a052608052565b5062000d37601262000ce0565b62000d22565b9062000d499162000fb8565b565b634e487b7160e01b5f52602260045260245ffd5b906001600283049216801562000d82575b602083101462000d7c57565b62000d4b565b91607f169162000d70565b5f5260205f2090565b601f602091010490565b1b90565b9190600862000dc391029162000dbc5f198462000da0565b9262000da0565b9181191691161790565b919062000de862000de262000df19362000937565b62000959565b90835462000da4565b9055565b5f90565b62000e0f9162000e0862000df5565b9162000dcd565b565b5b81811062000e1e575050565b8062000e2d5f60019362000df9565b0162000e12565b9190601f811162000e45575b505050565b62000e5462000e7f9362000d8d565b90602062000e628462000d96565b8301931062000e88575b62000e779062000d96565b019062000e11565b5f808062000e40565b915062000e778192905062000e6c565b1c90565b9062000eae905f199060080262000e98565b191690565b8162000ebf9162000e9c565b906002021790565b9062000ed38162000478565b9060018060401b03821162000fa45762000efa8262000ef3855462000d5f565b8562000e34565b602090601f831160011462000f335791809162000f21935f9262000f26575b505062000eb3565b90555b565b90915001515f8062000f19565b601f1983169162000f448562000d8d565b925f5b81811062000f8b5750916002939185600196941062000f6e575b5050500201905562000f24565b62000f80910151601f84169062000e9c565b90555f808062000f61565b9193602060018192878701518155019501920162000f47565b62000102565b9062000fb69162000ec7565b565b9062000fca62000fd292600362000faa565b600462000faa565b565b5f90565b151590565b62000fe890620008c5565b90565b9062000ff79062000fdd565b5f5260205260405f2090565b906200100f90620007dc565b5f5260205260405f2090565b906200102960ff91620007ba565b9181191691161790565b6200103e9062000fd8565b90565b90565b906200105e62001058620010669262001033565b62001041565b82546200101b565b9055565b6200107462000fd4565b506200108d620010868284906200155e565b1562000fd8565b5f146200112957620010bc6001620010b65f620010ad6005869062000feb565b01859062001003565b62001044565b90620010c762001594565b906200110a62001103620010fc7f2f8788117e7eff1d82e926ec794901d17c78024a50270940304540a733656f0d9562000fdd565b92620007dc565b92620007dc565b9262001115620000ee565b8062001121816200043c565b0390a4600190565b50505f90565b63ffffffff1690565b63ffffffff60e01b1690565b6200115d6200115762001163926200112f565b62000346565b62001138565b90565b62001171906200016d565b9052565b620011809062000934565b9052565b916020620011a9929493620011a160408201965f83019062001166565b019062001175565b565b620011c4620011be620011ca92620005a4565b620002db565b62000934565b90565b620011d890620011ab565b9052565b91602062001201929493620011f960408201965f83019062001166565b0190620011cd565b565b90916200124e6004916200123e63095ea7b36200122287939162001144565b926200122d620000ee565b958694602086019081520162001184565b6020820181038252038262000116565b906200126762001260828490620015a3565b1562000fd8565b62001272575b505050565b620012ca6004620012d094620012c48491620012b463095ea7b3620012985f9162001144565b92620012a3620000ee565b9687946020860190815201620011dc565b6020820181038252038362000116565b62001676565b62001676565b5f80806200126d565b5f90565b60018060401b038111620012fc57620012f8602091620000f8565b0190565b62000102565b90620013186200131283620012dd565b62000141565b918252565b606090565b3d5f146200134057620013353d62001302565b903d5f602084013e5b565b6200134a6200131d565b906200133e565b5190565b90565b620013716200136b620013779262001355565b620002db565b62000934565b90565b620013858162000934565b036200138d57565b5f80fd5b90505190620013a0826200137a565b565b90602082820312620013be57620013bb915f0162001391565b90565b6200015a565b620013dd620013d7620013e39262000cda565b620002db565b62000934565b90565b620013ff620013f9620014059262000934565b620002db565b62000cda565b90565b620014216200141b6200142792620005a4565b620002db565b62000cda565b90565b5f6200144d81926200143b62000fd4565b5062001446620012d9565b506200030e565b62001457620000ee565b62001487816200147760046020830163313ce56760e01b8152016200043c565b6020820181038252038262000116565b602081019051915afa6200149a62001322565b908062001506575b620014b9575b505f90620014b65f62001408565b90565b620014d7906020620014cb8262001351565b818301019101620013a2565b80620014ef620014e860ff620013c4565b9162000934565b11620014a8579062001503600192620013e6565b90565b50620015128162001351565b6200152962001522602062001358565b9162000934565b1015620014a2565b60ff1690565b620015466200154c9162000991565b62001531565b90565b6200155b905462001537565b90565b6200158d915f6200158062001587936200157762000fd4565b50600562000feb565b0162001003565b6200154f565b90565b5f90565b6200159e62001590565b503390565b905f602091620015b262000fd4565b50620015bd62000fd4565b50620015c862000df5565b50620015d362000df5565b50828151910182855af13d915f51919283620015f0575b50505090565b909192506200160a620016035f620011ab565b9162000934565b145f1462001640576200161e91506200030e565b3b620016356200162e5f620011ab565b9162000934565b115b5f8080620015ea565b506200165862001651600162000c36565b9162000934565b1462001637565b919062001674905f6020850194019062001166565b565b905f6020916200168562000df5565b506200169062000df5565b50828151910182855af11562001742573d5f5190620016ba620016b35f620011ab565b9162000934565b145f14620017235750620016ce816200030e565b3b620016e5620016de5f620011ab565b9162000934565b145b620016ef5750565b620016fe6200171f916200030e565b62001708620000ee565b918291635274afe760e01b8352600483016200165f565b0390fd5b6200173a62001733600162000c36565b9162000934565b1415620016e7565b6040513d5f823e3d90fdfe60806040526004361015610015575b3661174357005b61001f5f356103be565b806301e1d114146103b957806301ffc9a7146103b457806306fdde03146103af57806307a2d13a146103aa578063095ea7b3146103a55780630a28a477146103a057806311264a971461039b57806318160ddd146103965780632107b6d61461039157806322459e181461038c57806323b872dd14610387578063248a9ca31461038257806324a9d8531461037d5780632f2ff15d14610378578063313ce5671461037357806336568abe1461036e57806338d52e0f146103695780633f4ba83a14610364578063402d267d1461035f5780634cdad5061461035a5780635c975abb146103555780635dd912f51461035057806361d027b31461034b578063688f237b146103465780636e553f651461034157806370a082311461033c57806370ded44d146103375780638456cb591461033257806384e798421461032d5780638c00ce731461032857806391d148541461032357806394bf804d1461031e57806395d89b411461031957806397a6278e146103145780639ef0159f1461030f578063a03e4bc31461030a578063a217fddf14610305578063a9059cbb14610300578063ad9d4ba3146102fb578063b3d7f6b9146102f6578063b460af94146102f1578063ba087652146102ec578063c2c4c5c1146102e7578063c4587636146102e2578063c5d664c6146102dd578063c63d75b6146102d8578063c6e6f592146102d3578063cbc88dac146102ce578063ce96cb77146102c9578063d053c83b146102c4578063d547741f146102bf578063d905777e146102ba578063dd62ed3e146102b5578063e63ab1e9146102b0578063e70a2738146102ab578063e9a37738146102a6578063ee94d67c146102a15763ef8b30f70361000e5761170e565b6116d9565b611695565b611660565b61162b565b6115c6565b611564565b611530565b6114fa565b6114c5565b611490565b611423565b6113ee565b6113b9565b611360565b6112f1565b6112bb565b611285565b611216565b6111eb565b6111b5565b611180565b611110565b61106d565b610fe8565b610fb3565b610f7d565b610f47565b610f12565b610e46565b610e13565b610de0565b610dab565b610d75565b610d15565b610ce0565b610c6d565b610c38565b610c03565b610bce565b610b7d565b610b48565b610af2565b610abd565b610a61565b6109ff565b610967565b6108f0565b610881565b6107f9565b610774565b610740565b6106af565b610679565b6105dd565b610567565b6104af565b610406565b60e01c90565b60405190565b5f80fd5b5f80fd5b5f9103126103dc57565b6103ce565b90565b6103ed906103e1565b9052565b9190610404905f602085019401906103e4565b565b34610436576104163660046103d2565b610432610421611814565b6104296103c4565b918291826103f1565b0390f35b6103ca565b63ffffffff60e01b1690565b6104508161043b565b0361045757565b5f80fd5b9050359061046882610447565b565b9060208282031261048357610480915f0161045b565b90565b6103ce565b151590565b61049690610488565b9052565b91906104ad905f6020850194019061048d565b565b346104df576104db6104ca6104c536600461046a565b611979565b6104d26103c4565b9182918261049a565b0390f35b6103ca565b5190565b60209181520190565b5f5b838110610503575050905f910152565b8060209183015181850152016104f3565b601f801991011690565b61053d61054660209361054b93610534816104e4565b938480936104e8565b958691016104f1565b610514565b0190565b6105649160208201915f81840391015261051e565b90565b34610597576105773660046103d2565b610593610582611ad5565b61058a6103c4565b9182918261054f565b0390f35b6103ca565b6105a5816103e1565b036105ac57565b5f80fd5b905035906105bd8261059c565b565b906020828203126105d8576105d5915f016105b0565b90565b6103ce565b3461060d576106096105f86105f33660046105bf565b611aeb565b6106006103c4565b918291826103f1565b0390f35b6103ca565b60018060a01b031690565b61062690610612565b90565b6106328161061d565b0361063957565b5f80fd5b9050359061064a82610629565b565b91906040838203126106745780610668610671925f860161063d565b936020016105b0565b90565b6103ce565b346106aa576106a661069561068f36600461064c565b90611b02565b61069d6103c4565b9182918261049a565b0390f35b6103ca565b346106df576106db6106ca6106c53660046105bf565b611b24565b6106d26103c4565b918291826103f1565b0390f35b6103ca565b61ffff1690565b6106f4816106e4565b036106fb57565b5f80fd5b9050359061070c826106eb565b565b9190604083820312610736578061072a610733925f860161063d565b936020016106ff565b90565b6103ce565b5f0190565b3461076f5761075961075336600461070e565b90611f62565b6107616103c4565b8061076b8161073b565b0390f35b6103ca565b346107a4576107843660046103d2565b6107a061078f611f8f565b6107976103c4565b918291826103f1565b0390f35b6103ca565b6107b281610488565b036107b957565b5f80fd5b905035906107ca826107a9565b565b91906040838203126107f457806107e86107f1925f860161063d565b936020016107bd565b90565b6103ce565b346108285761081261080c3660046107cc565b906120d4565b61081a6103c4565b806108248161073b565b0390f35b6103ca565b7fcab5a0bfe0b79d2c4b1c2e02599fa044d115b7511f9659307cb427695096770990565b61085961082d565b90565b90565b6108689061085c565b9052565b919061087f905f6020850194019061085f565b565b346108b1576108913660046103d2565b6108ad61089c610851565b6108a46103c4565b9182918261086c565b0390f35b6103ca565b90916060828403126108eb576108e86108d1845f850161063d565b936108df816020860161063d565b936040016105b0565b90565b6103ce565b346109215761091d61090c6109063660046108b6565b916120e0565b6109146103c4565b9182918261049a565b0390f35b6103ca565b61092f8161085c565b0361093657565b5f80fd5b9050359061094782610926565b565b906020828203126109625761095f915f0161093a565b90565b6103ce565b346109975761099361098261097d366004610949565b612159565b61098a6103c4565b9182918261086c565b0390f35b6103ca565b1c90565b61ffff1690565b6109b79060086109bc930261099c565b6109a0565b90565b906109ca91546109a7565b90565b6109da60086014906109bf565b90565b6109e6906106e4565b9052565b91906109fd905f602085019401906109dd565b565b34610a2f57610a0f3660046103d2565b610a2b610a1a6109cd565b610a226103c4565b918291826109ea565b0390f35b6103ca565b9190604083820312610a5c5780610a50610a59925f860161093a565b9360200161063d565b90565b6103ce565b34610a9057610a7a610a74366004610a34565b906121a5565b610a826103c4565b80610a8c8161073b565b0390f35b6103ca565b60ff1690565b610aa490610a95565b9052565b9190610abb905f60208501940190610a9b565b565b34610aed57610acd3660046103d2565b610ae9610ad86121d8565b610ae06103c4565b91829182610aa8565b0390f35b6103ca565b34610b2157610b0b610b05366004610a34565b90612216565b610b136103c4565b80610b1d8161073b565b0390f35b6103ca565b610b2f9061061d565b9052565b9190610b46905f60208501940190610b26565b565b34610b7857610b583660046103d2565b610b74610b63612269565b610b6b6103c4565b91829182610b33565b0390f35b6103ca565b34610bab57610b8d3660046103d2565b610b956122c2565b610b9d6103c4565b80610ba78161073b565b0390f35b6103ca565b90602082820312610bc957610bc6915f0161063d565b90565b6103ce565b34610bfe57610bfa610be9610be4366004610bb0565b6122cc565b610bf16103c4565b918291826103f1565b0390f35b6103ca565b34610c3357610c2f610c1e610c193660046105bf565b6122db565b610c266103c4565b918291826103f1565b0390f35b6103ca565b34610c6857610c483660046103d2565b610c64610c53612313565b610c5b6103c4565b9182918261049a565b0390f35b6103ca565b34610c9b57610c7d3660046103d2565b610c85612621565b610c8d6103c4565b80610c978161073b565b0390f35b6103ca565b60018060a01b031690565b610cbb906008610cc0930261099c565b610ca0565b90565b90610cce9154610cab565b90565b610cdd60085f90610cc3565b90565b34610d1057610cf03660046103d2565b610d0c610cfb610cd1565b610d036103c4565b91829182610b33565b0390f35b6103ca565b34610d4357610d2d610d283660046105bf565b6127fa565b610d356103c4565b80610d3f8161073b565b0390f35b6103ca565b9190604083820312610d705780610d64610d6d925f86016105b0565b9360200161063d565b90565b6103ce565b34610da657610da2610d91610d8b366004610d48565b90612848565b610d996103c4565b918291826103f1565b0390f35b6103ca565b34610ddb57610dd7610dc6610dc1366004610bb0565b612873565b610dce6103c4565b918291826103f1565b0390f35b6103ca565b34610e0e57610df8610df33660046105bf565b612a6f565b610e006103c4565b80610e0a8161073b565b0390f35b6103ca565b34610e4157610e233660046103d2565b610e2b612a9e565b610e336103c4565b80610e3d8161073b565b0390f35b6103ca565b34610e7457610e5e610e59366004610bb0565b612ad7565b610e666103c4565b80610e708161073b565b0390f35b6103ca565b60018060a01b031690565b610e94906008610e99930261099c565b610e79565b90565b90610ea79154610e84565b90565b610eb6600a5f90610e9c565b90565b90565b610ed0610ecb610ed592610612565b610eb9565b610612565b90565b610ee190610ebc565b90565b610eed90610ed8565b90565b610ef990610ee4565b9052565b9190610f10905f60208501940190610ef0565b565b34610f4257610f223660046103d2565b610f3e610f2d610eaa565b610f356103c4565b91829182610efd565b0390f35b6103ca565b34610f7857610f74610f63610f5d366004610a34565b90612af8565b610f6b6103c4565b9182918261049a565b0390f35b6103ca565b34610fae57610faa610f99610f93366004610d48565b90612b65565b610fa16103c4565b918291826103f1565b0390f35b6103ca565b34610fe357610fc33660046103d2565b610fdf610fce612b7a565b610fd66103c4565b9182918261054f565b0390f35b6103ca565b3461101657611000610ffb366004610bb0565b612bbf565b6110086103c4565b806110128161073b565b0390f35b6103ca565b7f000000000000000000000000000000000000000000000000000000000000000090565b61104890610ed8565b90565b6110549061103f565b9052565b919061106b905f6020850194019061104b565b565b3461109d5761107d3660046103d2565b61109961108861101b565b6110906103c4565b91829182611058565b0390f35b6103ca565b60018060a01b031690565b6110bd9060086110c2930261099c565b6110a2565b90565b906110d091546110ad565b90565b6110df60095f906110c5565b90565b6110eb90610ed8565b90565b6110f7906110e2565b9052565b919061110e905f602085019401906110ee565b565b34611140576111203660046103d2565b61113c61112b6110d3565b6111336103c4565b918291826110fb565b0390f35b6103ca565b90565b5f1b90565b61116161115c61116692611145565b611148565b61085c565b90565b6111725f61114d565b90565b61117d611169565b90565b346111b0576111903660046103d2565b6111ac61119b611175565b6111a36103c4565b9182918261086c565b0390f35b6103ca565b346111e6576111e26111d16111cb36600461064c565b90612bca565b6111d96103c4565b9182918261049a565b0390f35b6103ca565b6112126112016111fc366004610bb0565b612f86565b6112096103c4565b918291826103f1565b0390f35b346112465761124261123161122c3660046105bf565b612f9a565b6112396103c4565b918291826103f1565b0390f35b6103ca565b90916060828403126112805761127d611266845f85016105b0565b93611274816020860161063d565b9360400161063d565b90565b6103ce565b346112b6576112b26112a161129b36600461124b565b91613187565b6112a96103c4565b918291826103f1565b0390f35b6103ca565b346112ec576112e86112d76112d136600461124b565b9161337e565b6112df6103c4565b918291826103f1565b0390f35b6103ca565b3461131f576113013660046103d2565b61130961341a565b6113116103c4565b8061131b8161073b565b0390f35b6103ca565b60ff1690565b61133a90600861133f930261099c565b611324565b90565b9061134d915461132a565b90565b61135d600a601490611342565b90565b34611390576113703660046103d2565b61138c61137b611350565b6113836103c4565b9182918261049a565b0390f35b6103ca565b7f000000000000000000000000000000000000000000000000000000000000000090565b346113e9576113c93660046103d2565b6113e56113d4611395565b6113dc6103c4565b91829182611058565b0390f35b6103ca565b3461141e5761141a611409611404366004610bb0565b613424565b6114116103c4565b918291826103f1565b0390f35b6103ca565b346114535761144f61143e6114393660046105bf565b613433565b6114466103c4565b918291826103f1565b0390f35b6103ca565b90565b61146b906008611470930261099c565b611458565b90565b9061147e915461145b565b90565b61148d600b5f90611473565b90565b346114c0576114a03660046103d2565b6114bc6114ab611481565b6114b36103c4565b918291826103f1565b0390f35b6103ca565b346114f5576114f16114e06114db366004610bb0565b61344a565b6114e86103c4565b918291826103f1565b0390f35b6103ca565b3461152b5761152761151661151036600461124b565b916139f3565b61151e6103c4565b918291826103f1565b0390f35b6103ca565b3461155f57611549611543366004610a34565b90613a33565b6115516103c4565b8061155b8161073b565b0390f35b6103ca565b346115945761159061157f61157a366004610bb0565b613a3f565b6115876103c4565b918291826103f1565b0390f35b6103ca565b91906040838203126115c157806115b56115be925f860161063d565b9360200161063d565b90565b6103ce565b346115f7576115f36115e26115dc366004611599565b90613a6a565b6115ea6103c4565b918291826103f1565b0390f35b6103ca565b7f65d7a28e3265b37a6474929f336521b332c1681b933f6cb9f3376673440d862a90565b6116286115fc565b90565b3461165b5761163b3660046103d2565b611657611646611620565b61164e6103c4565b9182918261086c565b0390f35b6103ca565b34611690576116703660046103d2565b61168c61167b613a92565b6116836103c4565b918291826103f1565b0390f35b6103ca565b346116c5576116a53660046103d2565b6116c16116b0613b44565b6116b86103c4565b918291826103f1565b0390f35b6103ca565b6116d6600c5f90611473565b90565b34611709576116e93660046103d2565b6117056116f46116ca565b6116fc6103c4565b918291826103f1565b0390f35b6103ca565b3461173e5761173a6117296117243660046105bf565b613bf6565b6117316103c4565b918291826103f1565b0390f35b6103ca565b5f80fd5b5f90565b61175490610ed8565b90565b5f80fd5b634e487b7160e01b5f52604160045260245ffd5b9061177990610514565b810190811067ffffffffffffffff82111761179357604052565b61175b565b60e01b90565b905051906117ab8261059c565b565b906020828203126117c6576117c3915f0161179e565b90565b6103ce565b6117d36103c4565b3d5f823e3d90fd5b634e487b7160e01b5f52601160045260245ffd5b6117fe611804919392936103e1565b926103e1565b820180921161180f57565b6117db565b61181c611747565b5061187d602061184b7f000000000000000000000000000000000000000000000000000000000000000061103f565b6370a082319061187261185d3061174b565b926118666103c4565b95869485938493611798565b835260048301610b33565b03915afa8015611970576118f0915f91611942575b5060206118be7f000000000000000000000000000000000000000000000000000000000000000061103f565b6370a08231906118e56118d03061174b565b926118d96103c4565b96879485938493611798565b835260048301610b33565b03915afa801561193d5761190c925f9161190f575b50906117ef565b90565b611930915060203d8111611936575b611928818361176f565b8101906117ad565b5f611905565b503d61191e565b6117cb565b611963915060203d8111611969575b61195b818361176f565b8101906117ad565b5f611892565b503d611951565b6117cb565b5f90565b611981611975565b508061199c611996637965db0b60e01b61043b565b9161043b565b149081156119a9575b5090565b6119b39150613c0d565b5f6119a5565b606090565b634e487b7160e01b5f52602260045260245ffd5b90600160028304921680156119f2575b60208310146119ed57565b6119be565b91607f16916119e2565b60209181520190565b5f5260205f2090565b905f9291805490611a28611a21836119d2565b80946119fc565b916001811690815f14611a7f5750600114611a43575b505050565b611a509192939450611a05565b915f925b818410611a6757505001905f8080611a3e565b60018160209295939554848601520191019290611a54565b92949550505060ff19168252151560200201905f8080611a3e565b90611aa491611a0e565b90565b90611ac7611ac092611ab76103c4565b93848092611a9a565b038361176f565b565b611ad290611aa7565b90565b611add6119b9565b50611ae86003611ac9565b90565b611aff90611af7611747565b505f90613c6e565b90565b611b1f91611b0e611975565b50611b17613cc3565b919091613cd0565b600190565b611b3990611b30611747565b50600190613ce0565b90565b90611b5691611b51611b4c611169565b613d35565b611e4c565b565b611b6c611b67611b7192611145565b610eb9565b610612565b90565b611b7d90611b58565b90565b5f7f74726561737572793d3000000000000000000000000000000000000000000000910152565b611bb4600a6020926104e8565b611bbd81611b80565b0190565b611bd69060208101905f818303910152611ba7565b90565b15611be057565b611be86103c4565b62461bcd60e51b815280611bfe60048201611bc1565b0390fd5b90565b611c19611c14611c1e92611c02565b610eb9565b6106e4565b90565b5f7f66656520746f6f20686967680000000000000000000000000000000000000000910152565b611c55600c6020926104e8565b611c5e81611c21565b0190565b611c779060208101905f818303910152611c48565b90565b15611c8157565b611c896103c4565b62461bcd60e51b815280611c9f60048201611c62565b0390fd5b60a01c90565b611cb5611cba91611ca3565b6109a0565b90565b611cc79054611ca9565b90565b6566656542707360d01b90565b611ceb611ce6611cf0926106e4565b610eb9565b6103e1565b90565b611cfc90611cd7565b9052565b916020611d21929493611d1a60408201965f830190611cf3565b0190611cf3565b565b5f1c90565b611d34611d3991611d23565b610ca0565b90565b611d469054611d28565b90565b611d5290610ebc565b90565b611d69611d64611d6e92610612565b610eb9565b6103e1565b90565b67747265617375727960c01b90565b916020611da1929493611d9a60408201965f8301906103e4565b01906103e4565b565b90611db460018060a01b0391611148565b9181191691161790565b611dc790610ed8565b90565b90565b90611de2611ddd611de992611dbe565b611dca565b8254611da3565b9055565b60a01b90565b90611e0361ffff60a01b91611ded565b9181191691161790565b611e21611e1c611e26926106e4565b610eb9565b6106e4565b90565b90565b90611e41611e3c611e4892611e0d565b611e29565b8254611df3565b9055565b90611f59611f6092611e7981611e72611e6c611e675f611b74565b61061d565b9161061d565b1415611bd9565b611e9883611e91611e8b6105dc611c05565b916106e4565b1115611c7a565b611ea26008611cbd565b837f6971b4f0b6ef70b5d9551beb71d4864d6d983119e809e7db05d264fee1134d8b90611ecd611cca565b92611ee2611ed96103c4565b92839283611d00565b0390a2611eff611efa611ef56008611d3c565b611d49565b611d55565b611f10611f0b83611d49565b611d55565b7f6971b4f0b6ef70b5d9551beb71d4864d6d983119e809e7db05d264fee1134d8b90611f3a611d71565b92611f4f611f466103c4565b92839283611d80565b0390a26008611dcd565b6008611e2c565b565b90611f6c91611b3c565b565b611f7a611f7f91611d23565b611458565b90565b611f8c9054611f6e565b90565b611f97611747565b50611fa26002611f82565b90565b90611fbf91611fba611fb5611169565b613d35565b612050565b565b611fca90610ebc565b90565b611fd690611fc1565b90565b611fe290611fc1565b90565b90565b90611ffd611ff861200492611fd9565b611fe5565b8254611da3565b9055565b9061201760ff60a01b91611ded565b9181191691161790565b61202a90610488565b90565b90565b9061204561204061204c92612021565b61202d565b8254612008565b9055565b9061206461205d83611fcd565b600a611fe8565b61206f81600a612030565b806120b1575b61207d575b50565b6120ab907f0000000000000000000000000000000000000000000000000000000000000000905f1991613dc1565b5f61207a565b50806120cd6120c76120c25f611b74565b61061d565b9161061d565b1415612075565b906120de91611fa5565b565b9161210a926120ed611975565b506121026120f9613cc3565b82908491613ebd565b919091613f50565b600190565b5f90565b61211c9061085c565b90565b9061212990612113565b5f5260205260405f2090565b90565b61214461214991611d23565b612135565b90565b6121569054612138565b90565b60016121726121789261216a61210f565b50600561211f565b0161214c565b90565b906121969161219161218c82612159565b613d35565b612198565b565b906121a291614031565b50565b906121af9161217b565b565b5f90565b6121c16121c791610a95565b91610a95565b019060ff82116121d357565b6117db565b6121e06121b1565b506122137f000000000000000000000000000000000000000000000000000000000000000061220d6140f9565b906121b5565b90565b908061223161222b612226613cc3565b61061d565b9161061d565b036122425761223f9161410e565b50565b61224a6103c4565b63334bd91960e11b8152806122616004820161073b565b0390fd5b5f90565b612271612265565b5061229b7f000000000000000000000000000000000000000000000000000000000000000061103f565b90565b6122ae6122a96115fc565b613d35565b6122b66122b8565b565b6122c0614210565b565b6122ca61229e565b565b506122d5611747565b505f1990565b6122ef906122e7611747565b505f90613c6e565b90565b6122fe61230391611d23565b611324565b90565b61231090546122f2565b90565b61231b611975565b506123266006612306565b90565b61233161421a565b61233961233b565b565b61234b61234661082d565b613d35565b612353612491565b565b61236961236461236e92611145565b610eb9565b6103e1565b90565b9061237d5f1991611148565b9181191691161790565b61239b6123966123a0926103e1565b610eb9565b6103e1565b90565b90565b906123bb6123b66123c292612387565b6123a3565b8254612371565b9055565b6123da6123d56123df92611145565b610eb9565b6106e4565b90565b6123f16123f7919392936103e1565b926103e1565b820391821161240257565b6117db565b61241661241c919392936103e1565b926103e1565b916124288382026103e1565b92818404149015171561243757565b6117db565b90565b61245361244e6124589261243c565b610eb9565b6103e1565b90565b634e487b7160e01b5f52601260045260245ffd5b61247b612481916103e1565b916103e1565b90811561248c570490565b61245b565b612499611814565b6124a3600b611f82565b806124b66124b05f612355565b916103e1565b1461260857816124ce6124c8836103e1565b916103e1565b11806125e5575b6124fb575b50506124ee6124e7611814565b600b6123a6565b6124f942600c6123a6565b565b61250b61252391612534936123e2565b61251d6125186008611cbd565b611cd7565b90612407565b61252e61271061243f565b9061246f565b806125476125415f612355565b916103e1565b11612553575b806124da565b61255c81613433565b908161257061256a5f612355565b916103e1565b1161257c575b5061254d565b6125906125896008611d3c565b839061424b565b61259a6008611d3c565b90916125c67faa3c5efbfd9c129a7407bdc6753e92ab563f04f88c7de5b307d06686697c507d92611dbe565b926125db6125d26103c4565b92839283611d80565b0390a25f80612576565b506125f06008611cbd565b6126026125fc5f6123c6565b916106e4565b116124d5565b5061261490600b6123a6565b61261f42600c6123a6565b565b612629612329565b565b61263c9061263761421a565b61263e565b565b6126579061265261264d61082d565b613d35565b6126ac565b565b61266561266a91611d23565b6110a2565b90565b6126779054612659565b90565b6040906126a36126aa949695939661269960608401985f850190610b26565b60208301906103e4565b0190610b26565b565b806126bf6126b95f612355565b916103e1565b146127f75760206126d86126d3600961266d565b6110e2565b916369328dec9261272e5f61270c7f000000000000000000000000000000000000000000000000000000000000000061103f565b939561273961271a3061174b565b6127226103c4565b98899788968795611798565b85526004850161267a565b03925af19081156127f2575f916127c4575b506127757f000000000000000000000000000000000000000000000000000000000000000061103f565b33906127bf6127ad6127a77ff88531a6e85f24185a3ad005feb22c4e53b07531d925da74170cfe21d2844b6593611dbe565b93611dbe565b936127b66103c4565b918291826103f1565b0390a3565b6127e5915060203d81116127eb575b6127dd818361176f565b8101906117ad565b5f61274b565b503d6127d3565b6117cb565b50565b6128039061262b565b565b90612818929161281361421a565b61281b565b90565b9061282e92916128296142dc565b612839565b90612837614348565b565b9061284592915061435c565b90565b9061285a91612855611747565b612805565b90565b9061286790611dbe565b5f5260205260405f2090565b61288961288e91612882611747565b505f61285d565b611f82565b90565b6128a29061289d61421a565b6128a4565b565b6128bd906128b86128b361082d565b613d35565b612919565b565b5f9103126128c957565b6103ce565b6128d7906123c6565b9052565b612910612917946129066060949897956128fc608086019a5f870190610b26565b60208501906103e4565b6040830190610b26565b01906128ce565b565b8061292c6129265f612355565b916103e1565b14612a6c5761294361293e600961266d565b6110e2565b63617ba0376129717f000000000000000000000000000000000000000000000000000000000000000061103f565b839261297c3061174b565b5f823b15612a67575f946129ae86926129a3946129976103c4565b998a9889978896611798565b8652600486016128db565b03925af18015612a6257612a36575b506129e77f000000000000000000000000000000000000000000000000000000000000000061103f565b3390612a31612a1f612a197fe7bb03b691472587f7ba61e51bc49b59d80b107fa536149c642b31ce92e26e6893611dbe565b93611dbe565b93612a286103c4565b918291826103f1565b0390a3565b612a55905f3d8111612a5b575b612a4d818361176f565b8101906128bf565b5f6129bd565b503d612a43565b6117cb565b611757565b50565b612a7890612891565b565b612a8a612a856115fc565b613d35565b612a92612a94565b565b612a9c614433565b565b612aa6612a7a565b565b612ac190612abc612ab7611169565b613d35565b612ac3565b565b612ad490612acf61082d565b614031565b50565b612ae090612aa8565b565b90612aec90611dbe565b5f5260205260405f2090565b612b1f915f612b14612b1a93612b0c611975565b50600561211f565b01612ae2565b612306565b90565b90612b359291612b3061421a565b612b38565b90565b90612b4b9291612b466142dc565b612b56565b90612b54614348565b565b90612b6292915061443d565b90565b90612b7791612b72611747565b612b22565b90565b612b826119b9565b50612b8d6004611ac9565b90565b612ba990612ba4612b9f611169565b613d35565b612bab565b565b612bbc90612bb761082d565b61410e565b50565b612bc890612b90565b565b612be791612bd6611975565b50612bdf613cc3565b919091613f50565b600190565b90612bfe91612bf961421a565b612c01565b90565b90612c1391612c0e6142dc565b612de9565b90612c1c614348565b565b612c2a612c2f91611ca3565b611324565b90565b612c3c9054612c1e565b90565b5f7f4554482064697361626c65640000000000000000000000000000000000000000910152565b612c73600c6020926104e8565b612c7c81612c3f565b0190565b612c959060208101905f818303910152612c66565b90565b15612c9f57565b612ca76103c4565b62461bcd60e51b815280612cbd60048201612c80565b0390fd5b5f7f6e6f204554480000000000000000000000000000000000000000000000000000910152565b612cf560066020926104e8565b612cfe81612cc1565b0190565b612d179060208101905f818303910152612ce8565b90565b15612d2157565b612d296103c4565b62461bcd60e51b815280612d3f60048201612d02565b0390fd5b5f7f61737365743d3000000000000000000000000000000000000000000000000000910152565b612d7760076020926104e8565b612d8081612d43565b0190565b612d999060208101905f818303910152612d6a565b90565b15612da357565b612dab6103c4565b62461bcd60e51b815280612dc160048201612d84565b0390fd5b612dce90610ebc565b90565b612dda90612dc5565b90565b612de690610ed8565b90565b91909150612dff612dfa600a612c32565b612c98565b3491612e1d83612e17612e115f612355565b916103e1565b11612d1a565b612e2683613bf6565b92612e74612e537f000000000000000000000000000000000000000000000000000000000000000061103f565b612e6d612e67612e625f611b74565b61061d565b9161061d565b1415612d9c565b612ead612ea8612ea37f000000000000000000000000000000000000000000000000000000000000000061103f565b612dd1565b612ddd565b63d0e30db0829190813b15612f81575f91612ed491612eca6103c4565b9485938492611798565b825281612ee36004820161073b565b03925af18015612f7c57612f50575b50612efe82859061424b565b3391909184612f36612f307fdcbc1c05240f31ff3ad067ef1ee35ce4997762752e3a095284754544f4c709d793611dbe565b93611dbe565b93612f4b612f426103c4565b92839283611d80565b0390a3565b612f6f905f3d8111612f75575b612f67818361176f565b8101906128bf565b5f612ef2565b503d612f5d565b6117cb565b611757565b612f9790612f92611747565b612bec565b90565b612faf90612fa6611747565b50600190613c6e565b90565b90612fc6939291612fc161421a565b612fc9565b90565b90612fdd939291612fd86142dc565b612fe8565b90612fe6614348565b565b9290925061304c602061301a7f000000000000000000000000000000000000000000000000000000000000000061103f565b6370a082319061304161302c3061174b565b926130356103c4565b95869485938493611798565b835260048301610b33565b03915afa908115613182575f91613154575b508061307261306c866103e1565b916103e1565b10613088575b50613085929190916144b4565b90565b61309290846123e2565b9260206130a76130a2600961266d565b6110e2565b946369328dec956130fd5f6130db7f000000000000000000000000000000000000000000000000000000000000000061103f565b93986131086130e93061174b565b6130f16103c4565b9b8c9788968795611798565b85526004850161267a565b03925af193841561314f5761308594613123575b5092613078565b6131439060203d8111613148575b61313b818361176f565b8101906117ad565b61311c565b503d613131565b6117cb565b613175915060203d811161317b575b61316d818361176f565b8101906117ad565b5f61305e565b503d613163565b6117cb565b9061319a9291613195611747565b612fb2565b90565b906131b19392916131ac61421a565b6131b4565b90565b906131c89392916131c36142dc565b6131d3565b906131d1614348565b565b929092506131e0836122db565b613240602061320e7f000000000000000000000000000000000000000000000000000000000000000061103f565b6370a08231906132356132203061174b565b926132296103c4565b95869485938493611798565b835260048301610b33565b03915afa908115613379575f9161334b575b509081613267613261836103e1565b916103e1565b1061327e575b505061327b9291909161452e565b90565b90613288916123e2565b92602061329d613298600961266d565b6110e2565b946369328dec956132f35f6132d17f000000000000000000000000000000000000000000000000000000000000000061103f565b93986132fe6132df3061174b565b6132e76103c4565b9b8c9788968795611798565b85526004850161267a565b03925af19384156133465761327b9461331a575b81945061326d565b61333a9060203d811161333f575b613332818361176f565b8101906117ad565b613312565b503d613328565b6117cb565b61336c915060203d8111613372575b613364818361176f565b8101906117ad565b5f613252565b503d61335a565b6117cb565b90613391929161338c611747565b61319d565b90565b61339c61421a565b6133a46133a6565b565b6133b66133b161082d565b613d35565b6133be6133c0565b565b6133c8611814565b6133d381600b6123a6565b6133de42600c6123a6565b427f4e00a2ed038d92152bef661635a17f174048bd4d6ed7fa9a0b01be5f7feaf22e9161341561340c6103c4565b92839283611d80565b0390a1565b613422613394565b565b5061342d611747565b505f1990565b6134479061343f611747565b505f90613ce0565b90565b61345f61346691613459611747565b50612873565b5f90613c6e565b90565b9061347d93929161347861421a565b613480565b90565b9061349493929161348f6142dc565b613664565b9061349d614348565b565b5f7f7a65726f20617373657473000000000000000000000000000000000000000000910152565b6134d3600b6020926104e8565b6134dc8161349f565b0190565b6134f59060208101905f8183039101526134c6565b90565b156134ff57565b6135076103c4565b62461bcd60e51b81528061351d600482016134e0565b0390fd5b61352a90610ebc565b90565b61353690613521565b90565b61354290610ed8565b90565b905090565b6135555f8092613545565b0190565b6135629061354a565b90565b906135786135716103c4565b928361176f565b565b67ffffffffffffffff811161359857613594602091610514565b0190565b61175b565b906135af6135aa8361357a565b613565565b918252565b606090565b3d5f146135d4576135c93d61359d565b903d5f602084013e5b565b6135dc6135b4565b906135d2565b5f7f4554482073656e64206661696c65640000000000000000000000000000000000910152565b613616600f6020926104e8565b61361f816135e2565b0190565b6136389060208101905f818303910152613609565b90565b1561364257565b61364a6103c4565b62461bcd60e51b81528061366060048201613623565b0390fd5b9392935061367a613675600a612c32565b612c98565b6136968161369061368a5f612355565b916103e1565b116134f8565b61369f81611b24565b93336136b36136ad8361061d565b9161061d565b036139e2575b6136c48186906145a5565b61372460206136f27f000000000000000000000000000000000000000000000000000000000000000061103f565b6370a08231906137196137043061174b565b9261370d6103c4565b95869485938493611798565b835260048301610b33565b03915afa9081156139dd575f916139af575b508061374a613744856103e1565b916103e1565b106138eb575b5061379e61377d7f000000000000000000000000000000000000000000000000000000000000000061103f565b61379761379161378c5f611b74565b61061d565b9161061d565b1415612d9c565b6137d76137d26137cd7f000000000000000000000000000000000000000000000000000000000000000061103f565b612dd1565b612ddd565b632e1a7d4d83823b156138e65761380d926138025f80946137f66103c4565b96879586948593611798565b8352600483016103f1565b03925af180156138e1576138b5575b506138595f8061383361382e8761352d565b613539565b8561383c6103c4565b908161384781613559565b03925af16138536135b9565b5061363b565b33929091928561389b61389561388f7ffbde797d201c681b91056529119e0b02407c7bb96a4a2c75c01fc9667232c8db94611dbe565b94611dbe565b94611dbe565b946138b06138a76103c4565b92839283611d80565b0390a4565b6138d4905f3d81116138da575b6138cc818361176f565b8101906128bf565b5f61381c565b503d6138c2565b6117cb565b611757565b6138f590836123e2565b6020613909613904600961266d565b6110e2565b916369328dec9261395f5f61393d7f000000000000000000000000000000000000000000000000000000000000000061103f565b939561396a61394b3061174b565b6139536103c4565b98899788968795611798565b85526004850161267a565b03925af180156139aa5761397e575b613750565b61399e9060203d81116139a3575b613996818361176f565b8101906117ad565b613979565b503d61398c565b6117cb565b6139d0915060203d81116139d6575b6139c8818361176f565b8101906117ad565b5f613736565b503d6139be565b6117cb565b6139ee81338791613ebd565b6136b9565b90613a069291613a01611747565b613469565b90565b90613a2491613a1f613a1a82612159565b613d35565b613a26565b565b90613a309161410e565b50565b90613a3d91613a09565b565b613a5190613a4b611747565b50612873565b90565b90613a5e90611dbe565b5f5260205260405f2090565b613a8f91613a85613a8a92613a7d611747565b506001613a54565b61285d565b611f82565b90565b613a9a611747565b50613afb6020613ac97f000000000000000000000000000000000000000000000000000000000000000061103f565b6370a0823190613af0613adb3061174b565b92613ae46103c4565b95869485938493611798565b835260048301610b33565b03915afa908115613b3f575f91613b11575b5090565b613b32915060203d8111613b38575b613b2a818361176f565b8101906117ad565b5f613b0d565b503d613b20565b6117cb565b613b4c611747565b50613bad6020613b7b7f000000000000000000000000000000000000000000000000000000000000000061103f565b6370a0823190613ba2613b8d3061174b565b92613b966103c4565b95869485938493611798565b835260048301610b33565b03915afa908115613bf1575f91613bc3575b5090565b613be4915060203d8111613bea575b613bdc818361176f565b8101906117ad565b5f613bbf565b503d613bd2565b6117cb565b613c0a90613c02611747565b505f90613ce0565b90565b613c15611975565b50613c2f613c296301ffc9a760e01b61043b565b9161043b565b1490565b90565b613c4a613c45613c4f92613c33565b610eb9565b6103e1565b90565b613c5b90610a95565b604d8111613c6957600a0a90565b6117db565b90613cc091613c7b611747565b5090613c98613c88611814565b613c926001613c36565b906117ef565b613cb9613ca3611f8f565b613cb3613cae6140f9565b613c52565b906117ef565b919261460b565b90565b613ccb612265565b503390565b91613cde929160019261467f565b565b90613d3291613ced611747565b5090613d10613cfa611f8f565b613d0a613d056140f9565b613c52565b906117ef565b613d2b613d1b611814565b613d256001613c36565b906117ef565b919261460b565b90565b613d4790613d41613cc3565b906147bf565b565b63ffffffff1690565b613d66613d61613d6b92613d49565b611798565b61043b565b90565b916020613d8f929493613d8860408201965f830190610b26565b01906103e4565b565b613d9a90612355565b9052565b916020613dbf929493613db860408201965f830190610b26565b0190613d91565b565b9091613e04600491613df563095ea7b3613ddc879391613d52565b92613de56103c4565b9586946020860190815201613d6e565b6020820181038252038261176f565b90613e19613e13828490614801565b15610488565b613e23575b505050565b613e706004613e7594613e6b8491613e5c63095ea7b3613e435f91613d52565b92613e4c6103c4565b9687946020860190815201613d9e565b6020820181038252038361176f565b6148a3565b6148a3565b5f8080613e1e565b604090613ea6613ead9496959396613e9c60608401985f850190610b26565b60208301906103e4565b01906103e4565b565b90613eba91036103e1565b90565b929192613ecb818390613a6a565b9081613ee0613eda5f196103e1565b916103e1565b10613eed575b5050509050565b81613f00613efa876103e1565b916103e1565b10613f2657613f1d9394613f15919392613eaf565b905f9261467f565b805f8080613ee6565b50613f4c84929192613f366103c4565b938493637dc7a0d960e11b855260048501613e7d565b0390fd5b9182613f6c613f66613f615f611b74565b61061d565b9161061d565b14613fcd5781613f8c613f86613f815f611b74565b61061d565b9161061d565b14613f9f57613f9d9291909161496c565b565b613fc9613fab5f611b74565b613fb36103c4565b91829163ec442f0560e01b835260048301610b33565b0390fd5b613ff7613fd95f611b74565b613fe16103c4565b918291634b637e8f60e11b835260048301610b33565b0390fd5b9061400760ff91611148565b9181191691161790565b9061402661402161402d92612021565b61202d565b8254613ffb565b9055565b614039611975565b5061404e614048828490612af8565b15610488565b5f146140d75761407660016140715f6140696005869061211f565b018590612ae2565b614011565b9061407f613cc3565b906140bc6140b66140b07f2f8788117e7eff1d82e926ec794901d17c78024a50270940304540a733656f0d95612113565b92611dbe565b92611dbe565b926140c56103c4565b806140cf8161073b565b0390a4600190565b50505f90565b6140f16140ec6140f692611145565b610eb9565b610a95565b90565b6141016121b1565b5061410b5f6140dd565b90565b614116611975565b50614122818390612af8565b5f146141aa576141495f6141445f61413c6005869061211f565b018590612ae2565b614011565b90614152613cc3565b9061418f6141896141837ff6391f5c32d9c69d2a47ea670b442974b53935d1edc7fd64eb21e047a839171b95612113565b92611dbe565b92611dbe565b926141986103c4565b806141a28161073b565b0390a4600190565b50505f90565b6141b8614ae2565b6141c06141c2565b565b6141cd5f6006614011565b6141d5613cc3565b61420b7f5db9ee0a495bf2e6ff9c91a7834c1ba4fdd244a5e8aa4e537bd38aeae4b073aa916142026103c4565b91829182610b33565b0390a1565b6142186141b0565b565b614222612313565b61422857565b6142306103c4565b63d93c066560e01b8152806142476004820161073b565b0390fd5b8061426661426061425b5f611b74565b61061d565b9161061d565b1461428257614280916142785f611b74565b91909161496c565b565b6142ac61428e5f611b74565b6142966103c4565b91829163ec442f0560e01b835260048301610b33565b0390fd5b90565b6142c76142c26142cc926142b0565b610eb9565b6103e1565b90565b6142d960026142b3565b90565b6142e66007611f82565b6142ff6142f96142f46142cf565b6103e1565b916103e1565b146143185761431661430f6142cf565b60076123a6565b565b6143206103c4565b633ee5aeb560e01b8152806143376004820161073b565b0390fd5b6143456001613c36565b90565b61435a61435361433b565b60076123a6565b565b90614365611747565b5061436f816122cc565b8261438261437c836103e1565b916103e1565b116143a957506143a69061439583613bf6565b9261439e613cc3565b918492614b40565b90565b826143ce8391926143b86103c4565b938493633c8097d960e11b855260048501613e7d565b0390fd5b6143da61421a565b6143e26143e4565b565b6143f060016006614011565b6143f8613cc3565b61442e7f62e78cea01bee320cd4e420270b5ea74000d11b0c9f74754ebdbfc544b05a258916144256103c4565b91829182610b33565b0390a1565b61443b6143d2565b565b90614446611747565b5061445081613424565b8261446361445d836103e1565b916103e1565b1161448b57506144889061447683612f9a565b9261447f613cc3565b91849192614b40565b90565b826144b083919261449a6103c4565b93849363284ff66760e01b855260048501613e7d565b0390fd5b916144bd611747565b506144c78161344a565b836144da6144d4836103e1565b916103e1565b11614505575090614502916144ee84611b24565b936144f7613cc3565b929190918593614bc0565b90565b8361452a8391926145146103c4565b938493633fa733bb60e21b855260048501613e7d565b0390fd5b614536611747565b5061454083613a3f565b8161455361454d836103e1565b916103e1565b1161457c57509081614567614579936122db565b93614570613cc3565b92859293614bc0565b90565b906145a184919261458b6103c4565b938493632e52afbb60e21b855260048501613e7d565b0390fd5b90816145c16145bb6145b65f611b74565b61061d565b9161061d565b146145dd576145db91906145d45f611b74565b909161496c565b565b6146076145e95f611b74565b6145f16103c4565b918291634b637e8f60e11b835260048301610b33565b0390fd5b929190614616611747565b5061462c61462685838591614d11565b93614f93565b938461464b575b50505061464261464892614fcf565b906117ef565b90565b909193509092801561467a5761464893614642920961467261466c5f612355565b916103e1565b11925f614633565b61245b565b90928161469c6146966146915f611b74565b61061d565b9161061d565b1461476e57836146bc6146b66146b15f611b74565b61061d565b9161061d565b14614740576146e0836146db6146d460018690613a54565b879061285d565b6123a6565b6146ea575b505050565b91909161473561472361471d7f8c5be1e5ebec7d5bd14f71427d1e84f3dd0314c0f7b2291e5b200ac8c7c3b92593611dbe565b93611dbe565b9361472c6103c4565b918291826103f1565b0390a35f80806146e5565b61476a61474c5f611b74565b6147546103c4565b918291634a1406b160e11b835260048301610b33565b0390fd5b61479861477a5f611b74565b6147826103c4565b91829163e602df0560e01b835260048301610b33565b0390fd5b9160206147bd9294936147b660408201965f830190610b26565b019061085f565b565b906147d46147ce838390612af8565b15610488565b6147dc575050565b6147fd6147e76103c4565b92839263e2517d3f60e01b84526004840161479c565b0390fd5b905f60209161480e611975565b50614817611975565b50614820611747565b50614829611747565b50828151910182855af13d915f51919283614845575b50505090565b9091925061485b6148555f612355565b916103e1565b145f146148895761486c915061103f565b3b61487f6148795f612355565b916103e1565b115b5f808061483f565b5061489d6148976001613c36565b916103e1565b14614881565b905f6020916148b0611747565b506148b9611747565b50828151910182855af115614953573d5f51906148de6148d85f612355565b916103e1565b145f1461493957506148ef8161103f565b3b6149026148fc5f612355565b916103e1565b145b61490b5750565b6149176149359161103f565b61491f6103c4565b918291635274afe760e01b835260048301610b33565b0390fd5b61494c6149466001613c36565b916103e1565b1415614904565b6040513d5f823e3d90fd5b9061496991016103e1565b90565b9190918061498a61498461497f5f611b74565b61061d565b9161061d565b145f14614a6b576149ae6149a7836149a26002611f82565b6117ef565b60026123a6565b5b826149ca6149c46149bf5f611b74565b61061d565b9161061d565b145f14614a3f576149ee6149e7836149e26002611f82565b613eaf565b60026123a6565b5b919091614a3a614a28614a227fddf252ad1be2c89b69c2b068fc378daa952ba7f163c4a11628f55a4df523b3ef93611dbe565b93611dbe565b93614a316103c4565b918291826103f1565b0390a3565b614a6682614a60614a515f879061285d565b91614a5b83611f82565b61495e565b906123a6565b6149ef565b614a7e614a795f839061285d565b611f82565b80614a91614a8b856103e1565b916103e1565b10614ab957614aa4614ab4918490613eaf565b614aaf5f849061285d565b6123a6565b6149af565b90614ade909192614ac86103c4565b93849363391434e360e21b855260048501613e7d565b0390fd5b614af3614aed612313565b15610488565b614af957565b614b016103c4565b638dfc202b60e01b815280614b186004820161073b565b0390fd5b614b2590610ebc565b90565b614b3190614b1c565b90565b614b3d90610ed8565b90565b614b65614b53614b4e612269565b614b28565b82614b5d30614b34565b90869261500f565b614b7082859061424b565b909192614ba6614ba07fdcbc1c05240f31ff3ad067ef1ee35ce4997762752e3a095284754544f4c709d793611dbe565b93611dbe565b93614bbb614bb26103c4565b92839283611d80565b0390a3565b80614bd3614bcd8561061d565b9161061d565b03614c59575b614be48386906145a5565b614bff614bf7614bf2612269565b614b28565b83869161505f565b90919293614c3f614c39614c337ffbde797d201c681b91056529119e0b02407c7bb96a4a2c75c01fc9667232c8db94611dbe565b94611dbe565b94611dbe565b94614c54614c4b6103c4565b92839283611d80565b0390a4565b614c6583828791613ebd565b614bd9565b614c76614c7c916103e1565b916103e1565b908115614c87570490565b61245b565b90565b614ca3614c9e614ca892614c8c565b610eb9565b6103e1565b90565b614cb56012614c8f565b90565b90565b614ccf614cca614cd492614cb8565b610eb9565b6103e1565b90565b614ce16011614cbb565b90565b90614cef91026103e1565b90565b90565b614d09614d04614d0e92614cf2565b610eb9565b6103e1565b90565b90929192614d1d611747565b50614d298282906150ad565b9190919282614d40614d3a5f612355565b916103e1565b14614eed5785614d58614d52856103e1565b916103e1565b1115614ebb57614eb29286614eb8969793614da993614d75611747565b5009908582119003940393600183614d965f614d918791612355565b613eaf565b1680809504960493805f03040190614ce4565b1791614eac614e90614e6c614e48614e24614e00614dd16003614dcc8991614cf5565b614ce4565b614ddb60026142b3565b18614dfa6002614df5614def8b8590614ce4565b916142b3565b613eaf565b90614ce4565b614e1e6002614e19614e138a8590614ce4565b916142b3565b613eaf565b90614ce4565b614e426002614e3d614e37898590614ce4565b916142b3565b613eaf565b90614ce4565b614e666002614e61614e5b888590614ce4565b916142b3565b613eaf565b90614ce4565b614e8a6002614e85614e7f878590614ce4565b916142b3565b613eaf565b90614ce4565b91614ea7614ea16002928590614ce4565b916142b3565b613eaf565b90614ce4565b90614ce4565b90565b614ee886614ed1614ecb5f612355565b916103e1565b14614eda614cab565b614ee2614cd7565b916150d2565b6150f6565b50505091614efb9192614c6a565b90565b634e487b7160e01b5f52602160045260245ffd5b60041115614f1c57565b614efe565b90614f2b82614f12565b565b614f3690614f21565b90565b614f4d614f48614f52926142b0565b610eb9565b610a95565b90565b614f61614f6791610a95565b91610a95565b908115614f72570690565b61245b565b614f8b614f86614f9092613c33565b610eb9565b610a95565b90565b614fa8614fb891614fa2611975565b50614f2d565b614fb26002614f39565b90614f55565b614fcb614fc56001614f77565b91610a95565b1490565b614fd7611747565b50151590565b60409061500661500d9496959396614ffc60608401985f850190610b26565b6020830190610b26565b01906103e4565b565b60049261504961505d959361505893946150306323b872dd92949192613d52565b936150396103c4565b9788956020870190815201614fdd565b6020820181038252038361176f565b6148a3565b565b906150a66150ab936150976004949361507e63a9059cbb919391613d52565b926150876103c4565b9687946020860190815201613d6e565b6020820181038252038361176f565b6148a3565b565b906150b6611747565b506150bf611747565b505f198183099102908180821091030391565b6150ec6150f292936150e2611747565b5080941891614fcf565b90614ce4565b1890565b634e487b715f526020526024601cfdfea264697066735822122005a614ff78e02a8af09f96e257e41021ede701678ee71d58d6c8554d543bd0e264736f6c63430008180033",
    "linkReferences": {}
  },
  "methodIdentifiers": {
    "AGENT_ROLE()": "22459e18",
    "A_TOKEN()": "9ef0159f",
    "DEFAULT_ADMIN_ROLE()": "a217fddf",
    "PAUSER_ROLE()": "e63ab1e9",
    "UNDERLYING()": "c5d664c6",
    "aTokenBalance()": "e9a37738",
    "aavePool()": "a03e4bc3",
    "addAgent(address)": "84e79842",
    "allowance(address,address)": "dd62ed3e",
    "approve(address,uint256)": "095ea7b3",
    "asset()": "38d52e0f",
    "balanceOf(address)": "70a08231",
    "checkpoint()": "c2c4c5c1",
    "convertToAssets(uint256)": "07a2d13a",
    "convertToShares(uint256)": "c6e6f592",
    "decimals()": "313ce567",
    "deposit(uint256,address)": "6e553f65",
    "depositEth(address)": "ad9d4ba3",
    "ethGateway()": "8c00ce73",
    "ethMode()": "c4587636",
    "feeBps()": "24a9d853",
    "getRoleAdmin(bytes32)": "248a9ca3",
    "grantRole(bytes32,address)": "2f2ff15d",
    "hasRole(bytes32,address)": "91d14854",
    "idleUnderlying()": "e70a2738",
    "lastCheckpointAssets()": "cbc88dac",
    "lastCheckpointTimestamp()": "ee94d67c",
    "maxDeposit(address)": "402d267d",
    "maxMint(address)": "c63d75b6",
    "maxRedeem(address)": "d905777e",
    "maxWithdraw(address)": "ce96cb77",
    "mint(uint256,address)": "94bf804d",
    "name()": "06fdde03",
    "pause()": "8456cb59",
    "paused()": "5c975abb",
    "previewDeposit(uint256)": "ef8b30f7",
    "previewMint(uint256)": "b3d7f6b9",
    "previewRedeem(uint256)": "4cdad506",
    "previewWithdraw(uint256)": "0a28a477",
    "redeem(uint256,address,address)": "ba087652",
    "removeAgent(address)": "97a6278e",
    "renounceRole(bytes32,address)": "36568abe",
    "revokeRole(bytes32,address)": "d547741f",
    "setEthGateway(address,bool)": "2107b6d6",
    "setParams(address,uint16)": "11264a97",
    "supplyToAave(uint256)": "70ded44d",
    "supportsInterface(bytes4)": "01ffc9a7",
    "symbol()": "95d89b41",
    "takeFees()": "5dd912f5",
    "totalAssets()": "01e1d114",
    "totalSupply()": "18160ddd",
    "transfer(address,uint256)": "a9059cbb",
    "transferFrom(address,address,uint256)": "23b872dd",
    "treasury()": "61d027b3",
    "unpause()": "3f4ba83a",
    "withdraw(uint256,address,address)": "b460af94",
    "withdrawEth(uint256,address,address)": "d053c83b",
    "withdrawFromAave(uint256)": "688f237b"
  },
  "id": 48
}