{
  "abi": [
    {
      "type": "constructor",
      "inputs": [
        {
          "name": "asset_",
          "type": "address",
          "internalType": "contract IERC20"
        },
        {
          "name": "aToken_",
          "type": "address",
          "internalType": "contract IERC20"
        },
        {
          "name": "treasury_",
          "type": "address",
          "internalType": "address"
        },
        {
          "name": "feeBps_",
          "type": "uint16",
          "internalType": "uint16"
        },
        {
          "name": "aavePool_",
          "type": "address",
          "internalType": "contract IAaveV3Pool"
        },
        {
          "name": "admin",
          "type": "address",
          "internalType": "address"
        }
      ],
      "stateMutability": "nonpayable"
    },
    {
      "type": "receive",
      "stateMutability": "payable"
    },
    {
      "type": "function",
      "name": "AGENT_ROLE",
      "inputs": [],
      "outputs": [
        {
          "name": "",
          "type": "bytes32",
          "internalType": "bytes32"
        }
      ],
      "stateMutability": "view"
    },
    {
      "type": "function",
      "name": "A_TOKEN",
      "inputs": [],
      "outputs": [
        {
          "name": "",
          "type": "address",
          "internalType": "contract IERC20"
        }
      ],
      "stateMutability": "view"
    },
    {
      "type": "function",
      "name": "DEFAULT_ADMIN_ROLE",
      "inputs": [],
      "outputs": [
        {
          "name": "",
          "type": "bytes32",
          "internalType": "bytes32"
        }
      ],
      "stateMutability": "view"
    },
    {
      "type": "function",
      "name": "PAUSER_ROLE",
      "inputs": [],
      "outputs": [
        {
          "name": "",
          "type": "bytes32",
          "internalType": "bytes32"
        }
      ],
      "stateMutability": "view"
    },
    {
      "type": "function",
      "name": "UNDERLYING",
      "inputs": [],
      "outputs": [
        {
          "name": "",
          "type": "address",
          "internalType": "contract IERC20"
        }
      ],
      "stateMutability": "view"
    },
    {
      "type": "function",
      "name": "aTokenBalance",
      "inputs": [],
      "outputs": [
        {
          "name": "",
          "type": "uint256",
          "internalType": "uint256"
        }
      ],
      "stateMutability": "view"
    },
    {
      "type": "function",
      "name": "aavePool",
      "inputs": [],
      "outputs": [
        {
          "name": "",
          "type": "address",
          "internalType": "contract IAaveV3Pool"
        }
      ],
      "stateMutability": "view"
    },
    {
      "type": "function",
      "name": "addAgent",
      "inputs": [
        {
          "name": "agent",
          "type": "address",
          "internalType": "address"
        }
      ],
      "outputs": [],
      "stateMutability": "nonpayable"
    },
    {
      "type": "function",
      "name": "allowance",
      "inputs": [
        {
          "name": "owner",
          "type": "address",
          "internalType": "address"
        },
        {
          "name": "spender",
          "type": "address",
          "internalType": "address"
        }
      ],
      "outputs": [
        {
          "name": "",
          "type": "uint256",
          "internalType": "uint256"
        }
      ],
      "stateMutability": "view"
    },
    {
      "type": "function",
      "name": "approve",
      "inputs": [
        {
          "name": "spender",
          "type": "address",
          "internalType": "address"
        },
        {
          "name": "value",
          "type": "uint256",
          "internalType": "uint256"
        }
      ],
      "outputs": [
        {
          "name": "",
          "type": "bool",
          "internalType": "bool"
        }
      ],
      "stateMutability": "nonpayable"
    },
    {
      "type": "function",
      "name": "asset",
      "inputs": [],
      "outputs": [
        {
          "name": "",
          "type": "address",
          "internalType": "address"
        }
      ],
      "stateMutability": "view"
    },
    {
      "type": "function",
      "name": "balanceOf",
      "inputs": [
        {
          "name": "account",
          "type": "address",
          "internalType": "address"
        }
      ],
      "outputs": [
        {
          "name": "",
          "type": "uint256",
          "internalType": "uint256"
        }
      ],
      "stateMutability": "view"
    },
    {
      "type": "function",
      "name": "convertToAssets",
      "inputs": [
        {
          "name": "shares",
          "type": "uint256",
          "internalType": "uint256"
        }
      ],
      "outputs": [
        {
          "name": "",
          "type": "uint256",
          "internalType": "uint256"
        }
      ],
      "stateMutability": "view"
    },
    {
      "type": "function",
      "name": "convertToShares",
      "inputs": [
        {
          "name": "assets",
          "type": "uint256",
          "internalType": "uint256"
        }
      ],
      "outputs": [
        {
          "name": "",
          "type": "uint256",
          "internalType": "uint256"
        }
      ],
      "stateMutability": "view"
    },
    {
      "type": "function",
      "name": "decimals",
      "inputs": [],
      "outputs": [
        {
          "name": "",
          "type": "uint8",
          "internalType": "uint8"
        }
      ],
      "stateMutability": "view"
    },
    {
      "type": "function",
      "name": "deposit",
      "inputs": [
        {
          "name": "assets",
          "type": "uint256",
          "internalType": "uint256"
        },
        {
          "name": "receiver",
          "type": "address",
          "internalType": "address"
        }
      ],
      "outputs": [
        {
          "name": "shares",
          "type": "uint256",
          "internalType": "uint256"
        }
      ],
      "stateMutability": "nonpayable"
    },
    {
      "type": "function",
      "name": "depositEth",
      "inputs": [
        {
          "name": "receiver",
          "type": "address",
          "internalType": "address"
        }
      ],
      "outputs": [
        {
          "name": "shares",
          "type": "uint256",
          "internalType": "uint256"
        }
      ],
      "stateMutability": "payable"
    },
    {
      "type": "function",
      "name": "ethGateway",
      "inputs": [],
      "outputs": [
        {
          "name": "",
          "type": "address",
          "internalType": "contract IWETHGateway"
        }
      ],
      "stateMutability": "view"
    },
    {
      "type": "function",
      "name": "ethMode",
      "inputs": [],
      "outputs": [
        {
          "name": "",
          "type": "bool",
          "internalType": "bool"
        }
      ],
      "stateMutability": "view"
    },
    {
      "type": "function",
      "name": "feeBps",
      "inputs": [],
      "outputs": [
        {
          "name": "",
          "type": "uint16",
          "internalType": "uint16"
        }
      ],
      "stateMutability": "view"
    },
    {
      "type": "function",
      "name": "getRoleAdmin",
      "inputs": [
        {
          "name": "role",
          "type": "bytes32",
          "internalType": "bytes32"
        }
      ],
      "outputs": [
        {
          "name": "",
          "type": "bytes32",
          "internalType": "bytes32"
        }
      ],
      "stateMutability": "view"
    },
    {
      "type": "function",
      "name": "grantRole",
      "inputs": [
        {
          "name": "role",
          "type": "bytes32",
          "internalType": "bytes32"
        },
        {
          "name": "account",
          "type": "address",
          "internalType": "address"
        }
      ],
      "outputs": [],
      "stateMutability": "nonpayable"
    },
    {
      "type": "function",
      "name": "hasRole",
      "inputs": [
        {
          "name": "role",
          "type": "bytes32",
          "internalType": "bytes32"
        },
        {
          "name": "account",
          "type": "address",
          "internalType": "address"
        }
      ],
      "outputs": [
        {
          "name": "",
          "type": "bool",
          "internalType": "bool"
        }
      ],
      "stateMutability": "view"
    },
    {
      "type": "function",
      "name": "idleUnderlying",
      "inputs": [],
      "outputs": [
        {
          "name": "",
          "type": "uint256",
          "internalType": "uint256"
        }
      ],
      "stateMutability": "view"
    },
    {
      "type": "function",
      "name": "lastCheckpointAssets",
      "inputs": [],
      "outputs": [
        {
          "name": "",
          "type": "uint256",
          "internalType": "uint256"
        }
      ],
      "stateMutability": "view"
    },
    {
      "type": "function",
      "name": "lastRebaseTimestamp",
      "inputs": [],
      "outputs": [
        {
          "name": "",
          "type": "uint256",
          "internalType": "uint256"
        }
      ],
      "stateMutability": "view"
    },
    {
      "type": "function",
      "name": "maxDeposit",
      "inputs": [
        {
          "name": "",
          "type": "address",
          "internalType": "address"
        }
      ],
      "outputs": [
        {
          "name": "",
          "type": "uint256",
          "internalType": "uint256"
        }
      ],
      "stateMutability": "view"
    },
    {
      "type": "function",
      "name": "maxMint",
      "inputs": [
        {
          "name": "",
          "type": "address",
          "internalType": "address"
        }
      ],
      "outputs": [
        {
          "name": "",
          "type": "uint256",
          "internalType": "uint256"
        }
      ],
      "stateMutability": "view"
    },
    {
      "type": "function",
      "name": "maxRedeem",
      "inputs": [
        {
          "name": "owner",
          "type": "address",
          "internalType": "address"
        }
      ],
      "outputs": [
        {
          "name": "",
          "type": "uint256",
          "internalType": "uint256"
        }
      ],
      "stateMutability": "view"
    },
    {
      "type": "function",
      "name": "maxWithdraw",
      "inputs": [
        {
          "name": "owner",
          "type": "address",
          "internalType": "address"
        }
      ],
      "outputs": [
        {
          "name": "",
          "type": "uint256",
          "internalType": "uint256"
        }
      ],
      "stateMutability": "view"
    },
    {
      "type": "function",
      "name": "mint",
      "inputs": [
        {
          "name": "shares",
          "type": "uint256",
          "internalType": "uint256"
        },
        {
          "name": "receiver",
          "type": "address",
          "internalType": "address"
        }
      ],
      "outputs": [
        {
          "name": "assets",
          "type": "uint256",
          "internalType": "uint256"
        }
      ],
      "stateMutability": "nonpayable"
    },
    {
      "type": "function",
      "name": "name",
      "inputs": [],
      "outputs": [
        {
          "name": "",
          "type": "string",
          "internalType": "string"
        }
      ],
      "stateMutability": "view"
    },
    {
      "type": "function",
      "name": "pause",
      "inputs": [],
      "outputs": [],
      "stateMutability": "nonpayable"
    },
    {
      "type": "function",
      "name": "paused",
      "inputs": [],
      "outputs": [
        {
          "name": "",
          "type": "bool",
          "internalType": "bool"
        }
      ],
      "stateMutability": "view"
    },
    {
      "type": "function",
      "name": "previewDeposit",
      "inputs": [
        {
          "name": "assets",
          "type": "uint256",
          "internalType": "uint256"
        }
      ],
      "outputs": [
        {
          "name": "",
          "type": "uint256",
          "internalType": "uint256"
        }
      ],
      "stateMutability": "view"
    },
    {
      "type": "function",
      "name": "previewMint",
      "inputs": [
        {
          "name": "shares",
          "type": "uint256",
          "internalType": "uint256"
        }
      ],
      "outputs": [
        {
          "name": "",
          "type": "uint256",
          "internalType": "uint256"
        }
      ],
      "stateMutability": "view"
    },
    {
      "type": "function",
      "name": "previewRedeem",
      "inputs": [
        {
          "name": "shares",
          "type": "uint256",
          "internalType": "uint256"
        }
      ],
      "outputs": [
        {
          "name": "",
          "type": "uint256",
          "internalType": "uint256"
        }
      ],
      "stateMutability": "view"
    },
    {
      "type": "function",
      "name": "previewWithdraw",
      "inputs": [
        {
          "name": "assets",
          "type": "uint256",
          "internalType": "uint256"
        }
      ],
      "outputs": [
        {
          "name": "",
          "type": "uint256",
          "internalType": "uint256"
        }
      ],
      "stateMutability": "view"
    },
    {
      "type": "function",
      "name": "rebaseAndTakeFees",
      "inputs": [],
      "outputs": [],
      "stateMutability": "nonpayable"
    },
    {
      "type": "function",
      "name": "redeem",
      "inputs": [
        {
          "name": "shares",
          "type": "uint256",
          "internalType": "uint256"
        },
        {
          "name": "receiver",
          "type": "address",
          "internalType": "address"
        },
        {
          "name": "owner",
          "type": "address",
          "internalType": "address"
        }
      ],
      "outputs": [
        {
          "name": "assets",
          "type": "uint256",
          "internalType": "uint256"
        }
      ],
      "stateMutability": "nonpayable"
    },
    {
      "type": "function",
      "name": "removeAgent",
      "inputs": [
        {
          "name": "agent",
          "type": "address",
          "internalType": "address"
        }
      ],
      "outputs": [],
      "stateMutability": "nonpayable"
    },
    {
      "type": "function",
      "name": "renounceRole",
      "inputs": [
        {
          "name": "role",
          "type": "bytes32",
          "internalType": "bytes32"
        },
        {
          "name": "callerConfirmation",
          "type": "address",
          "internalType": "address"
        }
      ],
      "outputs": [],
      "stateMutability": "nonpayable"
    },
    {
      "type": "function",
      "name": "revokeRole",
      "inputs": [
        {
          "name": "role",
          "type": "bytes32",
          "internalType": "bytes32"
        },
        {
          "name": "account",
          "type": "address",
          "internalType": "address"
        }
      ],
      "outputs": [],
      "stateMutability": "nonpayable"
    },
    {
      "type": "function",
      "name": "setEthGateway",
      "inputs": [
        {
          "name": "gateway",
          "type": "address",
          "internalType": "address"
        },
        {
          "name": "enabled",
          "type": "bool",
          "internalType": "bool"
        }
      ],
      "outputs": [],
      "stateMutability": "nonpayable"
    },
    {
      "type": "function",
      "name": "setParams",
      "inputs": [
        {
          "name": "treasury_",
          "type": "address",
          "internalType": "address"
        },
        {
          "name": "feeBps_",
          "type": "uint16",
          "internalType": "uint16"
        }
      ],
      "outputs": [],
      "stateMutability": "nonpayable"
    },
    {
      "type": "function",
      "name": "supplyToAave",
      "inputs": [
        {
          "name": "amount",
          "type": "uint256",
          "internalType": "uint256"
        }
      ],
      "outputs": [],
      "stateMutability": "nonpayable"
    },
    {
      "type": "function",
      "name": "supportsInterface",
      "inputs": [
        {
          "name": "interfaceId",
          "type": "bytes4",
          "internalType": "bytes4"
        }
      ],
      "outputs": [
        {
          "name": "",
          "type": "bool",
          "internalType": "bool"
        }
      ],
      "stateMutability": "view"
    },
    {
      "type": "function",
      "name": "symbol",
      "inputs": [],
      "outputs": [
        {
          "name": "",
          "type": "string",
          "internalType": "string"
        }
      ],
      "stateMutability": "view"
    },
    {
      "type": "function",
      "name": "totalAssets",
      "inputs": [],
      "outputs": [
        {
          "name": "",
          "type": "uint256",
          "internalType": "uint256"
        }
      ],
      "stateMutability": "view"
    },
    {
      "type": "function",
      "name": "totalSupply",
      "inputs": [],
      "outputs": [
        {
          "name": "",
          "type": "uint256",
          "internalType": "uint256"
        }
      ],
      "stateMutability": "view"
    },
    {
      "type": "function",
      "name": "transfer",
      "inputs": [
        {
          "name": "to",
          "type": "address",
          "internalType": "address"
        },
        {
          "name": "value",
          "type": "uint256",
          "internalType": "uint256"
        }
      ],
      "outputs": [
        {
          "name": "",
          "type": "bool",
          "internalType": "bool"
        }
      ],
      "stateMutability": "nonpayable"
    },
    {
      "type": "function",
      "name": "transferFrom",
      "inputs": [
        {
          "name": "from",
          "type": "address",
          "internalType": "address"
        },
        {
          "name": "to",
          "type": "address",
          "internalType": "address"
        },
        {
          "name": "value",
          "type": "uint256",
          "internalType": "uint256"
        }
      ],
      "outputs": [
        {
          "name": "",
          "type": "bool",
          "internalType": "bool"
        }
      ],
      "stateMutability": "nonpayable"
    },
    {
      "type": "function",
      "name": "treasury",
      "inputs": [],
      "outputs": [
        {
          "name": "",
          "type": "address",
          "internalType": "address"
        }
      ],
      "stateMutability": "view"
    },
    {
      "type": "function",
      "name": "unpause",
      "inputs": [],
      "outputs": [],
      "stateMutability": "nonpayable"
    },
    {
      "type": "function",
      "name": "withdraw",
      "inputs": [
        {
          "name": "assets",
          "type": "uint256",
          "internalType": "uint256"
        },
        {
          "name": "receiver",
          "type": "address",
          "internalType": "address"
        },
        {
          "name": "owner",
          "type": "address",
          "internalType": "address"
        }
      ],
      "outputs": [
        {
          "name": "shares",
          "type": "uint256",
          "internalType": "uint256"
        }
      ],
      "stateMutability": "nonpayable"
    },
    {
      "type": "function",
      "name": "withdrawEth",
      "inputs": [
        {
          "name": "assets",
          "type": "uint256",
          "internalType": "uint256"
        },
        {
          "name": "receiver",
          "type": "address",
          "internalType": "address"
        },
        {
          "name": "owner",
          "type": "address",
          "internalType": "address"
        }
      ],
      "outputs": [
        {
          "name": "shares",
          "type": "uint256",
          "internalType": "uint256"
        }
      ],
      "stateMutability": "nonpayable"
    },
    {
      "type": "function",
      "name": "withdrawFromAave",
      "inputs": [
        {
          "name": "amount",
          "type": "uint256",
          "internalType": "uint256"
        }
      ],
      "outputs": [],
      "stateMutability": "nonpayable"
    },
    {
      "type": "event",
      "name": "Approval",
      "inputs": [
        {
          "name": "owner",
          "type": "address",
          "indexed": true,
          "internalType": "address"
        },
        {
          "name": "spender",
          "type": "address",
          "indexed": true,
          "internalType": "address"
        },
        {
          "name": "value",
          "type": "uint256",
          "indexed": false,
          "internalType": "uint256"
        }
      ],
      "anonymous": false
    },
    {
      "type": "event",
      "name": "Deposit",
      "inputs": [
        {
          "name": "sender",
          "type": "address",
          "indexed": true,
          "internalType": "address"
        },
        {
          "name": "owner",
          "type": "address",
          "indexed": true,
          "internalType": "address"
        },
        {
          "name": "assets",
          "type": "uint256",
          "indexed": false,
          "internalType": "uint256"
        },
        {
          "name": "shares",
          "type": "uint256",
          "indexed": false,
          "internalType": "uint256"
        }
      ],
      "anonymous": false
    },
    {
      "type": "event",
      "name": "ParamsUpdated",
      "inputs": [
        {
          "name": "param",
          "type": "bytes32",
          "indexed": true,
          "internalType": "bytes32"
        },
        {
          "name": "oldValue",
          "type": "uint256",
          "indexed": false,
          "internalType": "uint256"
        },
        {
          "name": "newValue",
          "type": "uint256",
          "indexed": false,
          "internalType": "uint256"
        }
      ],
      "anonymous": false
    },
    {
      "type": "event",
      "name": "Paused",
      "inputs": [
        {
          "name": "account",
          "type": "address",
          "indexed": false,
          "internalType": "address"
        }
      ],
      "anonymous": false
    },
    {
      "type": "event",
      "name": "PerformanceFeeTaken",
      "inputs": [
        {
          "name": "treasury",
          "type": "address",
          "indexed": true,
          "internalType": "address"
        },
        {
          "name": "feeAssets",
          "type": "uint256",
          "indexed": false,
          "internalType": "uint256"
        },
        {
          "name": "feeShares",
          "type": "uint256",
          "indexed": false,
          "internalType": "uint256"
        }
      ],
      "anonymous": false
    },
    {
      "type": "event",
      "name": "RoleAdminChanged",
      "inputs": [
        {
          "name": "role",
          "type": "bytes32",
          "indexed": true,
          "internalType": "bytes32"
        },
        {
          "name": "previousAdminRole",
          "type": "bytes32",
          "indexed": true,
          "internalType": "bytes32"
        },
        {
          "name": "newAdminRole",
          "type": "bytes32",
          "indexed": true,
          "internalType": "bytes32"
        }
      ],
      "anonymous": false
    },
    {
      "type": "event",
      "name": "RoleGranted",
      "inputs": [
        {
          "name": "role",
          "type": "bytes32",
          "indexed": true,
          "internalType": "bytes32"
        },
        {
          "name": "account",
          "type": "address",
          "indexed": true,
          "internalType": "address"
        },
        {
          "name": "sender",
          "type": "address",
          "indexed": true,
          "internalType": "address"
        }
      ],
      "anonymous": false
    },
    {
      "type": "event",
      "name": "RoleRevoked",
      "inputs": [
        {
          "name": "role",
          "type": "bytes32",
          "indexed": true,
          "internalType": "bytes32"
        },
        {
          "name": "account",
          "type": "address",
          "indexed": true,
          "internalType": "address"
        },
        {
          "name": "sender",
          "type": "address",
          "indexed": true,
          "internalType": "address"
        }
      ],
      "anonymous": false
    },
    {
      "type": "event",
      "name": "SuppliedToAave",
      "inputs": [
        {
          "name": "asset",
          "type": "address",
          "indexed": true,
          "internalType": "address"
        },
        {
          "name": "amount",
          "type": "uint256",
          "indexed": false,
          "internalType": "uint256"
        },
        {
          "name": "agent",
          "type": "address",
          "indexed": true,
          "internalType": "address"
        }
      ],
      "anonymous": false
    },
    {
      "type": "event",
      "name": "Transfer",
      "inputs": [
        {
          "name": "from",
          "type": "address",
          "indexed": true,
          "internalType": "address"
        },
        {
          "name": "to",
          "type": "address",
          "indexed": true,
          "internalType": "address"
        },
        {
          "name": "value",
          "type": "uint256",
          "indexed": false,
          "internalType": "uint256"
        }
      ],
      "anonymous": false
    },
    {
      "type": "event",
      "name": "Unpaused",
      "inputs": [
        {
          "name": "account",
          "type": "address",
          "indexed": false,
          "internalType": "address"
        }
      ],
      "anonymous": false
    },
    {
      "type": "event",
      "name": "Withdraw",
      "inputs": [
        {
          "name": "sender",
          "type": "address",
          "indexed": true,
          "internalType": "address"
        },
        {
          "name": "receiver",
          "type": "address",
          "indexed": true,
          "internalType": "address"
        },
        {
          "name": "owner",
          "type": "address",
          "indexed": true,
          "internalType": "address"
        },
        {
          "name": "assets",
          "type": "uint256",
          "indexed": false,
          "internalType": "uint256"
        },
        {
          "name": "shares",
          "type": "uint256",
          "indexed": false,
          "internalType": "uint256"
        }
      ],
      "anonymous": false
    },
    {
      "type": "event",
      "name": "WithdrawnFromAave",
      "inputs": [
        {
          "name": "asset",
          "type": "address",
          "indexed": true,
          "internalType": "address"
        },
        {
          "name": "amount",
          "type": "uint256",
          "indexed": false,
          "internalType": "uint256"
        },
        {
          "name": "agent",
          "type": "address",
          "indexed": true,
          "internalType": "address"
        }
      ],
      "anonymous": false
    },
    {
      "type": "error",
      "name": "AccessControlBadConfirmation",
      "inputs": []
    },
    {
      "type": "error",
      "name": "AccessControlUnauthorizedAccount",
      "inputs": [
        {
          "name": "account",
          "type": "address",
          "internalType": "address"
        },
        {
          "name": "neededRole",
          "type": "bytes32",
          "internalType": "bytes32"
        }
      ]
    },
    {
      "type": "error",
      "name": "ERC20InsufficientAllowance",
      "inputs": [
        {
          "name": "spender",
          "type": "address",
          "internalType": "address"
        },
        {
          "name": "allowance",
          "type": "uint256",
          "internalType": "uint256"
        },
        {
          "name": "needed",
          "type": "uint256",
          "internalType": "uint256"
        }
      ]
    },
    {
      "type": "error",
      "name": "ERC20InsufficientBalance",
      "inputs": [
        {
          "name": "sender",
          "type": "address",
          "internalType": "address"
        },
        {
          "name": "balance",
          "type": "uint256",
          "internalType": "uint256"
        },
        {
          "name": "needed",
          "type": "uint256",
          "internalType": "uint256"
        }
      ]
    },
    {
      "type": "error",
      "name": "ERC20InvalidApprover",
      "inputs": [
        {
          "name": "approver",
          "type": "address",
          "internalType": "address"
        }
      ]
    },
    {
      "type": "error",
      "name": "ERC20InvalidReceiver",
      "inputs": [
        {
          "name": "receiver",
          "type": "address",
          "internalType": "address"
        }
      ]
    },
    {
      "type": "error",
      "name": "ERC20InvalidSender",
      "inputs": [
        {
          "name": "sender",
          "type": "address",
          "internalType": "address"
        }
      ]
    },
    {
      "type": "error",
      "name": "ERC20InvalidSpender",
      "inputs": [
        {
          "name": "spender",
          "type": "address",
          "internalType": "address"
        }
      ]
    },
    {
      "type": "error",
      "name": "ERC4626ExceededMaxDeposit",
      "inputs": [
        {
          "name": "receiver",
          "type": "address",
          "internalType": "address"
        },
        {
          "name": "assets",
          "type": "uint256",
          "internalType": "uint256"
        },
        {
          "name": "max",
          "type": "uint256",
          "internalType": "uint256"
        }
      ]
    },
    {
      "type": "error",
      "name": "ERC4626ExceededMaxMint",
      "inputs": [
        {
          "name": "receiver",
          "type": "address",
          "internalType": "address"
        },
        {
          "name": "shares",
          "type": "uint256",
          "internalType": "uint256"
        },
        {
          "name": "max",
          "type": "uint256",
          "internalType": "uint256"
        }
      ]
    },
    {
      "type": "error",
      "name": "ERC4626ExceededMaxRedeem",
      "inputs": [
        {
          "name": "owner",
          "type": "address",
          "internalType": "address"
        },
        {
          "name": "shares",
          "type": "uint256",
          "internalType": "uint256"
        },
        {
          "name": "max",
          "type": "uint256",
          "internalType": "uint256"
        }
      ]
    },
    {
      "type": "error",
      "name": "ERC4626ExceededMaxWithdraw",
      "inputs": [
        {
          "name": "owner",
          "type": "address",
          "internalType": "address"
        },
        {
          "name": "assets",
          "type": "uint256",
          "internalType": "uint256"
        },
        {
          "name": "max",
          "type": "uint256",
          "internalType": "uint256"
        }
      ]
    },
    {
      "type": "error",
      "name": "EnforcedPause",
      "inputs": []
    },
    {
      "type": "error",
      "name": "ExpectedPause",
      "inputs": []
    },
    {
      "type": "error",
      "name": "ReentrancyGuardReentrantCall",
      "inputs": []
    },
    {
      "type": "error",
      "name": "SafeERC20FailedOperation",
      "inputs": [
        {
          "name": "token",
          "type": "address",
          "internalType": "address"
        }
      ]
    }
  ],
  "bytecode": {
    "object": "0x61010060405234801562000011575f80fd5b506040516200637838038062006378833981810160405281019062000037919062000aca565b858673ffffffffffffffffffffffffffffffffffffffff166395d89b416040518163ffffffff1660e01b81526004015f60405180830381865afa15801562000081573d5f803e3d5ffd5b505050506040513d5f823e3d601f19601f82011682018060405250810190620000ab919062000cd6565b604051602001620000bd919062000dbb565b6040516020818303038152906040528773ffffffffffffffffffffffffffffffffffffffff166395d89b416040518163ffffffff1660e01b81526004015f60405180830381865afa15801562000115573d5f803e3d5ffd5b505050506040513d5f823e3d601f19601f820116820180604052508101906200013f919062000cd6565b60405160200162000151919062000e1b565b604051602081830303815290604052816003908162000171919062001071565b50806004908162000183919062001071565b5050505f806200019983620004f760201b60201c565b9150915081620001ab576012620001ad565b805b60ff1660a08160ff16815250508273ffffffffffffffffffffffffffffffffffffffff1660808173ffffffffffffffffffffffffffffffffffffffff168152505050505060016007819055505f73ffffffffffffffffffffffffffffffffffffffff168473ffffffffffffffffffffffffffffffffffffffff16036200026a576040517f08c379a00000000000000000000000000000000000000000000000000000000081526004016200026190620011b3565b60405180910390fd5b5f73ffffffffffffffffffffffffffffffffffffffff168273ffffffffffffffffffffffffffffffffffffffff1603620002db576040517f08c379a0000000000000000000000000000000000000000000000000000000008152600401620002d29062001221565b60405180910390fd5b6105dc8361ffff16111562000327576040517f08c379a00000000000000000000000000000000000000000000000000000000081526004016200031e906200128f565b60405180910390fd5b8573ffffffffffffffffffffffffffffffffffffffff1660c08173ffffffffffffffffffffffffffffffffffffffff16815250508473ffffffffffffffffffffffffffffffffffffffff1660e08173ffffffffffffffffffffffffffffffffffffffff16815250508360085f6101000a81548173ffffffffffffffffffffffffffffffffffffffff021916908373ffffffffffffffffffffffffffffffffffffffff16021790555082600860146101000a81548161ffff021916908361ffff1602179055508160095f6101000a81548173ffffffffffffffffffffffffffffffffffffffff021916908373ffffffffffffffffffffffffffffffffffffffff160217905550620004405f801b826200060a60201b60201c565b50620004737f65d7a28e3265b37a6474929f336521b332c1681b933f6cb9f3376673440d862a826200060a60201b60201c565b5042600c81905550620004eb60095f9054906101000a900473ffffffffffffffffffffffffffffffffffffffff167fffffffffffffffffffffffffffffffffffffffffffffffffffffffffffffffff60c05173ffffffffffffffffffffffffffffffffffffffff166200070660201b9092919060201c565b50505050505062001444565b5f805f808473ffffffffffffffffffffffffffffffffffffffff1660405160240160405160208183030381529060405263313ce56760e01b6020820180517bffffffffffffffffffffffffffffffffffffffffffffffffffffffff83818316178352505050506040516200056c9190620012f9565b5f60405180830381855afa9150503d805f8114620005a6576040519150601f19603f3d011682016040523d82523d5f602084013e620005ab565b606091505b5091509150818015620005c057506020815110155b15620005fc575f81806020019051810190620005dd919062001340565b905060ff80168111620005fa576001819450945050505062000605565b505b5f809350935050505b915091565b5f6200061d83836200083060201b60201c565b620006fc57600160055f8581526020019081526020015f205f015f8473ffffffffffffffffffffffffffffffffffffffff1673ffffffffffffffffffffffffffffffffffffffff1681526020019081526020015f205f6101000a81548160ff021916908315150217905550620006986200089460201b60201c565b73ffffffffffffffffffffffffffffffffffffffff168273ffffffffffffffffffffffffffffffffffffffff16847f2f8788117e7eff1d82e926ec794901d17c78024a50270940304540a733656f0d60405160405180910390a46001905062000700565b5f90505b92915050565b5f8373ffffffffffffffffffffffffffffffffffffffff1663095ea7b384846040516024016200073892919062001392565b604051602081830303815290604052915060e01b6020820180517bffffffffffffffffffffffffffffffffffffffffffffffffffffffff838183161783525050505090506200078e84826200089b60201b60201c565b6200082a5762000817848573ffffffffffffffffffffffffffffffffffffffff1663095ea7b3865f604051602401620007c9929190620013fe565b604051602081830303815290604052915060e01b6020820180517bffffffffffffffffffffffffffffffffffffffffffffffffffffffff8381831617835250505050620008f760201b60201c565b620008298482620008f760201b60201c565b5b50505050565b5f60055f8481526020019081526020015f205f015f8373ffffffffffffffffffffffffffffffffffffffff1673ffffffffffffffffffffffffffffffffffffffff1681526020019081526020015f205f9054906101000a900460ff16905092915050565b5f33905090565b5f805f8060205f8651602088015f8a5af192503d91505f519050828015620008ec57505f8214620008d05760018114620008eb565b5f8673ffffffffffffffffffffffffffffffffffffffff163b115b5b935050505092915050565b5f8060205f8451602086015f885af18062000917576040513d5f823e3d81fd5b3d92505f519150505f8214620009325760018114156200094d565b5f8473ffffffffffffffffffffffffffffffffffffffff163b145b156200099257836040517f5274afe700000000000000000000000000000000000000000000000000000000815260040162000989919062001429565b60405180910390fd5b50505050565b5f604051905090565b5f80fd5b5f80fd5b5f73ffffffffffffffffffffffffffffffffffffffff82169050919050565b5f620009d482620009a9565b9050919050565b5f620009e782620009c8565b9050919050565b620009f981620009db565b811462000a04575f80fd5b50565b5f8151905062000a1781620009ee565b92915050565b62000a2881620009c8565b811462000a33575f80fd5b50565b5f8151905062000a468162000a1d565b92915050565b5f61ffff82169050919050565b62000a648162000a4c565b811462000a6f575f80fd5b50565b5f8151905062000a828162000a59565b92915050565b5f62000a9482620009c8565b9050919050565b62000aa68162000a88565b811462000ab1575f80fd5b50565b5f8151905062000ac48162000a9b565b92915050565b5f805f805f8060c0878903121562000ae75762000ae6620009a1565b5b5f62000af689828a0162000a07565b965050602062000b0989828a0162000a07565b955050604062000b1c89828a0162000a36565b945050606062000b2f89828a0162000a72565b935050608062000b4289828a0162000ab4565b92505060a062000b5589828a0162000a36565b9150509295509295509295565b5f80fd5b5f80fd5b5f601f19601f8301169050919050565b7f4e487b71000000000000000000000000000000000000000000000000000000005f52604160045260245ffd5b62000bb28262000b6a565b810181811067ffffffffffffffff8211171562000bd45762000bd362000b7a565b5b80604052505050565b5f62000be862000998565b905062000bf6828262000ba7565b919050565b5f67ffffffffffffffff82111562000c185762000c1762000b7a565b5b62000c238262000b6a565b9050602081019050919050565b5f5b8381101562000c4f57808201518184015260208101905062000c32565b5f8484015250505050565b5f62000c7062000c6a8462000bfb565b62000bdd565b90508281526020810184848401111562000c8f5762000c8e62000b66565b5b62000c9c84828562000c30565b509392505050565b5f82601f83011262000cbb5762000cba62000b62565b5b815162000ccd84826020860162000c5a565b91505092915050565b5f6020828403121562000cee5762000ced620009a1565b5b5f82015167ffffffffffffffff81111562000d0e5762000d0d620009a5565b5b62000d1c8482850162000ca4565b91505092915050565b7f416a657920000000000000000000000000000000000000000000000000000000815250565b5f81519050919050565b5f81905092915050565b5f62000d6b8262000d4b565b62000d77818562000d55565b935062000d8981856020860162000c30565b80840191505092915050565b7f205661756c742053686172650000000000000000000000000000000000000000815250565b5f62000dc78262000d25565b60058201915062000dd9828462000d5f565b915062000de68262000d95565b600c8201915081905092915050565b7f614a2d0000000000000000000000000000000000000000000000000000000000815250565b5f62000e278262000df5565b60038201915062000e39828462000d5f565b915081905092915050565b7f4e487b71000000000000000000000000000000000000000000000000000000005f52602260045260245ffd5b5f600282049050600182168062000e8957607f821691505b60208210810362000e9f5762000e9e62000e44565b5b50919050565b5f819050815f5260205f209050919050565b5f6020601f8301049050919050565b5f82821b905092915050565b5f6008830262000f037fffffffffffffffffffffffffffffffffffffffffffffffffffffffffffffffff8262000ec6565b62000f0f868362000ec6565b95508019841693508086168417925050509392505050565b5f819050919050565b5f819050919050565b5f62000f5962000f5362000f4d8462000f27565b62000f30565b62000f27565b9050919050565b5f819050919050565b62000f748362000f39565b62000f8c62000f838262000f60565b84845462000ed2565b825550505050565b5f90565b62000fa262000f94565b62000faf81848462000f69565b505050565b5b8181101562000fd65762000fca5f8262000f98565b60018101905062000fb5565b5050565b601f821115620010255762000fef8162000ea5565b62000ffa8462000eb7565b810160208510156200100a578190505b62001022620010198562000eb7565b83018262000fb4565b50505b505050565b5f82821c905092915050565b5f620010475f19846008026200102a565b1980831691505092915050565b5f62001061838362001036565b9150826002028217905092915050565b6200107c8262000d4b565b67ffffffffffffffff81111562001098576200109762000b7a565b5b620010a4825462000e71565b620010b182828562000fda565b5f60209050601f831160018114620010e7575f8415620010d2578287015190505b620010de858262001054565b8655506200114d565b601f198416620010f78662000ea5565b5f5b828110156200112057848901518255600182019150602085019450602081019050620010f9565b868310156200114057848901516200113c601f89168262001036565b8355505b6001600288020188555050505b505050505050565b5f82825260208201905092915050565b7f74726561737572793d30000000000000000000000000000000000000000000005f82015250565b5f6200119b600a8362001155565b9150620011a88262001165565b602082019050919050565b5f6020820190508181035f830152620011cc816200118d565b9050919050565b7f706f6f6c3d3000000000000000000000000000000000000000000000000000005f82015250565b5f6200120960068362001155565b91506200121682620011d3565b602082019050919050565b5f6020820190508181035f8301526200123a81620011fb565b9050919050565b7f66656520746f6f206869676800000000000000000000000000000000000000005f82015250565b5f62001277600c8362001155565b9150620012848262001241565b602082019050919050565b5f6020820190508181035f830152620012a88162001269565b9050919050565b5f81519050919050565b5f81905092915050565b5f620012cf82620012af565b620012db8185620012b9565b9350620012ed81856020860162000c30565b80840191505092915050565b5f620013068284620012c3565b915081905092915050565b6200131c8162000f27565b811462001327575f80fd5b50565b5f815190506200133a8162001311565b92915050565b5f60208284031215620013585762001357620009a1565b5b5f62001367848285016200132a565b91505092915050565b6200137b81620009c8565b82525050565b6200138c8162000f27565b82525050565b5f604082019050620013a75f83018562001370565b620013b6602083018462001381565b9392505050565b5f819050919050565b5f620013e6620013e0620013da84620013bd565b62000f30565b62000f27565b9050919050565b620013f881620013c6565b82525050565b5f604082019050620014135f83018562001370565b620014226020830184620013ed565b9392505050565b5f6020820190506200143e5f83018462001370565b92915050565b60805160a05160c05160e051614e7b620014fd5f395f8181610ed3015281816113d801528181611d420152612a1201525f8181610e38015281816116c601528181611760015281816118bb0152818161194201528181611e7b01528181611ef20152818161201301528181612101015281816121c5015281816122b301528181612367015281816124dd015281816125cb01528181612666015281816126dd015261297401525f6114d201525f61157e0152614e7b5ff3fe608060405260043610610379575f3560e01c80638a53fd63116101d0578063ba08765211610101578063d053c83b1161009f578063e63ab1e91161006e578063e63ab1e914610d7a578063e70a273814610da4578063e9a3773814610dce578063ef8b30f714610df857610380565b8063d053c83b14610c9e578063d547741f14610cda578063d905777e14610d02578063dd62ed3e14610d3e57610380565b8063c63d75b6116100db578063c63d75b614610bc0578063c6e6f59214610bfc578063cbc88dac14610c38578063ce96cb7714610c6257610380565b8063ba08765214610b30578063c458763614610b6c578063c5d664c614610b9657610380565b8063a03e4bc31161016e578063ad9d4ba311610148578063ad9d4ba314610a5e578063b3d7f6b914610a8e578063b460af9414610aca578063b86a2fd714610b0657610380565b8063a03e4bc3146109ce578063a217fddf146109f8578063a9059cbb14610a2257610380565b806394bf804d116101aa57806394bf804d1461091657806395d89b411461095257806397a6278e1461097c5780639ef0159f146109a457610380565b80638a53fd631461089a5780638c00ce73146108b057806391d14854146108da57610380565b8063313ce567116102aa57806361d027b31161024857806370a082311161022257806370a08231146107f857806370ded44d146108345780638456cb591461085c57806384e798421461087257610380565b806361d027b31461076a578063688f237b146107945780636e553f65146107bc57610380565b80633f4ba83a116102845780633f4ba83a146106b2578063402d267d146106c85780634cdad506146107045780635c975abb1461074057610380565b8063313ce5671461063657806336568abe1461066057806338d52e0f1461068857610380565b806318160ddd1161031757806323b872dd116102f157806323b872dd1461056c578063248a9ca3146105a857806324a9d853146105e45780632f2ff15d1461060e57610380565b806318160ddd146104f05780632107b6d61461051a57806322459e181461054257610380565b806307a2d13a1161035357806307a2d13a14610414578063095ea7b3146104505780630a28a4771461048c57806311264a97146104c857610380565b806301e1d1141461038457806301ffc9a7146103ae57806306fdde03146103ea57610380565b3661038057005b5f80fd5b34801561038f575f80fd5b50610398610e34565b6040516103a59190613e5e565b60405180910390f35b3480156103b9575f80fd5b506103d460048036038101906103cf9190613ed0565b610f7e565b6040516103e19190613f15565b60405180910390f35b3480156103f5575f80fd5b506103fe610ff7565b60405161040b9190613fb8565b60405180910390f35b34801561041f575f80fd5b5061043a60048036038101906104359190614002565b611087565b6040516104479190613e5e565b60405180910390f35b34801561045b575f80fd5b5061047660048036038101906104719190614087565b611099565b6040516104839190613f15565b60405180910390f35b348015610497575f80fd5b506104b260048036038101906104ad9190614002565b6110bb565b6040516104bf9190613e5e565b60405180910390f35b3480156104d3575f80fd5b506104ee60048036038101906104e991906140fc565b6110ce565b005b3480156104fb575f80fd5b50610504611304565b6040516105119190613e5e565b60405180910390f35b348015610525575f80fd5b50610540600480360381019061053b9190614164565b61130d565b005b34801561054d575f80fd5b50610556611422565b60405161056391906141ba565b60405180910390f35b348015610577575f80fd5b50610592600480360381019061058d91906141d3565b611446565b60405161059f9190613f15565b60405180910390f35b3480156105b3575f80fd5b506105ce60048036038101906105c9919061424d565b611474565b6040516105db91906141ba565b60405180910390f35b3480156105ef575f80fd5b506105f8611491565b6040516106059190614287565b60405180910390f35b348015610619575f80fd5b50610634600480360381019061062f91906142a0565b6114a5565b005b348015610641575f80fd5b5061064a6114c7565b60405161065791906142f9565b60405180910390f35b34801561066b575f80fd5b50610686600480360381019061068191906142a0565b611500565b005b348015610693575f80fd5b5061069c61157b565b6040516106a99190614321565b60405180910390f35b3480156106bd575f80fd5b506106c66115a2565b005b3480156106d3575f80fd5b506106ee60048036038101906106e9919061433a565b6115d7565b6040516106fb9190613e5e565b60405180910390f35b34801561070f575f80fd5b5061072a60048036038101906107259190614002565b611600565b6040516107379190613e5e565b60405180910390f35b34801561074b575f80fd5b50610754611612565b6040516107619190613f15565b60405180910390f35b348015610775575f80fd5b5061077e611627565b60405161078b9190614321565b60405180910390f35b34801561079f575f80fd5b506107ba60048036038101906107b59190614002565b61164c565b005b3480156107c7575f80fd5b506107e260048036038101906107dd9190614365565b6117d2565b6040516107ef9190613e5e565b60405180910390f35b348015610803575f80fd5b5061081e6004803603810190610819919061433a565b6117fd565b60405161082b9190613e5e565b60405180910390f35b34801561083f575f80fd5b5061085a60048036038101906108559190614002565b611842565b005b348015610867575f80fd5b506108706119b3565b005b34801561087d575f80fd5b506108986004803603810190610893919061433a565b6119e8565b005b3480156108a5575f80fd5b506108ae611a23565b005b3480156108bb575f80fd5b506108c4611bc1565b6040516108d191906143fe565b60405180910390f35b3480156108e5575f80fd5b5061090060048036038101906108fb91906142a0565b611be6565b60405161090d9190613f15565b60405180910390f35b348015610921575f80fd5b5061093c60048036038101906109379190614365565b611c4a565b6040516109499190613e5e565b60405180910390f35b34801561095d575f80fd5b50610966611c75565b6040516109739190613fb8565b60405180910390f35b348015610987575f80fd5b506109a2600480360381019061099d919061433a565b611d05565b005b3480156109af575f80fd5b506109b8611d40565b6040516109c59190614437565b60405180910390f35b3480156109d9575f80fd5b506109e2611d64565b6040516109ef9190614470565b60405180910390f35b348015610a03575f80fd5b50610a0c611d89565b604051610a1991906141ba565b60405180910390f35b348015610a2d575f80fd5b50610a486004803603810190610a439190614087565b611d8f565b604051610a559190613f15565b60405180910390f35b610a786004803603810190610a73919061433a565b611db1565b604051610a859190613e5e565b60405180910390f35b348015610a99575f80fd5b50610ab46004803603810190610aaf9190614002565b611fec565b604051610ac19190613e5e565b60405180910390f35b348015610ad5575f80fd5b50610af06004803603810190610aeb9190614489565b611fff565b604051610afd9190613e5e565b60405180910390f35b348015610b11575f80fd5b50610b1a6121a0565b604051610b279190613e5e565b60405180910390f35b348015610b3b575f80fd5b50610b566004803603810190610b519190614489565b6121a6565b604051610b639190613e5e565b60405180910390f35b348015610b77575f80fd5b50610b80612352565b604051610b8d9190613f15565b60405180910390f35b348015610ba1575f80fd5b50610baa612365565b604051610bb79190614437565b60405180910390f35b348015610bcb575f80fd5b50610be66004803603810190610be1919061433a565b612389565b604051610bf39190613e5e565b60405180910390f35b348015610c07575f80fd5b50610c226004803603810190610c1d9190614002565b6123b2565b604051610c2f9190613e5e565b60405180910390f35b348015610c43575f80fd5b50610c4c6123c4565b604051610c599190613e5e565b60405180910390f35b348015610c6d575f80fd5b50610c886004803603810190610c83919061433a565b6123ca565b604051610c959190613e5e565b60405180910390f35b348015610ca9575f80fd5b50610cc46004803603810190610cbf9190614489565b6123e4565b604051610cd19190613e5e565b60405180910390f35b348015610ce5575f80fd5b50610d006004803603810190610cfb91906142a0565b612898565b005b348015610d0d575f80fd5b50610d286004803603810190610d23919061433a565b6128ba565b604051610d359190613e5e565b60405180910390f35b348015610d49575f80fd5b50610d646004803603810190610d5f91906144d9565b6128cb565b604051610d719190613e5e565b60405180910390f35b348015610d85575f80fd5b50610d8e61294d565b604051610d9b91906141ba565b60405180910390f35b348015610daf575f80fd5b50610db8612971565b604051610dc59190613e5e565b60405180910390f35b348015610dd9575f80fd5b50610de2612a0f565b604051610def9190613e5e565b60405180910390f35b348015610e03575f80fd5b50610e1e6004803603810190610e199190614002565b612aad565b604051610e2b9190613e5e565b60405180910390f35b5f807f000000000000000000000000000000000000000000000000000000000000000073ffffffffffffffffffffffffffffffffffffffff166370a08231306040518263ffffffff1660e01b8152600401610e8f9190614321565b602060405180830381865afa158015610eaa573d5f803e3d5ffd5b505050506040513d601f19601f82011682018060405250810190610ece919061452b565b90505f7f000000000000000000000000000000000000000000000000000000000000000073ffffffffffffffffffffffffffffffffffffffff166370a08231306040518263ffffffff1660e01b8152600401610f2a9190614321565b602060405180830381865afa158015610f45573d5f803e3d5ffd5b505050506040513d601f19601f82011682018060405250810190610f69919061452b565b90508082610f779190614583565b9250505090565b5f7f7965db0b000000000000000000000000000000000000000000000000000000007bffffffffffffffffffffffffffffffffffffffffffffffffffffffff1916827bffffffffffffffffffffffffffffffffffffffffffffffffffffffff19161480610ff05750610fef82612abf565b5b9050919050565b606060038054611006906145e3565b80601f0160208091040260200160405190810160405280929190818152602001828054611032906145e3565b801561107d5780601f106110545761010080835404028352916020019161107d565b820191905f5260205f20905b81548152906001019060200180831161106057829003601f168201915b5050505050905090565b5f611092825f612b28565b9050919050565b5f806110a3612b80565b90506110b0818585612b87565b600191505092915050565b5f6110c7826001612b99565b9050919050565b5f801b6110da81612bf1565b5f73ffffffffffffffffffffffffffffffffffffffff168373ffffffffffffffffffffffffffffffffffffffff1603611148576040517f08c379a000000000000000000000000000000000000000000000000000000000815260040161113f9061465d565b60405180910390fd5b6105dc8261ffff161115611191576040517f08c379a0000000000000000000000000000000000000000000000000000000008152600401611188906146c5565b60405180910390fd5b7f66656542707300000000000000000000000000000000000000000000000000007f6971b4f0b6ef70b5d9551beb71d4864d6d983119e809e7db05d264fee1134d8b600860149054906101000a900461ffff16846040516111f3929190614713565b60405180910390a27f74726561737572790000000000000000000000000000000000000000000000007f6971b4f0b6ef70b5d9551beb71d4864d6d983119e809e7db05d264fee1134d8b60085f9054906101000a900473ffffffffffffffffffffffffffffffffffffffff1673ffffffffffffffffffffffffffffffffffffffff168573ffffffffffffffffffffffffffffffffffffffff1660405161129a92919061473a565b60405180910390a28260085f6101000a81548173ffffffffffffffffffffffffffffffffffffffff021916908373ffffffffffffffffffffffffffffffffffffffff16021790555081600860146101000a81548161ffff021916908361ffff160217905550505050565b5f600254905090565b5f801b61131981612bf1565b82600a5f6101000a81548173ffffffffffffffffffffffffffffffffffffffff021916908373ffffffffffffffffffffffffffffffffffffffff16021790555081600a60146101000a81548160ff0219169083151502179055508180156113ac57505f73ffffffffffffffffffffffffffffffffffffffff168373ffffffffffffffffffffffffffffffffffffffff1614155b1561141d5761141c837fffffffffffffffffffffffffffffffffffffffffffffffffffffffffffffffff7f000000000000000000000000000000000000000000000000000000000000000073ffffffffffffffffffffffffffffffffffffffff16612c059092919063ffffffff16565b5b505050565b7fcab5a0bfe0b79d2c4b1c2e02599fa044d115b7511f9659307cb427695096770981565b5f80611450612b80565b905061145d858285612d12565b611468858585612da5565b60019150509392505050565b5f60055f8381526020019081526020015f20600101549050919050565b600860149054906101000a900461ffff1681565b6114ae82611474565b6114b781612bf1565b6114c18383612e95565b50505050565b5f6114d0612f7f565b7f00000000000000000000000000000000000000000000000000000000000000006114fb9190614761565b905090565b611508612b80565b73ffffffffffffffffffffffffffffffffffffffff168173ffffffffffffffffffffffffffffffffffffffff161461156c576040517f6697b23200000000000000000000000000000000000000000000000000000000815260040160405180910390fd5b6115768282612f83565b505050565b5f7f0000000000000000000000000000000000000000000000000000000000000000905090565b7f65d7a28e3265b37a6474929f336521b332c1681b933f6cb9f3376673440d862a6115cc81612bf1565b6115d461306d565b50565b5f7fffffffffffffffffffffffffffffffffffffffffffffffffffffffffffffffff9050919050565b5f61160b825f612b28565b9050919050565b5f60065f9054906101000a900460ff16905090565b60085f9054906101000a900473ffffffffffffffffffffffffffffffffffffffff1681565b6116546130ce565b7fcab5a0bfe0b79d2c4b1c2e02599fa044d115b7511f9659307cb427695096770961167e81612bf1565b5f8203156117ce575f60095f9054906101000a900473ffffffffffffffffffffffffffffffffffffffff1673ffffffffffffffffffffffffffffffffffffffff166369328dec7f000000000000000000000000000000000000000000000000000000000000000085306040518463ffffffff1660e01b815260040161170593929190614795565b6020604051808303815f875af1158015611721573d5f803e3d5ffd5b505050506040513d601f19601f82011682018060405250810190611745919061452b565b90503373ffffffffffffffffffffffffffffffffffffffff167f000000000000000000000000000000000000000000000000000000000000000073ffffffffffffffffffffffffffffffffffffffff167ff88531a6e85f24185a3ad005feb22c4e53b07531d925da74170cfe21d2844b65836040516117c49190613e5e565b60405180910390a3505b5050565b5f6117db6130ce565b6117e361310f565b6117ed8383613155565b90506117f76131d5565b92915050565b5f805f8373ffffffffffffffffffffffffffffffffffffffff1673ffffffffffffffffffffffffffffffffffffffff1681526020019081526020015f20549050919050565b61184a6130ce565b7fcab5a0bfe0b79d2c4b1c2e02599fa044d115b7511f9659307cb427695096770961187481612bf1565b5f8203156119af5760095f9054906101000a900473ffffffffffffffffffffffffffffffffffffffff1673ffffffffffffffffffffffffffffffffffffffff1663617ba0377f000000000000000000000000000000000000000000000000000000000000000084305f6040518563ffffffff1660e01b81526004016118fc9493929190614803565b5f604051808303815f87803b158015611913575f80fd5b505af1158015611925573d5f803e3d5ffd5b505050503373ffffffffffffffffffffffffffffffffffffffff167f000000000000000000000000000000000000000000000000000000000000000073ffffffffffffffffffffffffffffffffffffffff167fe7bb03b691472587f7ba61e51bc49b59d80b107fa536149c642b31ce92e26e68846040516119a69190613e5e565b60405180910390a35b5050565b7f65d7a28e3265b37a6474929f336521b332c1681b933f6cb9f3376673440d862a6119dd81612bf1565b6119e56131df565b50565b5f801b6119f481612bf1565b611a1e7fcab5a0bfe0b79d2c4b1c2e02599fa044d115b7511f9659307cb427695096770983612e95565b505050565b611a2b6130ce565b7fcab5a0bfe0b79d2c4b1c2e02599fa044d115b7511f9659307cb4276950967709611a5581612bf1565b5f611a5e610e34565b90505f600b5490505f8103611a825781600b8190555042600c819055505050611bbe565b8082118015611aa457505f600860149054906101000a900461ffff1661ffff16115b15611ba6575f8183611ab69190614846565b90505f612710600860149054906101000a900461ffff1661ffff1683611adc9190614879565b611ae691906148e7565b90505f811115611ba3575f611afa826123b2565b90505f811115611ba157611b2f60085f9054906101000a900473ffffffffffffffffffffffffffffffffffffffff1682613241565b60085f9054906101000a900473ffffffffffffffffffffffffffffffffffffffff1673ffffffffffffffffffffffffffffffffffffffff167faa3c5efbfd9c129a7407bdc6753e92ab563f04f88c7de5b307d06686697c507d8383604051611b9892919061473a565b60405180910390a25b505b50505b611bae610e34565b600b8190555042600c8190555050505b50565b600a5f9054906101000a900473ffffffffffffffffffffffffffffffffffffffff1681565b5f60055f8481526020019081526020015f205f015f8373ffffffffffffffffffffffffffffffffffffffff1673ffffffffffffffffffffffffffffffffffffffff1681526020019081526020015f205f9054906101000a900460ff16905092915050565b5f611c536130ce565b611c5b61310f565b611c6583836132c0565b9050611c6f6131d5565b92915050565b606060048054611c84906145e3565b80601f0160208091040260200160405190810160405280929190818152602001828054611cb0906145e3565b8015611cfb5780601f10611cd257610100808354040283529160200191611cfb565b820191905f5260205f20905b815481529060010190602001808311611cde57829003601f168201915b5050505050905090565b5f801b611d1181612bf1565b611d3b7fcab5a0bfe0b79d2c4b1c2e02599fa044d115b7511f9659307cb427695096770983612f83565b505050565b7f000000000000000000000000000000000000000000000000000000000000000081565b60095f9054906101000a900473ffffffffffffffffffffffffffffffffffffffff1681565b5f801b81565b5f80611d99612b80565b9050611da6818585612da5565b600191505092915050565b5f611dba6130ce565b611dc261310f565b600a60149054906101000a900460ff16611e11576040517f08c379a0000000000000000000000000000000000000000000000000000000008152600401611e0890614961565b60405180910390fd5b5f3490505f8111611e57576040517f08c379a0000000000000000000000000000000000000000000000000000000008152600401611e4e906149c9565b60405180910390fd5b611e6081612aad565b91505f73ffffffffffffffffffffffffffffffffffffffff167f000000000000000000000000000000000000000000000000000000000000000073ffffffffffffffffffffffffffffffffffffffff1603611ef0576040517f08c379a0000000000000000000000000000000000000000000000000000000008152600401611ee790614a31565b60405180910390fd5b7f000000000000000000000000000000000000000000000000000000000000000073ffffffffffffffffffffffffffffffffffffffff1663d0e30db0826040518263ffffffff1660e01b81526004015f604051808303818588803b158015611f56575f80fd5b505af1158015611f68573d5f803e3d5ffd5b5050505050611f778383613241565b8273ffffffffffffffffffffffffffffffffffffffff163373ffffffffffffffffffffffffffffffffffffffff167fdcbc1c05240f31ff3ad067ef1ee35ce4997762752e3a095284754544f4c709d78385604051611fd692919061473a565b60405180910390a350611fe76131d5565b919050565b5f611ff8826001612b28565b9050919050565b5f6120086130ce565b61201061310f565b5f7f000000000000000000000000000000000000000000000000000000000000000073ffffffffffffffffffffffffffffffffffffffff166370a08231306040518263ffffffff1660e01b815260040161206a9190614321565b602060405180830381865afa158015612085573d5f803e3d5ffd5b505050506040513d601f19601f820116820180604052508101906120a9919061452b565b905084811015612183575f81866120c09190614846565b905060095f9054906101000a900473ffffffffffffffffffffffffffffffffffffffff1673ffffffffffffffffffffffffffffffffffffffff166369328dec7f000000000000000000000000000000000000000000000000000000000000000083306040518463ffffffff1660e01b815260040161214093929190614795565b6020604051808303815f875af115801561215c573d5f803e3d5ffd5b505050506040513d601f19601f82011682018060405250810190612180919061452b565b50505b61218e858585613340565b9150506121996131d5565b9392505050565b600c5481565b5f6121af6130ce565b6121b761310f565b6121c084611600565b90505f7f000000000000000000000000000000000000000000000000000000000000000073ffffffffffffffffffffffffffffffffffffffff166370a08231306040518263ffffffff1660e01b815260040161221c9190614321565b602060405180830381865afa158015612237573d5f803e3d5ffd5b505050506040513d601f19601f8201168201806040525081019061225b919061452b565b905081811015612335575f81836122729190614846565b905060095f9054906101000a900473ffffffffffffffffffffffffffffffffffffffff1673ffffffffffffffffffffffffffffffffffffffff166369328dec7f000000000000000000000000000000000000000000000000000000000000000083306040518463ffffffff1660e01b81526004016122f293929190614795565b6020604051808303815f875af115801561230e573d5f803e3d5ffd5b505050506040513d601f19601f82011682018060405250810190612332919061452b565b50505b6123408585856133c2565b91505061234b6131d5565b9392505050565b600a60149054906101000a900460ff1681565b7f000000000000000000000000000000000000000000000000000000000000000081565b5f7fffffffffffffffffffffffffffffffffffffffffffffffffffffffffffffffff9050919050565b5f6123bd825f612b99565b9050919050565b600b5481565b5f6123dd6123d7836117fd565b5f612b28565b9050919050565b5f6123ed6130ce565b6123f561310f565b600a60149054906101000a900460ff16612444576040517f08c379a000000000000000000000000000000000000000000000000000000000815260040161243b90614961565b60405180910390fd5b5f8411612486576040517f08c379a000000000000000000000000000000000000000000000000000000000815260040161247d90614a99565b60405180910390fd5b61248f846110bb565b90508173ffffffffffffffffffffffffffffffffffffffff163373ffffffffffffffffffffffffffffffffffffffff16146124d0576124cf823383612d12565b5b6124da8282613444565b5f7f000000000000000000000000000000000000000000000000000000000000000073ffffffffffffffffffffffffffffffffffffffff166370a08231306040518263ffffffff1660e01b81526004016125349190614321565b602060405180830381865afa15801561254f573d5f803e3d5ffd5b505050506040513d601f19601f82011682018060405250810190612573919061452b565b90508481101561264d575f818661258a9190614846565b905060095f9054906101000a900473ffffffffffffffffffffffffffffffffffffffff1673ffffffffffffffffffffffffffffffffffffffff166369328dec7f000000000000000000000000000000000000000000000000000000000000000083306040518463ffffffff1660e01b815260040161260a93929190614795565b6020604051808303815f875af1158015612626573d5f803e3d5ffd5b505050506040513d601f19601f8201168201806040525081019061264a919061452b565b50505b5f73ffffffffffffffffffffffffffffffffffffffff167f000000000000000000000000000000000000000000000000000000000000000073ffffffffffffffffffffffffffffffffffffffff16036126db576040517f08c379a00000000000000000000000000000000000000000000000000000000081526004016126d290614a31565b60405180910390fd5b7f000000000000000000000000000000000000000000000000000000000000000073ffffffffffffffffffffffffffffffffffffffff16632e1a7d4d866040518263ffffffff1660e01b81526004016127349190613e5e565b5f604051808303815f87803b15801561274b575f80fd5b505af115801561275d573d5f803e3d5ffd5b505050505f8473ffffffffffffffffffffffffffffffffffffffff168660405161278690614ae4565b5f6040518083038185875af1925050503d805f81146127c0576040519150601f19603f3d011682016040523d82523d5f602084013e6127c5565b606091505b5050905080612809576040517f08c379a000000000000000000000000000000000000000000000000000000000815260040161280090614b42565b60405180910390fd5b8373ffffffffffffffffffffffffffffffffffffffff168573ffffffffffffffffffffffffffffffffffffffff163373ffffffffffffffffffffffffffffffffffffffff167ffbde797d201c681b91056529119e0b02407c7bb96a4a2c75c01fc9667232c8db898760405161287f92919061473a565b60405180910390a450506128916131d5565b9392505050565b6128a182611474565b6128aa81612bf1565b6128b48383612f83565b50505050565b5f6128c4826117fd565b9050919050565b5f60015f8473ffffffffffffffffffffffffffffffffffffffff1673ffffffffffffffffffffffffffffffffffffffff1681526020019081526020015f205f8373ffffffffffffffffffffffffffffffffffffffff1673ffffffffffffffffffffffffffffffffffffffff1681526020019081526020015f2054905092915050565b7f65d7a28e3265b37a6474929f336521b332c1681b933f6cb9f3376673440d862a81565b5f7f000000000000000000000000000000000000000000000000000000000000000073ffffffffffffffffffffffffffffffffffffffff166370a08231306040518263ffffffff1660e01b81526004016129cb9190614321565b602060405180830381865afa1580156129e6573d5f803e3d5ffd5b505050506040513d601f19601f82011682018060405250810190612a0a919061452b565b905090565b5f7f000000000000000000000000000000000000000000000000000000000000000073ffffffffffffffffffffffffffffffffffffffff166370a08231306040518263ffffffff1660e01b8152600401612a699190614321565b602060405180830381865afa158015612a84573d5f803e3d5ffd5b505050506040513d601f19601f82011682018060405250810190612aa8919061452b565b905090565b5f612ab8825f612b99565b9050919050565b5f7f01ffc9a7000000000000000000000000000000000000000000000000000000007bffffffffffffffffffffffffffffffffffffffffffffffffffffffff1916827bffffffffffffffffffffffffffffffffffffffffffffffffffffffff1916149050919050565b5f612b786001612b36610e34565b612b409190614583565b612b48612f7f565b600a612b549190614c8f565b612b5c611304565b612b669190614583565b84866134c3909392919063ffffffff16565b905092915050565b5f33905090565b612b948383836001613510565b505050565b5f612be9612ba5612f7f565b600a612bb19190614c8f565b612bb9611304565b612bc39190614583565b6001612bcd610e34565b612bd79190614583565b84866134c3909392919063ffffffff16565b905092915050565b612c0281612bfd612b80565b6136df565b50565b5f8373ffffffffffffffffffffffffffffffffffffffff1663095ea7b38484604051602401612c35929190614cd9565b604051602081830303815290604052915060e01b6020820180517bffffffffffffffffffffffffffffffffffffffffffffffffffffffff83818316178352505050509050612c838482613730565b612d0c57612d01848573ffffffffffffffffffffffffffffffffffffffff1663095ea7b3865f604051602401612cba929190614d30565b604051602081830303815290604052915060e01b6020820180517bffffffffffffffffffffffffffffffffffffffffffffffffffffffff8381831617835250505050613789565b612d0b8482613789565b5b50505050565b5f612d1d84846128cb565b90507fffffffffffffffffffffffffffffffffffffffffffffffffffffffffffffffff811015612d9f5781811015612d90578281836040517ffb8f41b2000000000000000000000000000000000000000000000000000000008152600401612d8793929190614d57565b60405180910390fd5b612d9e84848484035f613510565b5b50505050565b5f73ffffffffffffffffffffffffffffffffffffffff168373ffffffffffffffffffffffffffffffffffffffff1603612e15575f6040517f96c6fd1e000000000000000000000000000000000000000000000000000000008152600401612e0c9190614321565b60405180910390fd5b5f73ffffffffffffffffffffffffffffffffffffffff168273ffffffffffffffffffffffffffffffffffffffff1603612e85575f6040517fec442f05000000000000000000000000000000000000000000000000000000008152600401612e7c9190614321565b60405180910390fd5b612e90838383613824565b505050565b5f612ea08383611be6565b612f7557600160055f8581526020019081526020015f205f015f8473ffffffffffffffffffffffffffffffffffffffff1673ffffffffffffffffffffffffffffffffffffffff1681526020019081526020015f205f6101000a81548160ff021916908315150217905550612f12612b80565b73ffffffffffffffffffffffffffffffffffffffff168273ffffffffffffffffffffffffffffffffffffffff16847f2f8788117e7eff1d82e926ec794901d17c78024a50270940304540a733656f0d60405160405180910390a460019050612f79565b5f90505b92915050565b5f90565b5f612f8e8383611be6565b15613063575f60055f8581526020019081526020015f205f015f8473ffffffffffffffffffffffffffffffffffffffff1673ffffffffffffffffffffffffffffffffffffffff1681526020019081526020015f205f6101000a81548160ff021916908315150217905550613000612b80565b73ffffffffffffffffffffffffffffffffffffffff168273ffffffffffffffffffffffffffffffffffffffff16847ff6391f5c32d9c69d2a47ea670b442974b53935d1edc7fd64eb21e047a839171b60405160405180910390a460019050613067565b5f90505b92915050565b613075613a3d565b5f60065f6101000a81548160ff0219169083151502179055507f5db9ee0a495bf2e6ff9c91a7834c1ba4fdd244a5e8aa4e537bd38aeae4b073aa6130b7612b80565b6040516130c49190614321565b60405180910390a1565b6130d6611612565b1561310d576040517fd93c066500000000000000000000000000000000000000000000000000000000815260040160405180910390fd5b565b60026007540361314b576040517f3ee5aeb500000000000000000000000000000000000000000000000000000000815260040160405180910390fd5b6002600781905550565b5f80613160836115d7565b9050808411156131ab578284826040517f79012fb20000000000000000000000000000000000000000000000000000000081526004016131a293929190614d57565b60405180910390fd5b5f6131b585612aad565b90506131ca6131c2612b80565b858784613a7d565b809250505092915050565b6001600781905550565b6131e76130ce565b600160065f6101000a81548160ff0219169083151502179055507f62e78cea01bee320cd4e420270b5ea74000d11b0c9f74754ebdbfc544b05a25861322a612b80565b6040516132379190614321565b60405180910390a1565b5f73ffffffffffffffffffffffffffffffffffffffff168273ffffffffffffffffffffffffffffffffffffffff16036132b1575f6040517fec442f050000000000000000000000000000000000000000000000000000000081526004016132a89190614321565b60405180910390fd5b6132bc5f8383613824565b5050565b5f806132cb83612389565b905080841115613316578284826040517f284ff66700000000000000000000000000000000000000000000000000000000815260040161330d93929190614d57565b60405180910390fd5b5f61332085611fec565b905061333561332d612b80565b858388613a7d565b809250505092915050565b5f8061334b836123ca565b905080851115613396578285826040517ffe9cceec00000000000000000000000000000000000000000000000000000000815260040161338d93929190614d57565b60405180910390fd5b5f6133a0866110bb565b90506133b66133ad612b80565b86868985613b07565b80925050509392505050565b5f806133cd836128ba565b905080851115613418578285826040517fb94abeec00000000000000000000000000000000000000000000000000000000815260040161340f93929190614d57565b60405180910390fd5b5f61342286611600565b905061343861342f612b80565b8686848a613b07565b80925050509392505050565b5f73ffffffffffffffffffffffffffffffffffffffff168273ffffffffffffffffffffffffffffffffffffffff16036134b4575f6040517f96c6fd1e0000000000000000000000000000000000000000000000000000000081526004016134ab9190614321565b60405180910390fd5b6134bf825f83613824565b5050565b5f6134f16134d083613be7565b80156134ec57505f84806134e7576134e66148ba565b5b868809115b613c14565b6134fc868686613c1f565b6135069190614583565b9050949350505050565b5f73ffffffffffffffffffffffffffffffffffffffff168473ffffffffffffffffffffffffffffffffffffffff1603613580575f6040517fe602df050000000000000000000000000000000000000000000000000000000081526004016135779190614321565b60405180910390fd5b5f73ffffffffffffffffffffffffffffffffffffffff168373ffffffffffffffffffffffffffffffffffffffff16036135f0575f6040517f94280d620000000000000000000000000000000000000000000000000000000081526004016135e79190614321565b60405180910390fd5b8160015f8673ffffffffffffffffffffffffffffffffffffffff1673ffffffffffffffffffffffffffffffffffffffff1681526020019081526020015f205f8573ffffffffffffffffffffffffffffffffffffffff1673ffffffffffffffffffffffffffffffffffffffff1681526020019081526020015f208190555080156136d9578273ffffffffffffffffffffffffffffffffffffffff168473ffffffffffffffffffffffffffffffffffffffff167f8c5be1e5ebec7d5bd14f71427d1e84f3dd0314c0f7b2291e5b200ac8c7c3b925846040516136d09190613e5e565b60405180910390a35b50505050565b6136e98282611be6565b61372c5780826040517fe2517d3f000000000000000000000000000000000000000000000000000000008152600401613723929190614d8c565b60405180910390fd5b5050565b5f805f8060205f8651602088015f8a5af192503d91505f51905082801561377e57505f8214613762576001811461377d565b5f8673ffffffffffffffffffffffffffffffffffffffff163b115b5b935050505092915050565b5f8060205f8451602086015f885af1806137a8576040513d5f823e3d81fd5b3d92505f519150505f82146137c15760018114156137dc565b5f8473ffffffffffffffffffffffffffffffffffffffff163b145b1561381e57836040517f5274afe70000000000000000000000000000000000000000000000000000000081526004016138159190614321565b60405180910390fd5b50505050565b5f73ffffffffffffffffffffffffffffffffffffffff168373ffffffffffffffffffffffffffffffffffffffff1603613874578060025f8282546138689190614583565b92505081905550613942565b5f805f8573ffffffffffffffffffffffffffffffffffffffff1673ffffffffffffffffffffffffffffffffffffffff1681526020019081526020015f20549050818110156138fd578381836040517fe450d38c0000000000000000000000000000000000000000000000000000000081526004016138f493929190614d57565b60405180910390fd5b8181035f808673ffffffffffffffffffffffffffffffffffffffff1673ffffffffffffffffffffffffffffffffffffffff1681526020019081526020015f2081905550505b5f73ffffffffffffffffffffffffffffffffffffffff168273ffffffffffffffffffffffffffffffffffffffff1603613989578060025f82825403925050819055506139d3565b805f808473ffffffffffffffffffffffffffffffffffffffff1673ffffffffffffffffffffffffffffffffffffffff1681526020019081526020015f205f82825401925050819055505b8173ffffffffffffffffffffffffffffffffffffffff168373ffffffffffffffffffffffffffffffffffffffff167fddf252ad1be2c89b69c2b068fc378daa952ba7f163c4a11628f55a4df523b3ef83604051613a309190613e5e565b60405180910390a3505050565b613a45611612565b613a7b576040517f8dfc202b00000000000000000000000000000000000000000000000000000000815260040160405180910390fd5b565b613a90613a8861157b565b853085613cfe565b613a9a8382613241565b8273ffffffffffffffffffffffffffffffffffffffff168473ffffffffffffffffffffffffffffffffffffffff167fdcbc1c05240f31ff3ad067ef1ee35ce4997762752e3a095284754544f4c709d78484604051613af992919061473a565b60405180910390a350505050565b8273ffffffffffffffffffffffffffffffffffffffff168573ffffffffffffffffffffffffffffffffffffffff1614613b4657613b45838683612d12565b5b613b508382613444565b613b62613b5b61157b565b8584613d80565b8273ffffffffffffffffffffffffffffffffffffffff168473ffffffffffffffffffffffffffffffffffffffff168673ffffffffffffffffffffffffffffffffffffffff167ffbde797d201c681b91056529119e0b02407c7bb96a4a2c75c01fc9667232c8db8585604051613bd892919061473a565b60405180910390a45050505050565b5f60016002836003811115613bff57613bfe614db3565b5b613c099190614de0565b60ff16149050919050565b5f8115159050919050565b5f805f613c2c8686613dff565b915091505f8203613c5157838181613c4757613c466148ba565b5b0492505050613cf7565b818411613c7057613c6f613c6a5f861460126011613e1c565b613e35565b5b5f8486880990508181118303925080820391505f855f038616905080860495508083049250600181825f0304019050808402831792505f600287600302189050808702600203810290508087026002038102905080870260020381029050808702600203810290508087026002038102905080870260020381029050808402955050505050505b9392505050565b613d7a848573ffffffffffffffffffffffffffffffffffffffff166323b872dd868686604051602401613d3393929190614e10565b604051602081830303815290604052915060e01b6020820180517bffffffffffffffffffffffffffffffffffffffffffffffffffffffff8381831617835250505050613789565b50505050565b613dfa838473ffffffffffffffffffffffffffffffffffffffff1663a9059cbb8585604051602401613db3929190614cd9565b604051602081830303815290604052915060e01b6020820180517bffffffffffffffffffffffffffffffffffffffffffffffffffffffff8381831617835250505050613789565b505050565b5f805f198385098385029150818110828203039250509250929050565b5f613e2684613c14565b82841802821890509392505050565b634e487b715f52806020526024601cfd5b5f819050919050565b613e5881613e46565b82525050565b5f602082019050613e715f830184613e4f565b92915050565b5f80fd5b5f7fffffffff0000000000000000000000000000000000000000000000000000000082169050919050565b613eaf81613e7b565b8114613eb9575f80fd5b50565b5f81359050613eca81613ea6565b92915050565b5f60208284031215613ee557613ee4613e77565b5b5f613ef284828501613ebc565b91505092915050565b5f8115159050919050565b613f0f81613efb565b82525050565b5f602082019050613f285f830184613f06565b92915050565b5f81519050919050565b5f82825260208201905092915050565b5f5b83811015613f65578082015181840152602081019050613f4a565b5f8484015250505050565b5f601f19601f8301169050919050565b5f613f8a82613f2e565b613f948185613f38565b9350613fa4818560208601613f48565b613fad81613f70565b840191505092915050565b5f6020820190508181035f830152613fd08184613f80565b905092915050565b613fe181613e46565b8114613feb575f80fd5b50565b5f81359050613ffc81613fd8565b92915050565b5f6020828403121561401757614016613e77565b5b5f61402484828501613fee565b91505092915050565b5f73ffffffffffffffffffffffffffffffffffffffff82169050919050565b5f6140568261402d565b9050919050565b6140668161404c565b8114614070575f80fd5b50565b5f813590506140818161405d565b92915050565b5f806040838503121561409d5761409c613e77565b5b5f6140aa85828601614073565b92505060206140bb85828601613fee565b9150509250929050565b5f61ffff82169050919050565b6140db816140c5565b81146140e5575f80fd5b50565b5f813590506140f6816140d2565b92915050565b5f806040838503121561411257614111613e77565b5b5f61411f85828601614073565b9250506020614130858286016140e8565b9150509250929050565b61414381613efb565b811461414d575f80fd5b50565b5f8135905061415e8161413a565b92915050565b5f806040838503121561417a57614179613e77565b5b5f61418785828601614073565b925050602061419885828601614150565b9150509250929050565b5f819050919050565b6141b4816141a2565b82525050565b5f6020820190506141cd5f8301846141ab565b92915050565b5f805f606084860312156141ea576141e9613e77565b5b5f6141f786828701614073565b935050602061420886828701614073565b925050604061421986828701613fee565b9150509250925092565b61422c816141a2565b8114614236575f80fd5b50565b5f8135905061424781614223565b92915050565b5f6020828403121561426257614261613e77565b5b5f61426f84828501614239565b91505092915050565b614281816140c5565b82525050565b5f60208201905061429a5f830184614278565b92915050565b5f80604083850312156142b6576142b5613e77565b5b5f6142c385828601614239565b92505060206142d485828601614073565b9150509250929050565b5f60ff82169050919050565b6142f3816142de565b82525050565b5f60208201905061430c5f8301846142ea565b92915050565b61431b8161404c565b82525050565b5f6020820190506143345f830184614312565b92915050565b5f6020828403121561434f5761434e613e77565b5b5f61435c84828501614073565b91505092915050565b5f806040838503121561437b5761437a613e77565b5b5f61438885828601613fee565b925050602061439985828601614073565b9150509250929050565b5f819050919050565b5f6143c66143c16143bc8461402d565b6143a3565b61402d565b9050919050565b5f6143d7826143ac565b9050919050565b5f6143e8826143cd565b9050919050565b6143f8816143de565b82525050565b5f6020820190506144115f8301846143ef565b92915050565b5f614421826143cd565b9050919050565b61443181614417565b82525050565b5f60208201905061444a5f830184614428565b92915050565b5f61445a826143cd565b9050919050565b61446a81614450565b82525050565b5f6020820190506144835f830184614461565b92915050565b5f805f606084860312156144a05761449f613e77565b5b5f6144ad86828701613fee565b93505060206144be86828701614073565b92505060406144cf86828701614073565b9150509250925092565b5f80604083850312156144ef576144ee613e77565b5b5f6144fc85828601614073565b925050602061450d85828601614073565b9150509250929050565b5f8151905061452581613fd8565b92915050565b5f602082840312156145405761453f613e77565b5b5f61454d84828501614517565b91505092915050565b7f4e487b71000000000000000000000000000000000000000000000000000000005f52601160045260245ffd5b5f61458d82613e46565b915061459883613e46565b92508282019050808211156145b0576145af614556565b5b92915050565b7f4e487b71000000000000000000000000000000000000000000000000000000005f52602260045260245ffd5b5f60028204905060018216806145fa57607f821691505b60208210810361460d5761460c6145b6565b5b50919050565b7f74726561737572793d30000000000000000000000000000000000000000000005f82015250565b5f614647600a83613f38565b915061465282614613565b602082019050919050565b5f6020820190508181035f8301526146748161463b565b9050919050565b7f66656520746f6f206869676800000000000000000000000000000000000000005f82015250565b5f6146af600c83613f38565b91506146ba8261467b565b602082019050919050565b5f6020820190508181035f8301526146dc816146a3565b9050919050565b5f6146fd6146f86146f3846140c5565b6143a3565b613e46565b9050919050565b61470d816146e3565b82525050565b5f6040820190506147265f830185614704565b6147336020830184614704565b9392505050565b5f60408201905061474d5f830185613e4f565b61475a6020830184613e4f565b9392505050565b5f61476b826142de565b9150614776836142de565b9250828201905060ff81111561478f5761478e614556565b5b92915050565b5f6060820190506147a85f830186614312565b6147b56020830185613e4f565b6147c26040830184614312565b949350505050565b5f819050919050565b5f6147ed6147e86147e3846147ca565b6143a3565b6140c5565b9050919050565b6147fd816147d3565b82525050565b5f6080820190506148165f830187614312565b6148236020830186613e4f565b6148306040830185614312565b61483d60608301846147f4565b95945050505050565b5f61485082613e46565b915061485b83613e46565b925082820390508181111561487357614872614556565b5b92915050565b5f61488382613e46565b915061488e83613e46565b925082820261489c81613e46565b915082820484148315176148b3576148b2614556565b5b5092915050565b7f4e487b71000000000000000000000000000000000000000000000000000000005f52601260045260245ffd5b5f6148f182613e46565b91506148fc83613e46565b92508261490c5761490b6148ba565b5b828204905092915050565b7f4554482064697361626c656400000000000000000000000000000000000000005f82015250565b5f61494b600c83613f38565b915061495682614917565b602082019050919050565b5f6020820190508181035f8301526149788161493f565b9050919050565b7f6e6f2045544800000000000000000000000000000000000000000000000000005f82015250565b5f6149b3600683613f38565b91506149be8261497f565b602082019050919050565b5f6020820190508181035f8301526149e0816149a7565b9050919050565b7f61737365743d30000000000000000000000000000000000000000000000000005f82015250565b5f614a1b600783613f38565b9150614a26826149e7565b602082019050919050565b5f6020820190508181035f830152614a4881614a0f565b9050919050565b7f7a65726f206173736574730000000000000000000000000000000000000000005f82015250565b5f614a83600b83613f38565b9150614a8e82614a4f565b602082019050919050565b5f6020820190508181035f830152614ab081614a77565b9050919050565b5f81905092915050565b50565b5f614acf5f83614ab7565b9150614ada82614ac1565b5f82019050919050565b5f614aee82614ac4565b9150819050919050565b7f4554482073656e64206661696c656400000000000000000000000000000000005f82015250565b5f614b2c600f83613f38565b9150614b3782614af8565b602082019050919050565b5f6020820190508181035f830152614b5981614b20565b9050919050565b5f8160011c9050919050565b5f808291508390505b6001851115614bb557808604811115614b9157614b90614556565b5b6001851615614ba05780820291505b8081029050614bae85614b60565b9450614b75565b94509492505050565b5f82614bcd5760019050614c88565b81614bda575f9050614c88565b8160018114614bf05760028114614bfa57614c29565b6001915050614c88565b60ff841115614c0c57614c0b614556565b5b8360020a915084821115614c2357614c22614556565b5b50614c88565b5060208310610133831016604e8410600b8410161715614c5e5782820a905083811115614c5957614c58614556565b5b614c88565b614c6b8484846001614b6c565b92509050818404811115614c8257614c81614556565b5b81810290505b9392505050565b5f614c9982613e46565b9150614ca4836142de565b9250614cd17fffffffffffffffffffffffffffffffffffffffffffffffffffffffffffffffff8484614bbe565b905092915050565b5f604082019050614cec5f830185614312565b614cf96020830184613e4f565b9392505050565b5f614d1a614d15614d10846147ca565b6143a3565b613e46565b9050919050565b614d2a81614d00565b82525050565b5f604082019050614d435f830185614312565b614d506020830184614d21565b9392505050565b5f606082019050614d6a5f830186614312565b614d776020830185613e4f565b614d846040830184613e4f565b949350505050565b5f604082019050614d9f5f830185614312565b614dac60208301846141ab565b9392505050565b7f4e487b71000000000000000000000000000000000000000000000000000000005f52602160045260245ffd5b5f614dea826142de565b9150614df5836142de565b925082614e0557614e046148ba565b5b828206905092915050565b5f606082019050614e235f830186614312565b614e306020830185614312565b614e3d6040830184613e4f565b94935050505056fea26469706673582212205b83d7af35a9f8b5417015c8228ae3131d17a71c1853e9b0b04ccce15a6f85a164736f6c63430008180033",
    "linkReferences": {}
  },
  "methodIdentifiers": {
    "AGENT_ROLE()": "22459e18",
    "A_TOKEN()": "9ef0159f",
    "DEFAULT_ADMIN_ROLE()": "a217fddf",
    "PAUSER_ROLE()": "e63ab1e9",
    "UNDERLYING()": "c5d664c6",
    "aTokenBalance()": "e9a37738",
    "aavePool()": "a03e4bc3",
    "addAgent(address)": "84e79842",
    "allowance(address,address)": "dd62ed3e",
    "approve(address,uint256)": "095ea7b3",
    "asset()": "38d52e0f",
    "balanceOf(address)": "70a08231",
    "convertToAssets(uint256)": "07a2d13a",
    "convertToShares(uint256)": "c6e6f592",
    "decimals()": "313ce567",
    "deposit(uint256,address)": "6e553f65",
    "depositEth(address)": "ad9d4ba3",
    "ethGateway()": "8c00ce73",
    "ethMode()": "c4587636",
    "feeBps()": "24a9d853",
    "getRoleAdmin(bytes32)": "248a9ca3",
    "grantRole(bytes32,address)": "2f2ff15d",
    "hasRole(bytes32,address)": "91d14854",
    "idleUnderlying()": "e70a2738",
    "lastCheckpointAssets()": "cbc88dac",
    "lastRebaseTimestamp()": "b86a2fd7",
    "maxDeposit(address)": "402d267d",
    "maxMint(address)": "c63d75b6",
    "maxRedeem(address)": "d905777e",
    "maxWithdraw(address)": "ce96cb77",
    "mint(uint256,address)": "94bf804d",
    "name()": "06fdde03",
    "pause()": "8456cb59",
    "paused()": "5c975abb",
    "previewDeposit(uint256)": "ef8b30f7",
    "previewMint(uint256)": "b3d7f6b9",
    "previewRedeem(uint256)": "4cdad506",
    "previewWithdraw(uint256)": "0a28a477",
    "rebaseAndTakeFees()": "8a53fd63",
    "redeem(uint256,address,address)": "ba087652",
    "removeAgent(address)": "97a6278e",
    "renounceRole(bytes32,address)": "36568abe",
    "revokeRole(bytes32,address)": "d547741f",
    "setEthGateway(address,bool)": "2107b6d6",
    "setParams(address,uint16)": "11264a97",
    "supplyToAave(uint256)": "70ded44d",
    "supportsInterface(bytes4)": "01ffc9a7",
    "symbol()": "95d89b41",
    "totalAssets()": "01e1d114",
    "totalSupply()": "18160ddd",
    "transfer(address,uint256)": "a9059cbb",
    "transferFrom(address,address,uint256)": "23b872dd",
    "treasury()": "61d027b3",
    "unpause()": "3f4ba83a",
    "withdraw(uint256,address,address)": "b460af94",
    "withdrawEth(uint256,address,address)": "d053c83b",
    "withdrawFromAave(uint256)": "688f237b"
  },
  "id": 41
}