{
  "abi": [
    {
      "type": "constructor",
      "inputs": [
        {
          "name": "asset_",
          "type": "address",
          "internalType": "contract IERC20"
        },
        {
          "name": "aToken_",
          "type": "address",
          "internalType": "contract IERC20"
        },
        {
          "name": "treasury_",
          "type": "address",
          "internalType": "address"
        },
        {
          "name": "feeBps_",
          "type": "uint16",
          "internalType": "uint16"
        },
        {
          "name": "aavePool_",
          "type": "address",
          "internalType": "contract IAaveV3Pool"
        },
        {
          "name": "admin",
          "type": "address",
          "internalType": "address"
        }
      ],
      "stateMutability": "nonpayable"
    },
    {
      "type": "receive",
      "stateMutability": "payable"
    },
    {
      "type": "function",
      "name": "AGENT_ROLE",
      "inputs": [],
      "outputs": [
        {
          "name": "",
          "type": "bytes32",
          "internalType": "bytes32"
        }
      ],
      "stateMutability": "view"
    },
    {
      "type": "function",
      "name": "A_TOKEN",
      "inputs": [],
      "outputs": [
        {
          "name": "",
          "type": "address",
          "internalType": "contract IERC20"
        }
      ],
      "stateMutability": "view"
    },
    {
      "type": "function",
      "name": "DEFAULT_ADMIN_ROLE",
      "inputs": [],
      "outputs": [
        {
          "name": "",
          "type": "bytes32",
          "internalType": "bytes32"
        }
      ],
      "stateMutability": "view"
    },
    {
      "type": "function",
      "name": "PAUSER_ROLE",
      "inputs": [],
      "outputs": [
        {
          "name": "",
          "type": "bytes32",
          "internalType": "bytes32"
        }
      ],
      "stateMutability": "view"
    },
    {
      "type": "function",
      "name": "STRATEGY_ROLE",
      "inputs": [],
      "outputs": [
        {
          "name": "",
          "type": "bytes32",
          "internalType": "bytes32"
        }
      ],
      "stateMutability": "view"
    },
    {
      "type": "function",
      "name": "UNDERLYING",
      "inputs": [],
      "outputs": [
        {
          "name": "",
          "type": "address",
          "internalType": "contract IERC20"
        }
      ],
      "stateMutability": "view"
    },
    {
      "type": "function",
      "name": "aTokenBalance",
      "inputs": [],
      "outputs": [
        {
          "name": "",
          "type": "uint256",
          "internalType": "uint256"
        }
      ],
      "stateMutability": "view"
    },
    {
      "type": "function",
      "name": "aavePool",
      "inputs": [],
      "outputs": [
        {
          "name": "",
          "type": "address",
          "internalType": "contract IAaveV3Pool"
        }
      ],
      "stateMutability": "view"
    },
    {
      "type": "function",
      "name": "addAgent",
      "inputs": [
        {
          "name": "agent",
          "type": "address",
          "internalType": "address"
        }
      ],
      "outputs": [],
      "stateMutability": "nonpayable"
    },
    {
      "type": "function",
      "name": "addStrategy",
      "inputs": [
        {
          "name": "strategy",
          "type": "address",
          "internalType": "address"
        }
      ],
      "outputs": [],
      "stateMutability": "nonpayable"
    },
    {
      "type": "function",
      "name": "allowance",
      "inputs": [
        {
          "name": "owner",
          "type": "address",
          "internalType": "address"
        },
        {
          "name": "spender",
          "type": "address",
          "internalType": "address"
        }
      ],
      "outputs": [
        {
          "name": "",
          "type": "uint256",
          "internalType": "uint256"
        }
      ],
      "stateMutability": "view"
    },
    {
      "type": "function",
      "name": "approve",
      "inputs": [
        {
          "name": "spender",
          "type": "address",
          "internalType": "address"
        },
        {
          "name": "value",
          "type": "uint256",
          "internalType": "uint256"
        }
      ],
      "outputs": [
        {
          "name": "",
          "type": "bool",
          "internalType": "bool"
        }
      ],
      "stateMutability": "nonpayable"
    },
    {
      "type": "function",
      "name": "asset",
      "inputs": [],
      "outputs": [
        {
          "name": "",
          "type": "address",
          "internalType": "address"
        }
      ],
      "stateMutability": "view"
    },
    {
      "type": "function",
      "name": "autoSupply",
      "inputs": [],
      "outputs": [
        {
          "name": "",
          "type": "bool",
          "internalType": "bool"
        }
      ],
      "stateMutability": "view"
    },
    {
      "type": "function",
      "name": "balanceOf",
      "inputs": [
        {
          "name": "account",
          "type": "address",
          "internalType": "address"
        }
      ],
      "outputs": [
        {
          "name": "",
          "type": "uint256",
          "internalType": "uint256"
        }
      ],
      "stateMutability": "view"
    },
    {
      "type": "function",
      "name": "checkpoint",
      "inputs": [],
      "outputs": [],
      "stateMutability": "nonpayable"
    },
    {
      "type": "function",
      "name": "convertToAssets",
      "inputs": [
        {
          "name": "shares",
          "type": "uint256",
          "internalType": "uint256"
        }
      ],
      "outputs": [
        {
          "name": "",
          "type": "uint256",
          "internalType": "uint256"
        }
      ],
      "stateMutability": "view"
    },
    {
      "type": "function",
      "name": "convertToShares",
      "inputs": [
        {
          "name": "assets",
          "type": "uint256",
          "internalType": "uint256"
        }
      ],
      "outputs": [
        {
          "name": "",
          "type": "uint256",
          "internalType": "uint256"
        }
      ],
      "stateMutability": "view"
    },
    {
      "type": "function",
      "name": "decimals",
      "inputs": [],
      "outputs": [
        {
          "name": "",
          "type": "uint8",
          "internalType": "uint8"
        }
      ],
      "stateMutability": "view"
    },
    {
      "type": "function",
      "name": "deposit",
      "inputs": [
        {
          "name": "assets",
          "type": "uint256",
          "internalType": "uint256"
        },
        {
          "name": "receiver",
          "type": "address",
          "internalType": "address"
        }
      ],
      "outputs": [
        {
          "name": "shares",
          "type": "uint256",
          "internalType": "uint256"
        }
      ],
      "stateMutability": "nonpayable"
    },
    {
      "type": "function",
      "name": "depositEth",
      "inputs": [
        {
          "name": "receiver",
          "type": "address",
          "internalType": "address"
        }
      ],
      "outputs": [
        {
          "name": "shares",
          "type": "uint256",
          "internalType": "uint256"
        }
      ],
      "stateMutability": "payable"
    },
    {
      "type": "function",
      "name": "ethGateway",
      "inputs": [],
      "outputs": [
        {
          "name": "",
          "type": "address",
          "internalType": "contract IWETHGateway"
        }
      ],
      "stateMutability": "view"
    },
    {
      "type": "function",
      "name": "ethMode",
      "inputs": [],
      "outputs": [
        {
          "name": "",
          "type": "bool",
          "internalType": "bool"
        }
      ],
      "stateMutability": "view"
    },
    {
      "type": "function",
      "name": "feeBps",
      "inputs": [],
      "outputs": [
        {
          "name": "",
          "type": "uint16",
          "internalType": "uint16"
        }
      ],
      "stateMutability": "view"
    },
    {
      "type": "function",
      "name": "getRoleAdmin",
      "inputs": [
        {
          "name": "role",
          "type": "bytes32",
          "internalType": "bytes32"
        }
      ],
      "outputs": [
        {
          "name": "",
          "type": "bytes32",
          "internalType": "bytes32"
        }
      ],
      "stateMutability": "view"
    },
    {
      "type": "function",
      "name": "grantRole",
      "inputs": [
        {
          "name": "role",
          "type": "bytes32",
          "internalType": "bytes32"
        },
        {
          "name": "account",
          "type": "address",
          "internalType": "address"
        }
      ],
      "outputs": [],
      "stateMutability": "nonpayable"
    },
    {
      "type": "function",
      "name": "hasRole",
      "inputs": [
        {
          "name": "role",
          "type": "bytes32",
          "internalType": "bytes32"
        },
        {
          "name": "account",
          "type": "address",
          "internalType": "address"
        }
      ],
      "outputs": [
        {
          "name": "",
          "type": "bool",
          "internalType": "bool"
        }
      ],
      "stateMutability": "view"
    },
    {
      "type": "function",
      "name": "idleUnderlying",
      "inputs": [],
      "outputs": [
        {
          "name": "",
          "type": "uint256",
          "internalType": "uint256"
        }
      ],
      "stateMutability": "view"
    },
    {
      "type": "function",
      "name": "lastCheckpointAssets",
      "inputs": [],
      "outputs": [
        {
          "name": "",
          "type": "uint256",
          "internalType": "uint256"
        }
      ],
      "stateMutability": "view"
    },
    {
      "type": "function",
      "name": "lastCheckpointTimestamp",
      "inputs": [],
      "outputs": [
        {
          "name": "",
          "type": "uint256",
          "internalType": "uint256"
        }
      ],
      "stateMutability": "view"
    },
    {
      "type": "function",
      "name": "maxDeposit",
      "inputs": [
        {
          "name": "",
          "type": "address",
          "internalType": "address"
        }
      ],
      "outputs": [
        {
          "name": "",
          "type": "uint256",
          "internalType": "uint256"
        }
      ],
      "stateMutability": "view"
    },
    {
      "type": "function",
      "name": "maxMint",
      "inputs": [
        {
          "name": "",
          "type": "address",
          "internalType": "address"
        }
      ],
      "outputs": [
        {
          "name": "",
          "type": "uint256",
          "internalType": "uint256"
        }
      ],
      "stateMutability": "view"
    },
    {
      "type": "function",
      "name": "maxRedeem",
      "inputs": [
        {
          "name": "owner",
          "type": "address",
          "internalType": "address"
        }
      ],
      "outputs": [
        {
          "name": "",
          "type": "uint256",
          "internalType": "uint256"
        }
      ],
      "stateMutability": "view"
    },
    {
      "type": "function",
      "name": "maxWithdraw",
      "inputs": [
        {
          "name": "owner",
          "type": "address",
          "internalType": "address"
        }
      ],
      "outputs": [
        {
          "name": "",
          "type": "uint256",
          "internalType": "uint256"
        }
      ],
      "stateMutability": "view"
    },
    {
      "type": "function",
      "name": "mint",
      "inputs": [
        {
          "name": "shares",
          "type": "uint256",
          "internalType": "uint256"
        },
        {
          "name": "receiver",
          "type": "address",
          "internalType": "address"
        }
      ],
      "outputs": [
        {
          "name": "assets",
          "type": "uint256",
          "internalType": "uint256"
        }
      ],
      "stateMutability": "nonpayable"
    },
    {
      "type": "function",
      "name": "name",
      "inputs": [],
      "outputs": [
        {
          "name": "",
          "type": "string",
          "internalType": "string"
        }
      ],
      "stateMutability": "view"
    },
    {
      "type": "function",
      "name": "pause",
      "inputs": [],
      "outputs": [],
      "stateMutability": "nonpayable"
    },
    {
      "type": "function",
      "name": "paused",
      "inputs": [],
      "outputs": [
        {
          "name": "",
          "type": "bool",
          "internalType": "bool"
        }
      ],
      "stateMutability": "view"
    },
    {
      "type": "function",
      "name": "previewDeposit",
      "inputs": [
        {
          "name": "assets",
          "type": "uint256",
          "internalType": "uint256"
        }
      ],
      "outputs": [
        {
          "name": "",
          "type": "uint256",
          "internalType": "uint256"
        }
      ],
      "stateMutability": "view"
    },
    {
      "type": "function",
      "name": "previewMint",
      "inputs": [
        {
          "name": "shares",
          "type": "uint256",
          "internalType": "uint256"
        }
      ],
      "outputs": [
        {
          "name": "",
          "type": "uint256",
          "internalType": "uint256"
        }
      ],
      "stateMutability": "view"
    },
    {
      "type": "function",
      "name": "previewRedeem",
      "inputs": [
        {
          "name": "shares",
          "type": "uint256",
          "internalType": "uint256"
        }
      ],
      "outputs": [
        {
          "name": "",
          "type": "uint256",
          "internalType": "uint256"
        }
      ],
      "stateMutability": "view"
    },
    {
      "type": "function",
      "name": "previewWithdraw",
      "inputs": [
        {
          "name": "assets",
          "type": "uint256",
          "internalType": "uint256"
        }
      ],
      "outputs": [
        {
          "name": "",
          "type": "uint256",
          "internalType": "uint256"
        }
      ],
      "stateMutability": "view"
    },
    {
      "type": "function",
      "name": "publicDepositsEnabled",
      "inputs": [],
      "outputs": [
        {
          "name": "",
          "type": "bool",
          "internalType": "bool"
        }
      ],
      "stateMutability": "view"
    },
    {
      "type": "function",
      "name": "redeem",
      "inputs": [
        {
          "name": "shares",
          "type": "uint256",
          "internalType": "uint256"
        },
        {
          "name": "receiver",
          "type": "address",
          "internalType": "address"
        },
        {
          "name": "owner",
          "type": "address",
          "internalType": "address"
        }
      ],
      "outputs": [
        {
          "name": "assets",
          "type": "uint256",
          "internalType": "uint256"
        }
      ],
      "stateMutability": "nonpayable"
    },
    {
      "type": "function",
      "name": "removeAgent",
      "inputs": [
        {
          "name": "agent",
          "type": "address",
          "internalType": "address"
        }
      ],
      "outputs": [],
      "stateMutability": "nonpayable"
    },
    {
      "type": "function",
      "name": "removeStrategy",
      "inputs": [
        {
          "name": "strategy",
          "type": "address",
          "internalType": "address"
        }
      ],
      "outputs": [],
      "stateMutability": "nonpayable"
    },
    {
      "type": "function",
      "name": "renounceRole",
      "inputs": [
        {
          "name": "role",
          "type": "bytes32",
          "internalType": "bytes32"
        },
        {
          "name": "callerConfirmation",
          "type": "address",
          "internalType": "address"
        }
      ],
      "outputs": [],
      "stateMutability": "nonpayable"
    },
    {
      "type": "function",
      "name": "revokeRole",
      "inputs": [
        {
          "name": "role",
          "type": "bytes32",
          "internalType": "bytes32"
        },
        {
          "name": "account",
          "type": "address",
          "internalType": "address"
        }
      ],
      "outputs": [],
      "stateMutability": "nonpayable"
    },
    {
      "type": "function",
      "name": "setAutoSupply",
      "inputs": [
        {
          "name": "enabled",
          "type": "bool",
          "internalType": "bool"
        }
      ],
      "outputs": [],
      "stateMutability": "nonpayable"
    },
    {
      "type": "function",
      "name": "setEthGateway",
      "inputs": [
        {
          "name": "gateway",
          "type": "address",
          "internalType": "address"
        },
        {
          "name": "enabled",
          "type": "bool",
          "internalType": "bool"
        }
      ],
      "outputs": [],
      "stateMutability": "nonpayable"
    },
    {
      "type": "function",
      "name": "setParams",
      "inputs": [
        {
          "name": "treasury_",
          "type": "address",
          "internalType": "address"
        },
        {
          "name": "feeBps_",
          "type": "uint16",
          "internalType": "uint16"
        }
      ],
      "outputs": [],
      "stateMutability": "nonpayable"
    },
    {
      "type": "function",
      "name": "setPublicDepositsEnabled",
      "inputs": [
        {
          "name": "enabled",
          "type": "bool",
          "internalType": "bool"
        }
      ],
      "outputs": [],
      "stateMutability": "nonpayable"
    },
    {
      "type": "function",
      "name": "supplyToAave",
      "inputs": [
        {
          "name": "amount",
          "type": "uint256",
          "internalType": "uint256"
        }
      ],
      "outputs": [],
      "stateMutability": "nonpayable"
    },
    {
      "type": "function",
      "name": "supportsInterface",
      "inputs": [
        {
          "name": "interfaceId",
          "type": "bytes4",
          "internalType": "bytes4"
        }
      ],
      "outputs": [
        {
          "name": "",
          "type": "bool",
          "internalType": "bool"
        }
      ],
      "stateMutability": "view"
    },
    {
      "type": "function",
      "name": "symbol",
      "inputs": [],
      "outputs": [
        {
          "name": "",
          "type": "string",
          "internalType": "string"
        }
      ],
      "stateMutability": "view"
    },
    {
      "type": "function",
      "name": "takeFees",
      "inputs": [],
      "outputs": [],
      "stateMutability": "nonpayable"
    },
    {
      "type": "function",
      "name": "totalAssets",
      "inputs": [],
      "outputs": [
        {
          "name": "",
          "type": "uint256",
          "internalType": "uint256"
        }
      ],
      "stateMutability": "view"
    },
    {
      "type": "function",
      "name": "totalSupply",
      "inputs": [],
      "outputs": [
        {
          "name": "",
          "type": "uint256",
          "internalType": "uint256"
        }
      ],
      "stateMutability": "view"
    },
    {
      "type": "function",
      "name": "transfer",
      "inputs": [
        {
          "name": "to",
          "type": "address",
          "internalType": "address"
        },
        {
          "name": "value",
          "type": "uint256",
          "internalType": "uint256"
        }
      ],
      "outputs": [
        {
          "name": "",
          "type": "bool",
          "internalType": "bool"
        }
      ],
      "stateMutability": "nonpayable"
    },
    {
      "type": "function",
      "name": "transferFrom",
      "inputs": [
        {
          "name": "from",
          "type": "address",
          "internalType": "address"
        },
        {
          "name": "to",
          "type": "address",
          "internalType": "address"
        },
        {
          "name": "value",
          "type": "uint256",
          "internalType": "uint256"
        }
      ],
      "outputs": [
        {
          "name": "",
          "type": "bool",
          "internalType": "bool"
        }
      ],
      "stateMutability": "nonpayable"
    },
    {
      "type": "function",
      "name": "treasury",
      "inputs": [],
      "outputs": [
        {
          "name": "",
          "type": "address",
          "internalType": "address"
        }
      ],
      "stateMutability": "view"
    },
    {
      "type": "function",
      "name": "unpause",
      "inputs": [],
      "outputs": [],
      "stateMutability": "nonpayable"
    },
    {
      "type": "function",
      "name": "withdraw",
      "inputs": [
        {
          "name": "assets",
          "type": "uint256",
          "internalType": "uint256"
        },
        {
          "name": "receiver",
          "type": "address",
          "internalType": "address"
        },
        {
          "name": "owner",
          "type": "address",
          "internalType": "address"
        }
      ],
      "outputs": [
        {
          "name": "shares",
          "type": "uint256",
          "internalType": "uint256"
        }
      ],
      "stateMutability": "nonpayable"
    },
    {
      "type": "function",
      "name": "withdrawEth",
      "inputs": [
        {
          "name": "assets",
          "type": "uint256",
          "internalType": "uint256"
        },
        {
          "name": "receiver",
          "type": "address",
          "internalType": "address"
        },
        {
          "name": "owner",
          "type": "address",
          "internalType": "address"
        }
      ],
      "outputs": [
        {
          "name": "shares",
          "type": "uint256",
          "internalType": "uint256"
        }
      ],
      "stateMutability": "nonpayable"
    },
    {
      "type": "function",
      "name": "withdrawFromAave",
      "inputs": [
        {
          "name": "amount",
          "type": "uint256",
          "internalType": "uint256"
        }
      ],
      "outputs": [],
      "stateMutability": "nonpayable"
    },
    {
      "type": "event",
      "name": "Approval",
      "inputs": [
        {
          "name": "owner",
          "type": "address",
          "indexed": true,
          "internalType": "address"
        },
        {
          "name": "spender",
          "type": "address",
          "indexed": true,
          "internalType": "address"
        },
        {
          "name": "value",
          "type": "uint256",
          "indexed": false,
          "internalType": "uint256"
        }
      ],
      "anonymous": false
    },
    {
      "type": "event",
      "name": "Checkpointed",
      "inputs": [
        {
          "name": "assets",
          "type": "uint256",
          "indexed": false,
          "internalType": "uint256"
        },
        {
          "name": "timestamp",
          "type": "uint256",
          "indexed": false,
          "internalType": "uint256"
        }
      ],
      "anonymous": false
    },
    {
      "type": "event",
      "name": "Deposit",
      "inputs": [
        {
          "name": "sender",
          "type": "address",
          "indexed": true,
          "internalType": "address"
        },
        {
          "name": "owner",
          "type": "address",
          "indexed": true,
          "internalType": "address"
        },
        {
          "name": "assets",
          "type": "uint256",
          "indexed": false,
          "internalType": "uint256"
        },
        {
          "name": "shares",
          "type": "uint256",
          "indexed": false,
          "internalType": "uint256"
        }
      ],
      "anonymous": false
    },
    {
      "type": "event",
      "name": "ParamsUpdated",
      "inputs": [
        {
          "name": "param",
          "type": "bytes32",
          "indexed": true,
          "internalType": "bytes32"
        },
        {
          "name": "oldValue",
          "type": "uint256",
          "indexed": false,
          "internalType": "uint256"
        },
        {
          "name": "newValue",
          "type": "uint256",
          "indexed": false,
          "internalType": "uint256"
        }
      ],
      "anonymous": false
    },
    {
      "type": "event",
      "name": "Paused",
      "inputs": [
        {
          "name": "account",
          "type": "address",
          "indexed": false,
          "internalType": "address"
        }
      ],
      "anonymous": false
    },
    {
      "type": "event",
      "name": "PerformanceFeeTaken",
      "inputs": [
        {
          "name": "treasury",
          "type": "address",
          "indexed": true,
          "internalType": "address"
        },
        {
          "name": "feeAssets",
          "type": "uint256",
          "indexed": false,
          "internalType": "uint256"
        },
        {
          "name": "feeShares",
          "type": "uint256",
          "indexed": false,
          "internalType": "uint256"
        }
      ],
      "anonymous": false
    },
    {
      "type": "event",
      "name": "PublicDepositsUpdated",
      "inputs": [
        {
          "name": "enabled",
          "type": "bool",
          "indexed": false,
          "internalType": "bool"
        }
      ],
      "anonymous": false
    },
    {
      "type": "event",
      "name": "RoleAdminChanged",
      "inputs": [
        {
          "name": "role",
          "type": "bytes32",
          "indexed": true,
          "internalType": "bytes32"
        },
        {
          "name": "previousAdminRole",
          "type": "bytes32",
          "indexed": true,
          "internalType": "bytes32"
        },
        {
          "name": "newAdminRole",
          "type": "bytes32",
          "indexed": true,
          "internalType": "bytes32"
        }
      ],
      "anonymous": false
    },
    {
      "type": "event",
      "name": "RoleGranted",
      "inputs": [
        {
          "name": "role",
          "type": "bytes32",
          "indexed": true,
          "internalType": "bytes32"
        },
        {
          "name": "account",
          "type": "address",
          "indexed": true,
          "internalType": "address"
        },
        {
          "name": "sender",
          "type": "address",
          "indexed": true,
          "internalType": "address"
        }
      ],
      "anonymous": false
    },
    {
      "type": "event",
      "name": "RoleRevoked",
      "inputs": [
        {
          "name": "role",
          "type": "bytes32",
          "indexed": true,
          "internalType": "bytes32"
        },
        {
          "name": "account",
          "type": "address",
          "indexed": true,
          "internalType": "address"
        },
        {
          "name": "sender",
          "type": "address",
          "indexed": true,
          "internalType": "address"
        }
      ],
      "anonymous": false
    },
    {
      "type": "event",
      "name": "StrategyAdded",
      "inputs": [
        {
          "name": "strategy",
          "type": "address",
          "indexed": true,
          "internalType": "address"
        }
      ],
      "anonymous": false
    },
    {
      "type": "event",
      "name": "StrategyRemoved",
      "inputs": [
        {
          "name": "strategy",
          "type": "address",
          "indexed": true,
          "internalType": "address"
        }
      ],
      "anonymous": false
    },
    {
      "type": "event",
      "name": "SuppliedToAave",
      "inputs": [
        {
          "name": "asset",
          "type": "address",
          "indexed": true,
          "internalType": "address"
        },
        {
          "name": "amount",
          "type": "uint256",
          "indexed": false,
          "internalType": "uint256"
        },
        {
          "name": "agent",
          "type": "address",
          "indexed": true,
          "internalType": "address"
        }
      ],
      "anonymous": false
    },
    {
      "type": "event",
      "name": "Transfer",
      "inputs": [
        {
          "name": "from",
          "type": "address",
          "indexed": true,
          "internalType": "address"
        },
        {
          "name": "to",
          "type": "address",
          "indexed": true,
          "internalType": "address"
        },
        {
          "name": "value",
          "type": "uint256",
          "indexed": false,
          "internalType": "uint256"
        }
      ],
      "anonymous": false
    },
    {
      "type": "event",
      "name": "Unpaused",
      "inputs": [
        {
          "name": "account",
          "type": "address",
          "indexed": false,
          "internalType": "address"
        }
      ],
      "anonymous": false
    },
    {
      "type": "event",
      "name": "Withdraw",
      "inputs": [
        {
          "name": "sender",
          "type": "address",
          "indexed": true,
          "internalType": "address"
        },
        {
          "name": "receiver",
          "type": "address",
          "indexed": true,
          "internalType": "address"
        },
        {
          "name": "owner",
          "type": "address",
          "indexed": true,
          "internalType": "address"
        },
        {
          "name": "assets",
          "type": "uint256",
          "indexed": false,
          "internalType": "uint256"
        },
        {
          "name": "shares",
          "type": "uint256",
          "indexed": false,
          "internalType": "uint256"
        }
      ],
      "anonymous": false
    },
    {
      "type": "event",
      "name": "WithdrawnFromAave",
      "inputs": [
        {
          "name": "asset",
          "type": "address",
          "indexed": true,
          "internalType": "address"
        },
        {
          "name": "amount",
          "type": "uint256",
          "indexed": false,
          "internalType": "uint256"
        },
        {
          "name": "agent",
          "type": "address",
          "indexed": true,
          "internalType": "address"
        }
      ],
      "anonymous": false
    },
    {
      "type": "error",
      "name": "AccessControlBadConfirmation",
      "inputs": []
    },
    {
      "type": "error",
      "name": "AccessControlUnauthorizedAccount",
      "inputs": [
        {
          "name": "account",
          "type": "address",
          "internalType": "address"
        },
        {
          "name": "neededRole",
          "type": "bytes32",
          "internalType": "bytes32"
        }
      ]
    },
    {
      "type": "error",
      "name": "ERC20InsufficientAllowance",
      "inputs": [
        {
          "name": "spender",
          "type": "address",
          "internalType": "address"
        },
        {
          "name": "allowance",
          "type": "uint256",
          "internalType": "uint256"
        },
        {
          "name": "needed",
          "type": "uint256",
          "internalType": "uint256"
        }
      ]
    },
    {
      "type": "error",
      "name": "ERC20InsufficientBalance",
      "inputs": [
        {
          "name": "sender",
          "type": "address",
          "internalType": "address"
        },
        {
          "name": "balance",
          "type": "uint256",
          "internalType": "uint256"
        },
        {
          "name": "needed",
          "type": "uint256",
          "internalType": "uint256"
        }
      ]
    },
    {
      "type": "error",
      "name": "ERC20InvalidApprover",
      "inputs": [
        {
          "name": "approver",
          "type": "address",
          "internalType": "address"
        }
      ]
    },
    {
      "type": "error",
      "name": "ERC20InvalidReceiver",
      "inputs": [
        {
          "name": "receiver",
          "type": "address",
          "internalType": "address"
        }
      ]
    },
    {
      "type": "error",
      "name": "ERC20InvalidSender",
      "inputs": [
        {
          "name": "sender",
          "type": "address",
          "internalType": "address"
        }
      ]
    },
    {
      "type": "error",
      "name": "ERC20InvalidSpender",
      "inputs": [
        {
          "name": "spender",
          "type": "address",
          "internalType": "address"
        }
      ]
    },
    {
      "type": "error",
      "name": "ERC4626ExceededMaxDeposit",
      "inputs": [
        {
          "name": "receiver",
          "type": "address",
          "internalType": "address"
        },
        {
          "name": "assets",
          "type": "uint256",
          "internalType": "uint256"
        },
        {
          "name": "max",
          "type": "uint256",
          "internalType": "uint256"
        }
      ]
    },
    {
      "type": "error",
      "name": "ERC4626ExceededMaxMint",
      "inputs": [
        {
          "name": "receiver",
          "type": "address",
          "internalType": "address"
        },
        {
          "name": "shares",
          "type": "uint256",
          "internalType": "uint256"
        },
        {
          "name": "max",
          "type": "uint256",
          "internalType": "uint256"
        }
      ]
    },
    {
      "type": "error",
      "name": "ERC4626ExceededMaxRedeem",
      "inputs": [
        {
          "name": "owner",
          "type": "address",
          "internalType": "address"
        },
        {
          "name": "shares",
          "type": "uint256",
          "internalType": "uint256"
        },
        {
          "name": "max",
          "type": "uint256",
          "internalType": "uint256"
        }
      ]
    },
    {
      "type": "error",
      "name": "ERC4626ExceededMaxWithdraw",
      "inputs": [
        {
          "name": "owner",
          "type": "address",
          "internalType": "address"
        },
        {
          "name": "assets",
          "type": "uint256",
          "internalType": "uint256"
        },
        {
          "name": "max",
          "type": "uint256",
          "internalType": "uint256"
        }
      ]
    },
    {
      "type": "error",
      "name": "EnforcedPause",
      "inputs": []
    },
    {
      "type": "error",
      "name": "ExpectedPause",
      "inputs": []
    },
    {
      "type": "error",
      "name": "ReentrancyGuardReentrantCall",
      "inputs": []
    },
    {
      "type": "error",
      "name": "SafeERC20FailedOperation",
      "inputs": [
        {
          "name": "token",
          "type": "address",
          "internalType": "address"
        }
      ]
    }
  ],
  "bytecode": {
    "object": "0x61010080604052346107115760c081613d4580380380916100208285610715565b8339810103126107115761003381610738565b9061004060208201610738565b9061004d60408201610738565b9160608201519061ffff8216908183036107115760808401516001600160a01b03811694908590036107115760a06100859101610738565b6040516395d89b4160e01b81529095906001600160a01b038816905f81600481855afa80156106ec57600492610102600660255f9460209686916106f7575b5060405196879164020b532bc960dd1b828401528051918291018484015e8101650815985d5b1d60d21b838201520301601919810186520184610715565b6040516395d89b4160e01b815293849182905afa80156106ec57602461015f916020945f916106ca575b5060405194859163616a562d60e01b828401528051918291018484015e81015f838201520301601f198101845283610715565b8051906001600160401b0382116105cd5760035490600182811c921680156106c0575b60208310146105af5781601f849311610652575b50602090601f83116001146105ec575f926105e1575b50508160011b915f199060031b1c1916176003555b8051906001600160401b0382116105cd5760045490600182811c921680156105c3575b60208310146105af5781601f849311610541575b50602090601f83116001146104db575f926104d0575b50508160011b915f199060031b1c1916176004555b61022c87610965565b90156104c8575b60a05260808790526006805460ff1916905560016007556001600160a01b0316918215610496578415610468576105dc10610434576102b99560c05260e0526008549161ffff60a01b9060a01b169160018060b01b031916171760085560018060a01b031960095416176009556102a9816107c9565b506102b38161083f565b506108d2565b5042600c5560018060a01b0360c0511660018060a01b0360095416906040519060205f81840163095ea7b360e01b81528560248601528119604486015260448552610305606486610715565b84519082855af15f513d82610418575b5050156103d3575b600a805460ff60b01b1916600160b01b1790556040516132649081610a6182396080518181816117730152613018015260a051816117fa015260c051818181610430015281816106090152818161082701528181610a6401528181610b5801528181610d2001528181610fbb015281816110e001528181611bcd015281816121e50152818161243b0152612546015260e05181818161037f0152818161123501528181611a2101528181611afe015261223a0152f35b61040b610410936040519063095ea7b360e01b602083015260248201525f604482015260448152610405606482610715565b82610a08565b610a08565b5f808061031d565b90915061042c5750803b15155b5f80610315565b600114610425565b60405162461bcd60e51b815260206004820152600c60248201526b0cccaca40e8dede40d0d2ced60a31b6044820152606490fd5b60405162461bcd60e51b81526020600482015260066024820152650706f6f6c3d360d41b6044820152606490fd5b60405162461bcd60e51b815260206004820152600a602482015269074726561737572793d360b41b6044820152606490fd5b506012610233565b015190505f8061020e565b60045f9081528281209350601f198516905b8181106105295750908460019594939210610511575b505050811b01600455610223565b01515f1960f88460031b161c191690555f8080610503565b929360206001819287860151815501950193016104ed565b60045f529091507f8a35acfbc15ff81a39ae7d344fd709f28e8600b4aa8c65c6b64bfe7fe36bd19b601f840160051c810191602085106105a5575b90601f859493920160051c01905b81811061059757506101f8565b5f815584935060010161058a565b909150819061057c565b634e487b7160e01b5f52602260045260245ffd5b91607f16916101e4565b634e487b7160e01b5f52604160045260245ffd5b015190505f806101ac565b60035f9081528281209350601f198516905b81811061063a5750908460019594939210610622575b505050811b016003556101c1565b01515f1960f88460031b161c191690555f8080610614565b929360206001819287860151815501950193016105fe565b60035f529091507fc2575a0e9e593c00f959f8c92f12db2869c3395a3b0502d05e2516446f71f85b601f840160051c810191602085106106b6575b90601f859493920160051c01905b8181106106a85750610196565b5f815584935060010161069b565b909150819061068d565b91607f1691610182565b6106e691503d805f833e6106de8183610715565b810190610767565b5f61012c565b6040513d5f823e3d90fd5b61070b91503d8088833e6106de8183610715565b5f6100c4565b5f80fd5b601f909101601f19168101906001600160401b038211908210176105cd57604052565b51906001600160a01b038216820361071157565b6001600160401b0381116105cd57601f01601f191660200190565b602081830312610711578051906001600160401b038211610711570181601f820112156107115780519061079a8261074c565b926107a86040519485610715565b8284526020838301011161071157815f9260208093018386015e8301015290565b6001600160a01b0381165f9081525f80516020613d05833981519152602052604090205460ff1661083a576001600160a01b03165f8181525f80516020613d0583398151915260205260408120805460ff191660011790553391905f80516020613cc58339815191528180a4600190565b505f90565b6001600160a01b0381165f9081525f80516020613d25833981519152602052604090205460ff1661083a576001600160a01b03165f8181525f80516020613d2583398151915260205260408120805460ff191660011790553391907f65d7a28e3265b37a6474929f336521b332c1681b933f6cb9f3376673440d862a905f80516020613cc58339815191529080a4600190565b6001600160a01b0381165f9081525f80516020613ce5833981519152602052604090205460ff1661083a576001600160a01b03165f8181525f80516020613ce583398151915260205260408120805460ff191660011790553391907fcab5a0bfe0b79d2c4b1c2e02599fa044d115b7511f9659307cb4276950967709905f80516020613cc58339815191529080a4600190565b5f8091604051602081019063313ce56760e01b825260048152610989602482610715565b51916001600160a01b03165afa3d15610a00573d906109a78261074c565b916109b56040519384610715565b82523d5f602084013e5b806109f4575b6109d1575b505f905f90565b602081805181010312610711576020015160ff81116109ca579060ff6001921690565b506020815110156109c5565b6060906109bf565b905f602091828151910182855af1156106ec575f513d610a5757506001600160a01b0381163b155b610a375750565b635274afe760e01b5f9081526001600160a01b0391909116600452602490fd5b60011415610a3056fe6080604052600436101561001a575b3615610018575f80fd5b005b5f803560e01c90816301e1d1141461205957816301ffc9a71461200357816306fdde0314611f0f57816307a2d13a146116f2578163095ea7b314611e675781630a28a47714611e4957816311264a9714611cec578163175188e814611c9257816318160ddd14611c755781632107b6d6146119ae578163223e54791461195357816322459e181461192c57816323b872dd146118f4578163248a9ca3146118c957816324a9d853146118a55781632f2ff15d1461186757816330c39e5414611842578163313ce567146117e657816336568abe146117a257816338d52e0f1461175e5781633f4ba83a146116f7578163402d267d14610a4a5781634cdad506146116f2578163580b7c2e146116cb5781635c975abb146116a95781635dd912f5146116815781635f52ac121461161857816361d027b3146115f0578163688f237b146115c45781636e553f651461153b57816370a08231146104fd57816370ded44d1461150c5781637f1b2bb0146114e75781638456cb591461148d57816384e79842146114645781638c00ce731461143c57816391d14854146113f357816394bf804d1461139557816395d89b411461128d57816397a6278e146112645781639ef0159f14611220578163a03e4bc3146111f8578163a217fddf146111dd578163a9059cbb146111ac578163ad9d4ba314610e76578163b3d7f6b914610e58578163b460af9414610cea578163ba08765214610b1a578163c2c4c5c114610ab8578163c458763614610a93578163c5d664c614610a4f578163c63d75b614610a4a578163c6e6f592146102ed578163cbc88dac14610a2d578163ce96cb7714610a0a578163d053c83b14610584578163d547741f1461053d578163d905777e146104fd578163dd62ed3e146104ab578163e63ab1e914610471578163e70a273814610404578163e9a3773814610353578163e9df48fc14610312578163ee94d67c146102f2575063ef8b30f70361000e575b612155565b3461030f578060031936011261030f576020600c54604051908152f35b80fd5b3461030f57602036600319011261030f5761032b6120e7565b6103336127cd565b600a805460ff60a81b191691151560a81b60ff60a81b1691909117905580f35b3461030f578060031936011261030f576040516370a0823160e01b8152306004820152906020826024817f00000000000000000000000000000000000000000000000000000000000000006001600160a01b03165afa9081156103f857906103c1575b602090604051908152f35b506020813d6020116103f0575b816103db60209383612173565b810103126103ec57602090516103b6565b5f80fd5b3d91506103ce565b604051903d90823e3d90fd5b3461030f578060031936011261030f576040516370a0823160e01b8152306004820152906020826024817f00000000000000000000000000000000000000000000000000000000000000006001600160a01b03165afa9081156103f857906103c157602090604051908152f35b3461030f578060031936011261030f5760206040517f65d7a28e3265b37a6474929f336521b332c1681b933f6cb9f3376673440d862a8152f35b3461030f57604036600319011261030f5760406104c66120bb565b916104cf6120d1565b9260018060a01b031681526001602052209060018060a01b03165f52602052602060405f2054604051908152f35b3461030f57602036600319011261030f57602061053561051b6120bb565b6001600160a01b03165f9081526020819052604090205490565b604051908152f35b3461030f57604036600319011261030f5761058060043561055c6120d1565b9061057b610576825f526005602052600160405f20015490565b6128d4565b612a35565b5080f35b3461030f576105923661211b565b909161059c612dc8565b6105a4612e40565b6105b560ff600a5460a01c166125f8565b80156109d7576105c481612772565b926001600160a01b038316926105e3908590338690036109c757612e60565b600a546001600160a01b031615610810576040516370a0823160e01b81523060048201527f00000000000000000000000000000000000000000000000000000000000000006001600160a01b0316602082602481845afa9182156108055787926107d1575b508684928061074f575b505050806106c8575b5060209461068190808080866001600160a01b0387165af161067b61269a565b506126d9565b604051918252838583015260018060a01b0316907ffbde797d201c681b91056529119e0b02407c7bb96a4a2c75c01fc9667232c8db60403392a46001600755604051908152f35b600a5460095487916001600160a01b039182169116803b1561074b57604051630402806960e51b81526001600160a01b039290921660048301526024820193909352306044820152918290606490829084905af18015610740571561065b57610732868092612173565b61073c578561065b565b8480fd5b6040513d88823e3d90fd5b8280fd5b91925090848110156107c957915b803b156107c557818091602460405180948193632e1a7d4d60e01b83528860048401525af180156107ba576107a1575b505061079990836122f2565b868681610652565b816107ab91612173565b6107b657858761078d565b8580fd5b6040513d84823e3d90fd5b5080fd5b50839161075d565b9091506020813d6020116107fd575b816107ed60209383612173565b810103126103ec57519087610648565b3d91506107e0565b6040513d89823e3d90fd5b6040516370a0823160e01b815230600482015285907f00000000000000000000000000000000000000000000000000000000000000006001600160a01b031690602081602481855afa9081156109bc578391610987575b508481106108da575b50803b156107c5578190602460405180948193632e1a7d4d60e01b83528860048401525af18015610740576108c5575b506020946108c090808080866001600160a01b0387165af161067b61269a565b610681565b6108d0868092612173565b61073c57856108a0565b6108e490856122f2565b600954604051631a4ca37b60e21b81526001600160a01b038481166004830152602482018490523060448301529091602091839160649183918991165af190811561097c578491610943575b509061093d911015612633565b87610870565b919350506020813d602011610974575b8161096060209383612173565b810103126103ec575187929061093d610930565b3d9150610953565b6040513d86823e3d90fd5b9250506020823d6020116109b4575b816109a360209383612173565b810103126103ec5786915188610867565b3d9150610996565b6040513d85823e3d90fd5b6109d2823383612c6b565b612e60565b60405162461bcd60e51b815260206004820152600b60248201526a7a65726f2061737365747360a81b6044820152606490fd5b3461030f57602036600319011261030f576020610535610a286120bb565b61267f565b3461030f578060031936011261030f576020600b54604051908152f35b6120f6565b3461030f578060031936011261030f576040517f00000000000000000000000000000000000000000000000000000000000000006001600160a01b03168152602090f35b3461030f578060031936011261030f57602060ff600a5460a01c166040519015158152f35b3461030f578060031936011261030f57610ad0612dc8565b610ad861288b565b7f4e00a2ed038d92152bef661635a17f174048bd4d6ed7fa9a0b01be5f7feaf22e6040610b036121ca565b80600b5542600c558151908152426020820152a180f35b3461030f57610b283661211b565b9192610b32612dc8565b610b3a612e40565b610b4384612745565b6040516370a0823160e01b81523060048201527f00000000000000000000000000000000000000000000000000000000000000006001600160a01b03169190602081602481865afa90811561097c5790849392918491610cb5575b50818110610c0c575b505050506001600160a01b0383168082526020829052604082205490818611610bf157602085610be48887610bdb82612745565b9384913361305d565b6001600755604051908152f35b632e52afbb60e21b8352600452602485905260445260649150fd5b610c1b610c5b916020936122f2565b600954604051631a4ca37b60e21b81526001600160a01b039586166004820152602481018390523060448201529591948693911691839182906064820190565b03925af180156109bc578390610c81575b610c7892501015612633565b80858080610ba7565b506020823d602011610cad575b81610c9b60209383612173565b810103126103ec57610c789151610c6c565b3d9150610c8e565b9350506020833d602011610ce2575b81610cd160209383612173565b810103126103ec5783925188610b9e565b3d9150610cc4565b3461030f57610cf83661211b565b919092610d03612dc8565b610d0b612e40565b6040516370a0823160e01b81523060048201527f00000000000000000000000000000000000000000000000000000000000000006001600160a01b031690602081602481855afa9081156109bc57908392918391610e23575b50848110610dbb575b505050610d798361267f565b808311610d9a57602084610be48786610d9181612772565b9384923361305d565b60649284633fa733bb60e21b845260018060a01b0316600452602452604452fd5b610dca610c1b602092876122f2565b03925af180156109bc578390610def575b610de792501015612633565b808580610d6d565b506020823d602011610e1b575b81610e0960209383612173565b810103126103ec57610de79151610ddb565b3d9150610dfc565b9250506020823d602011610e50575b81610e3f60209383612173565b810103126103ec5782915187610d64565b3d9150610e32565b3461030f57602036600319011261030f576020610535600435612717565b602036600319011261030f57610e8a6120bb565b610e92612dc8565b610e9a612e40565b600a5490610ead60ff8360a01c166125f8565b60ff8260b01c16801561117d575b610ec4906124f7565b341561114f57610ed3346127a0565b916001600160a01b0316156110dd57600a5460095484916001600160a01b039081169116813b1561074b57829060646040518094819363474cf53d60e01b8352600483015230602483015284604483015234905af180156107ba576110c8575b50505b610f408282612de3565b60408051348152602081018490526001600160a01b039092169133917fdcbc1c05240f31ff3ad067ef1ee35ce4997762752e3a095284754544f4c709d791a3600a5460ff8160a81c1690816110b6575b50610fa6575b6020906001600755604051908152f35b6040516370a0823160e01b81523060048201527f00000000000000000000000000000000000000000000000000000000000000006001600160a01b0316602082602481845afa91821561097c578492611082575b5081611008575b5050610f96565b6009548491906001600160a01b0316803b1561074b5760405163617ba03760e01b81526001600160a01b0392909216600483015260248201939093523060448201525f6064820152918290608490829084905af180156109bc5761106d575b80611001565b611078838092612173565b6107c55781611067565b9091506020813d6020116110ae575b8161109e60209383612173565b810103126103ec57519084610ffa565b3d9150611091565b6001600160a01b031615905083610f90565b816110d291612173565b61074b578284610f33565b827f00000000000000000000000000000000000000000000000000000000000000006001600160a01b0316803b156107c5578160049160405192838092630d0e30db60e41b825234905af180156107ba5761113a575b5050610f36565b8161114491612173565b61074b578284611133565b60405162461bcd60e51b81526020600482015260066024820152650dcde408aa8960d31b6044820152606490fd5b505f8051602061320f8339815191528352600560209081526040808520335f908152925290205460ff16610ebb565b3461030f57604036600319011261030f576111d26111c86120bb565b6024359033612d0b565b602060405160018152f35b3461030f578060031936011261030f57602090604051908152f35b3461030f578060031936011261030f576009546040516001600160a01b039091168152602090f35b3461030f578060031936011261030f576040517f00000000000000000000000000000000000000000000000000000000000000006001600160a01b03168152602090f35b3461030f57602036600319011261030f576105806112806120bb565b6112886127cd565b6129a4565b3461030f578060031936011261030f576040519080600454908160011c9160018116801561138b575b6020841081146113775783865290811561135057506001146112f3575b6112ef846112e381860382612173565b60405191829182612073565b0390f35b600481527f8a35acfbc15ff81a39ae7d344fd709f28e8600b4aa8c65c6b64bfe7fe36bd19b939250905b808210611336575090915081016020016112e3826112d3565b91926001816020925483858801015201910190929161131d565b60ff191660208087019190915292151560051b850190920192506112e391508390506112d3565b634e487b7160e01b83526022600452602483fd5b92607f16926112b6565b3461030f57604036600319011261030f576004356113d66113b46120d1565b916113bd612dc8565b6113c5612e40565b6113ce81612717565b809333612fae565b60ff600a5460a81c16610fa6576020906001600755604051908152f35b3461030f57604036600319011261030f57604061140e6120d1565b9160043581526005602052209060018060a01b03165f52602052602060ff60405f2054166040519015158152f35b3461030f578060031936011261030f57600a546040516001600160a01b039091168152602090f35b3461030f57602036600319011261030f576105806114806120bb565b6114886127cd565b612b52565b3461030f578060031936011261030f576114a561281c565b6114ad612dc8565b600160ff1960065416176006557f62e78cea01bee320cd4e420270b5ea74000d11b0c9f74754ebdbfc544b05a2586020604051338152a180f35b3461030f578060031936011261030f57602060ff600a5460b01c166040519015158152f35b3461030f57602036600319011261030f57611525612dc8565b61152d61288b565b611538600435612533565b80f35b3461030f57604036600319011261030f576004356113d661155a6120d1565b611562612dc8565b61156a612e40565b60ff600a5460b01c168015611595575b611583906124f7565b61158c836127a0565b92839133612fae565b505f8051602061320f8339815191528452600560209081526040808620335f908152925290205460ff1661157a565b3461030f57602036600319011261030f576115dd612dc8565b6115e561288b565b61153860043561241b565b3461030f578060031936011261030f576008546040516001600160a01b039091168152602090f35b3461030f57602036600319011261030f577fc37422cc4a580af595ca9c3d469d63a1803069347e848952ebfd4d6fa723902360206116546120e7565b61165c6127cd565b1515600a5460ff60b01b8260b01b169060ff60b01b191617600a55604051908152a180f35b3461030f578060031936011261030f57611699612dc8565b6116a161288b565b6115386122ff565b3461030f578060031936011261030f57602060ff600654166040519015158152f35b3461030f578060031936011261030f5760206040515f8051602061320f8339815191528152f35b61209d565b3461030f578060031936011261030f5761170f61281c565b60065460ff81161561174f5760ff19166006557f5db9ee0a495bf2e6ff9c91a7834c1ba4fdd244a5e8aa4e537bd38aeae4b073aa6020604051338152a180f35b638dfc202b60e01b8252600482fd5b3461030f578060031936011261030f576040517f00000000000000000000000000000000000000000000000000000000000000006001600160a01b03168152602090f35b3461030f57604036600319011261030f576117bb6120d1565b336001600160a01b038216036117d75761058090600435612a35565b63334bd91960e11b8252600482fd5b3461030f578060031936011261030f5760ff7f0000000000000000000000000000000000000000000000000000000000000000169060ff821161182e57602082604051908152f35b634e487b7160e01b81526011600452602490fd5b3461030f578060031936011261030f57602060ff600a5460a81c166040519015158152f35b3461030f57604036600319011261030f576105806004356118866120d1565b906118a0610576825f526005602052600160405f20015490565b612be5565b3461030f578060031936011261030f57602061ffff60085460a01c16604051908152f35b3461030f57602036600319011261030f5760206105356004355f526005602052600160405f20015490565b3461030f57606036600319011261030f576111d26119106120bb565b6119186120d1565b60443591611927833383612c6b565b612d0b565b3461030f578060031936011261030f5760206040515f805160206131af8339815191528152f35b3461030f57602036600319011261030f5761196c6120bb565b6119746127cd565b61197d81612abf565b506001600160a01b03167f3f008fd510eae7a9e7bee13513d7b83bef8003d488b5a3d0b0da4de71d6846f18280a280f35b346103ec5760403660031901126103ec576119c76120bb565b602435801515918282036103ec57816119de6127cd565b611bcb575b60018060a01b03169182600a549160ff60a01b9060a01b16916affffffffffffffffffffff60a81b161717600a5581611a1a578280f35b15611afc577f00000000000000000000000000000000000000000000000000000000000000006040519060208481840163095ea7b360e01b81528560248601525f19604486015260448552611a70606486612173565b84519082855af184513d82611ad7575b505015611a92575b5050505b81808280f35b611aca611acf936040519063095ea7b360e01b6020830152602482015285604482015260448152611ac4606482612173565b82612f56565b612f56565b818080611a88565b909150611af457506001600160a01b0381163b15155b8580611a80565b600114611aed565b7f00000000000000000000000000000000000000000000000000000000000000006040519060208481840163095ea7b360e01b815285602486015281604486015260448552611b4c606486612173565b84519082855af184513d82611ba6575b505015611b6c575b505050611a8c565b611aca611b9e936040519063095ea7b360e01b6020830152602482015285604482015260448152611ac4606482612173565b818080611b64565b909150611bc357506001600160a01b0381163b15155b8580611b5c565b600114611bbc565b7f00000000000000000000000000000000000000000000000000000000000000006001600160a01b0316803b156103ec575f8091600460405180948193630d0e30db60e41b83525af19081611c60575b50611c5b5760405162461bcd60e51b81526020600482015260136024820152720aa9c888aa498b2929c8e40dcdee840ae8aa89606b1b6044820152606490fd5b6119e3565b611c6d9195505f90612173565b5f9385611c1b565b346103ec575f3660031901126103ec576020600254604051908152f35b346103ec5760203660031901126103ec57611cab6120bb565b611cb36127cd565b611cbc8161290e565b506001600160a01b03167f09a1db4b80c32706328728508c941a6b954f31eb5affd32f236c1fd405f8fea45f80a2005b346103ec5760403660031901126103ec57611d056120bb565b60243561ffff8116918282036103ec57611d1d6127cd565b6001600160a01b0316908115611e17576105dc8311611de357600854926040519061ffff8560a01c16825260208201527f6971b4f0b6ef70b5d9551beb71d4864d6d983119e809e7db05d264fee1134d8b60406566656542707360d01b92a2604080516001600160a01b03851681526020810184905267747265617375727960c01b917f6971b4f0b6ef70b5d9551beb71d4864d6d983119e809e7db05d264fee1134d8b91a26001600160b01b03199092161760a09190911b61ffff60a01b1617600855005b60405162461bcd60e51b815260206004820152600c60248201526b0cccaca40e8dede40d0d2ced60a31b6044820152606490fd5b60405162461bcd60e51b815260206004820152600a602482015269074726561737572793d360b41b6044820152606490fd5b346103ec5760203660031901126103ec576020610535600435612772565b346103ec5760403660031901126103ec57611e806120bb565b602435903315611efc576001600160a01b0316908115611ee957335f52600160205260405f20825f526020528060405f20556040519081527f8c5be1e5ebec7d5bd14f71427d1e84f3dd0314c0f7b2291e5b200ac8c7c3b92560203392a3602060405160018152f35b634a1406b160e11b5f525f60045260245ffd5b63e602df0560e01b5f525f60045260245ffd5b346103ec575f3660031901126103ec576040515f6003548060011c90600181168015611ff9575b602083108114611fe557828552908115611fc15750600114611f63575b6112ef836112e381850382612173565b91905060035f527fc2575a0e9e593c00f959f8c92f12db2869c3395a3b0502d05e2516446f71f85b915f905b808210611fa7575090915081016020016112e3611f53565b919260018160209254838588010152019101909291611f8f565b60ff191660208086019190915291151560051b840190910191506112e39050611f53565b634e487b7160e01b5f52602260045260245ffd5b91607f1691611f36565b346103ec5760203660031901126103ec5760043563ffffffff60e01b81168091036103ec57602090637965db0b60e01b8114908115612048575b506040519015158152f35b6301ffc9a760e01b1490508261203d565b346103ec575f3660031901126103ec5760206105356121ca565b602060409281835280519182918282860152018484015e5f828201840152601f01601f1916010190565b346103ec5760203660031901126103ec576020610535600435612745565b600435906001600160a01b03821682036103ec57565b602435906001600160a01b03821682036103ec57565b6004359081151582036103ec57565b346103ec5760203660031901126103ec5761210f6120bb565b5060206040515f198152f35b60609060031901126103ec57600435906024356001600160a01b03811681036103ec57906044356001600160a01b03811681036103ec5790565b346103ec5760203660031901126103ec5760206105356004356127a0565b90601f8019910116810190811067ffffffffffffffff82111761219557604052565b634e487b7160e01b5f52604160045260245ffd5b919082018092116121b657565b634e487b7160e01b5f52601160045260245ffd5b6040516370a0823160e01b81523060048201526020816024817f00000000000000000000000000000000000000000000000000000000000000006001600160a01b03165afa9081156122b5575f916122c0575b506040516370a0823160e01b8152306004820152906020826024817f00000000000000000000000000000000000000000000000000000000000000006001600160a01b03165afa9081156122b5575f9161227f575b61227c92506121a9565b90565b90506020823d6020116122ad575b8161229a60209383612173565b810103126103ec5761227c915190612272565b3d915061228d565b6040513d5f823e3d90fd5b90506020813d6020116122ea575b816122db60209383612173565b810103126103ec57515f61221d565b3d91506122ce565b919082039182116121b657565b6123076121ca565b600b5480156123e057808211806123ce575b612328575b50600b5542600c55565b61233290826122f2565b6008549061ffff8260a01c16908181029181830414901517156121b657612710900480612360575b5061231e565b612369816127a0565b9182612376575b5061235a565b7faa3c5efbfd9c129a7407bdc6753e92ab563f04f88c7de5b307d06686697c507d916040916123af9085906001600160a01b0316612de3565b60018060a01b03600854169382519182526020820152a25f8080612370565b5061ffff60085460a01c161515612319565b506040817f4e00a2ed038d92152bef661635a17f174048bd4d6ed7fa9a0b01be5f7feaf22e92600b5542600c558151908152426020820152a1565b80156124f457600954604051631a4ca37b60e21b81526001600160a01b037f00000000000000000000000000000000000000000000000000000000000000008116600483018190526024830194909452306044830152909291602091849160649183915f91165af19182156122b5575f926124c0575b506040519182527ff88531a6e85f24185a3ad005feb22c4e53b07531d925da74170cfe21d2844b6560203393a3565b9091506020813d6020116124ec575b816124dc60209383612173565b810103126103ec5751905f612491565b3d91506124cf565b50565b156124fe57565b60405162461bcd60e51b815260206004820152600d60248201526c7374726174656779206f6e6c7960981b6044820152606490fd5b80156124f4576009546001600160a01b037f000000000000000000000000000000000000000000000000000000000000000081169116803b156103ec5760405163617ba03760e01b81526001600160a01b0383166004820152602481018490523060448201525f6064820181905290918290608490829084905af180156122b5576125e8575b506040519182527fe7bb03b691472587f7ba61e51bc49b59d80b107fa536149c642b31ce92e26e6860203393a3565b5f6125f291612173565b5f6125b9565b156125ff57565b60405162461bcd60e51b815260206004820152600c60248201526b11551208191a5cd8589b195960a21b6044820152606490fd5b1561263a57565b60405162461bcd60e51b815260206004820152601c60248201527f496e73756666696369656e742041617665207769746864726177616c000000006044820152606490fd5b60018060a01b03165f525f60205261227c60405f2054612745565b3d156126d4573d9067ffffffffffffffff821161219557604051916126c9601f8201601f191660200184612173565b82523d5f602084013e565b606090565b156126e057565b60405162461bcd60e51b815260206004820152600f60248201526e115512081cd95b990819985a5b1959608a1b6044820152606490fd5b61271f6121ca565b90600182018092116121b657600254600181018091116121b65761227c92600192612ee4565b61274d6121ca565b90600182018092116121b657600254600181018091116121b65761227c925f92612ee4565b60025490600182018092116121b6576127896121ca565b600181018091116121b65761227c92600192612ee4565b60025490600182018092116121b6576127b76121ca565b600181018091116121b65761227c925f92612ee4565b335f9081527f05b8ccbb9d4d8fb16ea74ce3c29a41f1b461fbdaff4714a0d9a8eb05499746bc602052604090205460ff161561280557565b63e2517d3f60e01b5f52336004525f60245260445ffd5b335f9081527f99f2891db7a8db76249871a02b43b68c0bb8f22ef8a3bc1034ae9375ef6b7c3c602052604090205460ff161561285457565b63e2517d3f60e01b5f52336004527f65d7a28e3265b37a6474929f336521b332c1681b933f6cb9f3376673440d862a60245260445ffd5b335f9081525f805160206131cf833981519152602052604090205460ff16156128b057565b63e2517d3f60e01b5f52336004525f805160206131af83398151915260245260445ffd5b5f81815260056020908152604080832033845290915290205460ff16156128f85750565b63e2517d3f60e01b5f523360045260245260445ffd5b6001600160a01b0381165f9081525f805160206131ef833981519152602052604090205460ff161561299f576001600160a01b03165f8181525f805160206131ef83398151915260205260408120805460ff191690553391905f8051602061320f833981519152907ff6391f5c32d9c69d2a47ea670b442974b53935d1edc7fd64eb21e047a839171b9080a4600190565b505f90565b6001600160a01b0381165f9081525f805160206131cf833981519152602052604090205460ff161561299f576001600160a01b03165f8181525f805160206131cf83398151915260205260408120805460ff191690553391905f805160206131af833981519152907ff6391f5c32d9c69d2a47ea670b442974b53935d1edc7fd64eb21e047a839171b9080a4600190565b5f8181526005602090815260408083206001600160a01b038616845290915290205460ff1615612ab9575f8181526005602090815260408083206001600160a01b0395909516808452949091528120805460ff19169055339291907ff6391f5c32d9c69d2a47ea670b442974b53935d1edc7fd64eb21e047a839171b9080a4600190565b50505f90565b6001600160a01b0381165f9081525f805160206131ef833981519152602052604090205460ff1661299f576001600160a01b03165f8181525f805160206131ef83398151915260205260408120805460ff191660011790553391905f8051602061320f833981519152907f2f8788117e7eff1d82e926ec794901d17c78024a50270940304540a733656f0d9080a4600190565b6001600160a01b0381165f9081525f805160206131cf833981519152602052604090205460ff1661299f576001600160a01b03165f8181525f805160206131cf83398151915260205260408120805460ff191660011790553391905f805160206131af833981519152907f2f8788117e7eff1d82e926ec794901d17c78024a50270940304540a733656f0d9080a4600190565b5f8181526005602090815260408083206001600160a01b038616845290915290205460ff16612ab9575f8181526005602090815260408083206001600160a01b0395909516808452949091528120805460ff19166001179055339291907f2f8788117e7eff1d82e926ec794901d17c78024a50270940304540a733656f0d9080a4600190565b6001600160a01b039081165f8181526001602081815260408084209587168452949052929020549392918401612ca2575b50505050565b828410612ce8578015611efc576001600160a01b03821615611ee9575f52600160205260405f209060018060a01b03165f5260205260405f20910390555f808080612c9c565b508290637dc7a0d960e11b5f5260018060a01b031660045260245260445260645ffd5b6001600160a01b0316908115612db5576001600160a01b0316918215612da257815f525f60205260405f2054818110612d8957817fddf252ad1be2c89b69c2b068fc378daa952ba7f163c4a11628f55a4df523b3ef92602092855f525f84520360405f2055845f525f825260405f20818154019055604051908152a3565b8263391434e360e21b5f5260045260245260445260645ffd5b63ec442f0560e01b5f525f60045260245ffd5b634b637e8f60e11b5f525f60045260245ffd5b60ff60065416612dd457565b63d93c066560e01b5f5260045ffd5b6001600160a01b0316908115612da2577fddf252ad1be2c89b69c2b068fc378daa952ba7f163c4a11628f55a4df523b3ef602082612e245f946002546121a9565b60025584845283825260408420818154019055604051908152a3565b600260075414612e51576002600755565b633ee5aeb560e01b5f5260045ffd5b9091906001600160a01b03168015612db557805f525f60205260405f2054838110612eca576020845f94957fddf252ad1be2c89b69c2b068fc378daa952ba7f163c4a11628f55a4df523b3ef938587528684520360408620558060025403600255604051908152a3565b915063391434e360e21b5f5260045260245260445260645ffd5b9291612ef1818386613110565b926004811015612f42576001809116149182612f17575b505061227c92501515906121a9565b9080925015612f2e5761227c930915155f80612f08565b634e487b7160e01b5f52601260045260245ffd5b634e487b7160e01b5f52602160045260245ffd5b905f602091828151910182855af1156122b5575f513d612fa557506001600160a01b0381163b155b612f855750565b635274afe760e01b5f9081526001600160a01b0391909116600452602490fd5b60011415612f7e565b604080516323b872dd60e01b60208201526001600160a01b03909216602483018190523060448401526064808401869052835293947fdcbc1c05240f31ff3ad067ef1ee35ce4997762752e3a095284754544f4c709d793919261303c90613016608482612173565b7f0000000000000000000000000000000000000000000000000000000000000000612f56565b6130468183612de3565b825195865260208601526001600160a01b031693a3565b6001600160a01b0380841695908216937ffbde797d201c681b91056529119e0b02407c7bb96a4a2c75c01fc9667232c8db936040939092916130ac91839190828b8a036130ff575b5050612e60565b6130e8835163a9059cbb60e01b602082015261301681602481018a60208983019260018060a01b038a168152015203601f198101835282612173565b825195865260208601526001600160a01b031693a4565b6131099183612c6b565b5f826130a5565b91818302915f19818509938380861095039480860395146131a057848311156131885790829109815f0382168092046002816003021880820260020302808202600203028082026002030280820260020302808202600203028091026002030293600183805f03040190848311900302920304170290565b82634e487b715f52156003026011186020526024601cfd5b505091508115612f2e57049056fecab5a0bfe0b79d2c4b1c2e02599fa044d115b7511f9659307cb4276950967709c79a156b6aa178944768ac5b864ea063589eb01dbbaf5014f19fa5247f1d2db042550b8e8a2a31f88e128c4d449c2d76ae22afced5501af824adcf03bdfb68a3928286c473ded01ff8bf61a1986f14a0579066072fa8261442d9fea514d93a4ca26469706673582212200048c4ca89681df4d5bc4ad44ef6be49ae8a0fc60333b92654a653033562db9564736f6c634300081a00332f8788117e7eff1d82e926ec794901d17c78024a50270940304540a733656f0dc79a156b6aa178944768ac5b864ea063589eb01dbbaf5014f19fa5247f1d2db005b8ccbb9d4d8fb16ea74ce3c29a41f1b461fbdaff4714a0d9a8eb05499746bc99f2891db7a8db76249871a02b43b68c0bb8f22ef8a3bc1034ae9375ef6b7c3c",
    "linkReferences": {}
  },
  "methodIdentifiers": {
    "AGENT_ROLE()": "22459e18",
    "A_TOKEN()": "9ef0159f",
    "DEFAULT_ADMIN_ROLE()": "a217fddf",
    "PAUSER_ROLE()": "e63ab1e9",
    "STRATEGY_ROLE()": "580b7c2e",
    "UNDERLYING()": "c5d664c6",
    "aTokenBalance()": "e9a37738",
    "aavePool()": "a03e4bc3",
    "addAgent(address)": "84e79842",
    "addStrategy(address)": "223e5479",
    "allowance(address,address)": "dd62ed3e",
    "approve(address,uint256)": "095ea7b3",
    "asset()": "38d52e0f",
    "autoSupply()": "30c39e54",
    "balanceOf(address)": "70a08231",
    "checkpoint()": "c2c4c5c1",
    "convertToAssets(uint256)": "07a2d13a",
    "convertToShares(uint256)": "c6e6f592",
    "decimals()": "313ce567",
    "deposit(uint256,address)": "6e553f65",
    "depositEth(address)": "ad9d4ba3",
    "ethGateway()": "8c00ce73",
    "ethMode()": "c4587636",
    "feeBps()": "24a9d853",
    "getRoleAdmin(bytes32)": "248a9ca3",
    "grantRole(bytes32,address)": "2f2ff15d",
    "hasRole(bytes32,address)": "91d14854",
    "idleUnderlying()": "e70a2738",
    "lastCheckpointAssets()": "cbc88dac",
    "lastCheckpointTimestamp()": "ee94d67c",
    "maxDeposit(address)": "402d267d",
    "maxMint(address)": "c63d75b6",
    "maxRedeem(address)": "d905777e",
    "maxWithdraw(address)": "ce96cb77",
    "mint(uint256,address)": "94bf804d",
    "name()": "06fdde03",
    "pause()": "8456cb59",
    "paused()": "5c975abb",
    "previewDeposit(uint256)": "ef8b30f7",
    "previewMint(uint256)": "b3d7f6b9",
    "previewRedeem(uint256)": "4cdad506",
    "previewWithdraw(uint256)": "0a28a477",
    "publicDepositsEnabled()": "7f1b2bb0",
    "redeem(uint256,address,address)": "ba087652",
    "removeAgent(address)": "97a6278e",
    "removeStrategy(address)": "175188e8",
    "renounceRole(bytes32,address)": "36568abe",
    "revokeRole(bytes32,address)": "d547741f",
    "setAutoSupply(bool)": "e9df48fc",
    "setEthGateway(address,bool)": "2107b6d6",
    "setParams(address,uint16)": "11264a97",
    "setPublicDepositsEnabled(bool)": "5f52ac12",
    "supplyToAave(uint256)": "70ded44d",
    "supportsInterface(bytes4)": "01ffc9a7",
    "symbol()": "95d89b41",
    "takeFees()": "5dd912f5",
    "totalAssets()": "01e1d114",
    "totalSupply()": "18160ddd",
    "transfer(address,uint256)": "a9059cbb",
    "transferFrom(address,address,uint256)": "23b872dd",
    "treasury()": "61d027b3",
    "unpause()": "3f4ba83a",
    "withdraw(uint256,address,address)": "b460af94",
    "withdrawEth(uint256,address,address)": "d053c83b",
    "withdrawFromAave(uint256)": "688f237b"
  },
  "id": 46
}