{
  "abi": [
    {
      "type": "constructor",
      "inputs": [
        {
          "name": "vault_",
          "type": "address",
          "internalType": "contract IERC4626"
        },
        {
          "name": "admin",
          "type": "address",
          "internalType": "address"
        }
      ],
      "stateMutability": "nonpayable"
    },
    {
      "type": "function",
      "name": "AGENT_ROLE",
      "inputs": [],
      "outputs": [
        {
          "name": "",
          "type": "bytes32",
          "internalType": "bytes32"
        }
      ],
      "stateMutability": "view"
    },
    {
      "type": "function",
      "name": "DEFAULT_ADMIN_ROLE",
      "inputs": [],
      "outputs": [
        {
          "name": "",
          "type": "bytes32",
          "internalType": "bytes32"
        }
      ],
      "stateMutability": "view"
    },
    {
      "type": "function",
      "name": "VAULT",
      "inputs": [],
      "outputs": [
        {
          "name": "",
          "type": "address",
          "internalType": "contract IERC4626"
        }
      ],
      "stateMutability": "view"
    },
    {
      "type": "function",
      "name": "allowance",
      "inputs": [
        {
          "name": "owner",
          "type": "address",
          "internalType": "address"
        },
        {
          "name": "spender",
          "type": "address",
          "internalType": "address"
        }
      ],
      "outputs": [
        {
          "name": "",
          "type": "uint256",
          "internalType": "uint256"
        }
      ],
      "stateMutability": "view"
    },
    {
      "type": "function",
      "name": "approve",
      "inputs": [
        {
          "name": "spender",
          "type": "address",
          "internalType": "address"
        },
        {
          "name": "value",
          "type": "uint256",
          "internalType": "uint256"
        }
      ],
      "outputs": [
        {
          "name": "",
          "type": "bool",
          "internalType": "bool"
        }
      ],
      "stateMutability": "nonpayable"
    },
    {
      "type": "function",
      "name": "balanceOf",
      "inputs": [
        {
          "name": "account",
          "type": "address",
          "internalType": "address"
        }
      ],
      "outputs": [
        {
          "name": "",
          "type": "uint256",
          "internalType": "uint256"
        }
      ],
      "stateMutability": "view"
    },
    {
      "type": "function",
      "name": "currentApy",
      "inputs": [],
      "outputs": [
        {
          "name": "apyBps",
          "type": "uint256",
          "internalType": "uint256"
        },
        {
          "name": "sampleSeconds",
          "type": "uint256",
          "internalType": "uint256"
        }
      ],
      "stateMutability": "view"
    },
    {
      "type": "function",
      "name": "decimals",
      "inputs": [],
      "outputs": [
        {
          "name": "",
          "type": "uint8",
          "internalType": "uint8"
        }
      ],
      "stateMutability": "view"
    },
    {
      "type": "function",
      "name": "estimateUserEarnings",
      "inputs": [
        {
          "name": "user",
          "type": "address",
          "internalType": "address"
        },
        {
          "name": "horizonSeconds",
          "type": "uint256",
          "internalType": "uint256"
        }
      ],
      "outputs": [
        {
          "name": "",
          "type": "uint256",
          "internalType": "uint256"
        },
        {
          "name": "",
          "type": "uint256",
          "internalType": "uint256"
        }
      ],
      "stateMutability": "view"
    },
    {
      "type": "function",
      "name": "getRoleAdmin",
      "inputs": [
        {
          "name": "role",
          "type": "bytes32",
          "internalType": "bytes32"
        }
      ],
      "outputs": [
        {
          "name": "",
          "type": "bytes32",
          "internalType": "bytes32"
        }
      ],
      "stateMutability": "view"
    },
    {
      "type": "function",
      "name": "grantRole",
      "inputs": [
        {
          "name": "role",
          "type": "bytes32",
          "internalType": "bytes32"
        },
        {
          "name": "account",
          "type": "address",
          "internalType": "address"
        }
      ],
      "outputs": [],
      "stateMutability": "nonpayable"
    },
    {
      "type": "function",
      "name": "hasRole",
      "inputs": [
        {
          "name": "role",
          "type": "bytes32",
          "internalType": "bytes32"
        },
        {
          "name": "account",
          "type": "address",
          "internalType": "address"
        }
      ],
      "outputs": [
        {
          "name": "",
          "type": "bool",
          "internalType": "bool"
        }
      ],
      "stateMutability": "view"
    },
    {
      "type": "function",
      "name": "lastRebaseAssets",
      "inputs": [],
      "outputs": [
        {
          "name": "",
          "type": "uint256",
          "internalType": "uint256"
        }
      ],
      "stateMutability": "view"
    },
    {
      "type": "function",
      "name": "lastRebaseTimestamp",
      "inputs": [],
      "outputs": [
        {
          "name": "",
          "type": "uint256",
          "internalType": "uint256"
        }
      ],
      "stateMutability": "view"
    },
    {
      "type": "function",
      "name": "name",
      "inputs": [],
      "outputs": [
        {
          "name": "",
          "type": "string",
          "internalType": "string"
        }
      ],
      "stateMutability": "view"
    },
    {
      "type": "function",
      "name": "rebase",
      "inputs": [],
      "outputs": [],
      "stateMutability": "nonpayable"
    },
    {
      "type": "function",
      "name": "rebasingIndex",
      "inputs": [],
      "outputs": [
        {
          "name": "",
          "type": "uint256",
          "internalType": "uint256"
        }
      ],
      "stateMutability": "view"
    },
    {
      "type": "function",
      "name": "renounceRole",
      "inputs": [
        {
          "name": "role",
          "type": "bytes32",
          "internalType": "bytes32"
        },
        {
          "name": "callerConfirmation",
          "type": "address",
          "internalType": "address"
        }
      ],
      "outputs": [],
      "stateMutability": "nonpayable"
    },
    {
      "type": "function",
      "name": "revokeRole",
      "inputs": [
        {
          "name": "role",
          "type": "bytes32",
          "internalType": "bytes32"
        },
        {
          "name": "account",
          "type": "address",
          "internalType": "address"
        }
      ],
      "outputs": [],
      "stateMutability": "nonpayable"
    },
    {
      "type": "function",
      "name": "supportsInterface",
      "inputs": [
        {
          "name": "interfaceId",
          "type": "bytes4",
          "internalType": "bytes4"
        }
      ],
      "outputs": [
        {
          "name": "",
          "type": "bool",
          "internalType": "bool"
        }
      ],
      "stateMutability": "view"
    },
    {
      "type": "function",
      "name": "symbol",
      "inputs": [],
      "outputs": [
        {
          "name": "",
          "type": "string",
          "internalType": "string"
        }
      ],
      "stateMutability": "view"
    },
    {
      "type": "function",
      "name": "totalSupply",
      "inputs": [],
      "outputs": [
        {
          "name": "",
          "type": "uint256",
          "internalType": "uint256"
        }
      ],
      "stateMutability": "view"
    },
    {
      "type": "function",
      "name": "transfer",
      "inputs": [
        {
          "name": "to",
          "type": "address",
          "internalType": "address"
        },
        {
          "name": "value",
          "type": "uint256",
          "internalType": "uint256"
        }
      ],
      "outputs": [
        {
          "name": "",
          "type": "bool",
          "internalType": "bool"
        }
      ],
      "stateMutability": "nonpayable"
    },
    {
      "type": "function",
      "name": "transferFrom",
      "inputs": [
        {
          "name": "from",
          "type": "address",
          "internalType": "address"
        },
        {
          "name": "to",
          "type": "address",
          "internalType": "address"
        },
        {
          "name": "value",
          "type": "uint256",
          "internalType": "uint256"
        }
      ],
      "outputs": [
        {
          "name": "",
          "type": "bool",
          "internalType": "bool"
        }
      ],
      "stateMutability": "nonpayable"
    },
    {
      "type": "function",
      "name": "underlyingSharesOf",
      "inputs": [
        {
          "name": "user",
          "type": "address",
          "internalType": "address"
        }
      ],
      "outputs": [
        {
          "name": "",
          "type": "uint256",
          "internalType": "uint256"
        }
      ],
      "stateMutability": "view"
    },
    {
      "type": "function",
      "name": "wrapDeposit",
      "inputs": [
        {
          "name": "assets",
          "type": "uint256",
          "internalType": "uint256"
        },
        {
          "name": "receiver",
          "type": "address",
          "internalType": "address"
        }
      ],
      "outputs": [
        {
          "name": "units",
          "type": "uint256",
          "internalType": "uint256"
        }
      ],
      "stateMutability": "nonpayable"
    },
    {
      "type": "function",
      "name": "wrapRedeem",
      "inputs": [
        {
          "name": "units",
          "type": "uint256",
          "internalType": "uint256"
        },
        {
          "name": "receiver",
          "type": "address",
          "internalType": "address"
        }
      ],
      "outputs": [
        {
          "name": "assets",
          "type": "uint256",
          "internalType": "uint256"
        }
      ],
      "stateMutability": "nonpayable"
    },
    {
      "type": "event",
      "name": "Approval",
      "inputs": [
        {
          "name": "owner",
          "type": "address",
          "indexed": true,
          "internalType": "address"
        },
        {
          "name": "spender",
          "type": "address",
          "indexed": true,
          "internalType": "address"
        },
        {
          "name": "value",
          "type": "uint256",
          "indexed": false,
          "internalType": "uint256"
        }
      ],
      "anonymous": false
    },
    {
      "type": "event",
      "name": "Rebased",
      "inputs": [
        {
          "name": "newIndex",
          "type": "uint256",
          "indexed": false,
          "internalType": "uint256"
        },
        {
          "name": "gainAssets",
          "type": "uint256",
          "indexed": false,
          "internalType": "uint256"
        },
        {
          "name": "feeAssets",
          "type": "uint256",
          "indexed": false,
          "internalType": "uint256"
        },
        {
          "name": "timestamp",
          "type": "uint256",
          "indexed": false,
          "internalType": "uint256"
        }
      ],
      "anonymous": false
    },
    {
      "type": "event",
      "name": "RoleAdminChanged",
      "inputs": [
        {
          "name": "role",
          "type": "bytes32",
          "indexed": true,
          "internalType": "bytes32"
        },
        {
          "name": "previousAdminRole",
          "type": "bytes32",
          "indexed": true,
          "internalType": "bytes32"
        },
        {
          "name": "newAdminRole",
          "type": "bytes32",
          "indexed": true,
          "internalType": "bytes32"
        }
      ],
      "anonymous": false
    },
    {
      "type": "event",
      "name": "RoleGranted",
      "inputs": [
        {
          "name": "role",
          "type": "bytes32",
          "indexed": true,
          "internalType": "bytes32"
        },
        {
          "name": "account",
          "type": "address",
          "indexed": true,
          "internalType": "address"
        },
        {
          "name": "sender",
          "type": "address",
          "indexed": true,
          "internalType": "address"
        }
      ],
      "anonymous": false
    },
    {
      "type": "event",
      "name": "RoleRevoked",
      "inputs": [
        {
          "name": "role",
          "type": "bytes32",
          "indexed": true,
          "internalType": "bytes32"
        },
        {
          "name": "account",
          "type": "address",
          "indexed": true,
          "internalType": "address"
        },
        {
          "name": "sender",
          "type": "address",
          "indexed": true,
          "internalType": "address"
        }
      ],
      "anonymous": false
    },
    {
      "type": "event",
      "name": "Transfer",
      "inputs": [
        {
          "name": "from",
          "type": "address",
          "indexed": true,
          "internalType": "address"
        },
        {
          "name": "to",
          "type": "address",
          "indexed": true,
          "internalType": "address"
        },
        {
          "name": "value",
          "type": "uint256",
          "indexed": false,
          "internalType": "uint256"
        }
      ],
      "anonymous": false
    },
    {
      "type": "error",
      "name": "AccessControlBadConfirmation",
      "inputs": []
    },
    {
      "type": "error",
      "name": "AccessControlUnauthorizedAccount",
      "inputs": [
        {
          "name": "account",
          "type": "address",
          "internalType": "address"
        },
        {
          "name": "neededRole",
          "type": "bytes32",
          "internalType": "bytes32"
        }
      ]
    },
    {
      "type": "error",
      "name": "ERC20InsufficientAllowance",
      "inputs": [
        {
          "name": "spender",
          "type": "address",
          "internalType": "address"
        },
        {
          "name": "allowance",
          "type": "uint256",
          "internalType": "uint256"
        },
        {
          "name": "needed",
          "type": "uint256",
          "internalType": "uint256"
        }
      ]
    },
    {
      "type": "error",
      "name": "ERC20InsufficientBalance",
      "inputs": [
        {
          "name": "sender",
          "type": "address",
          "internalType": "address"
        },
        {
          "name": "balance",
          "type": "uint256",
          "internalType": "uint256"
        },
        {
          "name": "needed",
          "type": "uint256",
          "internalType": "uint256"
        }
      ]
    },
    {
      "type": "error",
      "name": "ERC20InvalidApprover",
      "inputs": [
        {
          "name": "approver",
          "type": "address",
          "internalType": "address"
        }
      ]
    },
    {
      "type": "error",
      "name": "ERC20InvalidReceiver",
      "inputs": [
        {
          "name": "receiver",
          "type": "address",
          "internalType": "address"
        }
      ]
    },
    {
      "type": "error",
      "name": "ERC20InvalidSender",
      "inputs": [
        {
          "name": "sender",
          "type": "address",
          "internalType": "address"
        }
      ]
    },
    {
      "type": "error",
      "name": "ERC20InvalidSpender",
      "inputs": [
        {
          "name": "spender",
          "type": "address",
          "internalType": "address"
        }
      ]
    },
    {
      "type": "error",
      "name": "ReentrancyGuardReentrantCall",
      "inputs": []
    },
    {
      "type": "error",
      "name": "SafeERC20FailedOperation",
      "inputs": [
        {
          "name": "token",
          "type": "address",
          "internalType": "address"
        }
      ]
    }
  ],
  "bytecode": {
    "object": "0x60a060405234801562000010575f80fd5b50604051620030173803806200301783398181016040528101906200003691906200033e565b6040518060400160405280601281526020017f416a6579205265626173696e6720556e697400000000000000000000000000008152506040518060400160405280600581526020017f614a2d52550000000000000000000000000000000000000000000000000000008152508160039081620000b39190620005e7565b508060049081620000c59190620005e7565b50505060016006819055508173ffffffffffffffffffffffffffffffffffffffff1660808173ffffffffffffffffffffffffffffffffffffffff1681525050670de0b6b3a7640000600781905550620001275f801b826200013060201b60201c565b505050620006cb565b5f6200014383836200022c60201b60201c565b6200022257600160055f8581526020019081526020015f205f015f8473ffffffffffffffffffffffffffffffffffffffff1673ffffffffffffffffffffffffffffffffffffffff1681526020019081526020015f205f6101000a81548160ff021916908315150217905550620001be6200029060201b60201c565b73ffffffffffffffffffffffffffffffffffffffff168273ffffffffffffffffffffffffffffffffffffffff16847f2f8788117e7eff1d82e926ec794901d17c78024a50270940304540a733656f0d60405160405180910390a46001905062000226565b5f90505b92915050565b5f60055f8481526020019081526020015f205f015f8373ffffffffffffffffffffffffffffffffffffffff1673ffffffffffffffffffffffffffffffffffffffff1681526020019081526020015f205f9054906101000a900460ff16905092915050565b5f33905090565b5f80fd5b5f73ffffffffffffffffffffffffffffffffffffffff82169050919050565b5f620002c6826200029b565b9050919050565b5f620002d982620002ba565b9050919050565b620002eb81620002cd565b8114620002f6575f80fd5b50565b5f815190506200030981620002e0565b92915050565b6200031a81620002ba565b811462000325575f80fd5b50565b5f8151905062000338816200030f565b92915050565b5f806040838503121562000357576200035662000297565b5b5f6200036685828601620002f9565b9250506020620003798582860162000328565b9150509250929050565b5f81519050919050565b7f4e487b71000000000000000000000000000000000000000000000000000000005f52604160045260245ffd5b7f4e487b71000000000000000000000000000000000000000000000000000000005f52602260045260245ffd5b5f6002820490506001821680620003ff57607f821691505b602082108103620004155762000414620003ba565b5b50919050565b5f819050815f5260205f209050919050565b5f6020601f8301049050919050565b5f82821b905092915050565b5f60088302620004797fffffffffffffffffffffffffffffffffffffffffffffffffffffffffffffffff826200043c565b6200048586836200043c565b95508019841693508086168417925050509392505050565b5f819050919050565b5f819050919050565b5f620004cf620004c9620004c3846200049d565b620004a6565b6200049d565b9050919050565b5f819050919050565b620004ea83620004af565b62000502620004f982620004d6565b84845462000448565b825550505050565b5f90565b620005186200050a565b62000525818484620004df565b505050565b5b818110156200054c57620005405f826200050e565b6001810190506200052b565b5050565b601f8211156200059b5762000565816200041b565b62000570846200042d565b8101602085101562000580578190505b620005986200058f856200042d565b8301826200052a565b50505b505050565b5f82821c905092915050565b5f620005bd5f1984600802620005a0565b1980831691505092915050565b5f620005d78383620005ac565b9150826002028217905092915050565b620005f28262000383565b67ffffffffffffffff8111156200060e576200060d6200038d565b5b6200061a8254620003e7565b6200062782828562000550565b5f60209050601f8311600181146200065d575f841562000648578287015190505b620006548582620005ca565b865550620006c3565b601f1984166200066d866200041b565b5f5b8281101562000696578489015182556001820191506020850194506020810190506200066f565b86831015620006b65784890151620006b2601f891682620005ac565b8355505b6001600288020188555050505b505050505050565b6080516128e6620007315f395f818161061a015281816106d901528181610722015281816109b301528181610b6801528181610c0c01528181610d3e01528181610e4b01528181610ee101528181610f82015281816110fe015261124801526128e65ff3fe608060405234801561000f575f80fd5b50600436106101a7575f3560e01c806370a08231116100f7578063af14052c11610095578063ca0bdb1f1161006f578063ca0bdb1f146104fb578063ca4e35501461052b578063d547741f14610549578063dd62ed3e14610565576101a7565b8063af14052c146104b4578063b86a2fd7146104be578063b996de67146104dc576101a7565b8063a217fddf116100d1578063a217fddf14610417578063a9059cbb14610435578063aac24dbb14610465578063adb3791c14610496576101a7565b806370a082311461039957806391d14854146103c957806395d89b41146103f9576101a7565b806323b872dd11610164578063313ce5671161013e578063313ce5671461031157806336568abe1461032f578063411557d11461034b57806344b5f9dc14610369576101a7565b806323b872dd14610295578063248a9ca3146102c55780632f2ff15d146102f5576101a7565b806301ffc9a7146101ab57806302376922146101db57806306fdde031461020b578063095ea7b31461022957806318160ddd1461025957806322459e1814610277575b5f80fd5b6101c560048036038101906101c09190612040565b610595565b6040516101d29190612085565b60405180910390f35b6101f560048036038101906101f0919061212b565b61060e565b6040516102029190612178565b60405180910390f35b6102136107e2565b604051610220919061221b565b60405180910390f35b610243600480360381019061023e919061223b565b610872565b6040516102509190612085565b60405180910390f35b610261610894565b60405161026e9190612178565b60405180910390f35b61027f61089d565b60405161028c9190612291565b60405180910390f35b6102af60048036038101906102aa91906122aa565b6108c1565b6040516102bc9190612085565b60405180910390f35b6102df60048036038101906102da9190612324565b6108ef565b6040516102ec9190612291565b60405180910390f35b61030f600480360381019061030a919061234f565b61090c565b005b61031961092e565b60405161032691906123a8565b60405180910390f35b6103496004803603810190610344919061234f565b610936565b005b6103536109b1565b604051610360919061241c565b60405180910390f35b610383600480360381019061037e9190612435565b6109d5565b6040516103909190612178565b60405180910390f35b6103b360048036038101906103ae9190612435565b6109ee565b6040516103c09190612178565b60405180910390f35b6103e360048036038101906103de919061234f565b610a33565b6040516103f09190612085565b60405180910390f35b610401610a97565b60405161040e919061221b565b60405180910390f35b61041f610b27565b60405161042c9190612291565b60405180910390f35b61044f600480360381019061044a919061223b565b610b2d565b60405161045c9190612085565b60405180910390f35b61047f600480360381019061047a919061223b565b610b4f565b60405161048d929190612460565b60405180910390f35b61049e610e18565b6040516104ab9190612178565b60405180910390f35b6104bc610e1e565b005b6104c66110b5565b6040516104d39190612178565b60405180910390f35b6104e46110bb565b6040516104f2929190612460565b60405180910390f35b6105156004803603810190610510919061212b565b611227565b6040516105229190612178565b60405180910390f35b6105336112f4565b6040516105409190612178565b60405180910390f35b610563600480360381019061055e919061234f565b6112fa565b005b61057f600480360381019061057a9190612487565b61131c565b60405161058c9190612178565b60405180910390f35b5f7f7965db0b000000000000000000000000000000000000000000000000000000007bffffffffffffffffffffffffffffffffffffffffffffffffffffffff1916827bffffffffffffffffffffffffffffffffffffffffffffffffffffffff1916148061060757506106068261139e565b5b9050919050565b5f610617611407565b5f7f000000000000000000000000000000000000000000000000000000000000000073ffffffffffffffffffffffffffffffffffffffff166338d52e0f6040518163ffffffff1660e01b8152600401602060405180830381865afa158015610681573d5f803e3d5ffd5b505050506040513d601f19601f820116820180604052508101906106a591906124d9565b90506106d43330868473ffffffffffffffffffffffffffffffffffffffff1661144d909392919063ffffffff16565b61071f7f0000000000000000000000000000000000000000000000000000000000000000858373ffffffffffffffffffffffffffffffffffffffff166114cf9092919063ffffffff16565b5f7f000000000000000000000000000000000000000000000000000000000000000073ffffffffffffffffffffffffffffffffffffffff16636e553f6586306040518363ffffffff1660e01b815260040161077b929190612513565b6020604051808303815f875af1158015610797573d5f803e3d5ffd5b505050506040513d601f19601f820116820180604052508101906107bb919061254e565b90506107c6816115dc565b92506107d28484611605565b50506107dc611684565b92915050565b6060600380546107f1906125a6565b80601f016020809104026020016040519081016040528092919081815260200182805461081d906125a6565b80156108685780601f1061083f57610100808354040283529160200191610868565b820191905f5260205f20905b81548152906001019060200180831161084b57829003601f168201915b5050505050905090565b5f8061087c61168e565b9050610889818585611695565b600191505092915050565b5f600254905090565b7fcab5a0bfe0b79d2c4b1c2e02599fa044d115b7511f9659307cb427695096770981565b5f806108cb61168e565b90506108d88582856116a7565b6108e385858561173a565b60019150509392505050565b5f60055f8381526020019081526020015f20600101549050919050565b610915826108ef565b61091e8161182a565b610928838361183e565b50505050565b5f6012905090565b61093e61168e565b73ffffffffffffffffffffffffffffffffffffffff168173ffffffffffffffffffffffffffffffffffffffff16146109a2576040517f6697b23200000000000000000000000000000000000000000000000000000000815260040160405180910390fd5b6109ac8282611928565b505050565b7f000000000000000000000000000000000000000000000000000000000000000081565b5f6109e76109e2836109ee565b611a12565b9050919050565b5f805f8373ffffffffffffffffffffffffffffffffffffffff1673ffffffffffffffffffffffffffffffffffffffff1681526020019081526020015f20549050919050565b5f60055f8481526020019081526020015f205f015f8373ffffffffffffffffffffffffffffffffffffffff1673ffffffffffffffffffffffffffffffffffffffff1681526020019081526020015f205f9054906101000a900460ff16905092915050565b606060048054610aa6906125a6565b80601f0160208091040260200160405190810160405280929190818152602001828054610ad2906125a6565b8015610b1d5780601f10610af457610100808354040283529160200191610b1d565b820191905f5260205f20905b815481529060010190602001808311610b0057829003601f168201915b5050505050905090565b5f801b81565b5f80610b3761168e565b9050610b4481858561173a565b600191505092915050565b5f805f60095403610b65575f4291509150610e11565b5f7f000000000000000000000000000000000000000000000000000000000000000073ffffffffffffffffffffffffffffffffffffffff166318160ddd6040518163ffffffff1660e01b8152600401602060405180830381865afa158015610bcf573d5f803e3d5ffd5b505050506040513d601f19601f82011682018060405250810190610bf3919061254e565b03610c03575f4291509150610e11565b5f60085490505f7f000000000000000000000000000000000000000000000000000000000000000073ffffffffffffffffffffffffffffffffffffffff166301e1d1146040518163ffffffff1660e01b8152600401602060405180830381865afa158015610c73573d5f803e3d5ffd5b505050506040513d601f19601f82011682018060405250810190610c97919061254e565b9050818111610cad575f42935093505050610e11565b5f8282610cba9190612603565b90505f60095442610ccb9190612603565b90505f8103610ce3575f429550955050505050610e11565b5f81670de0b6b3a764000084610cf99190612636565b610d0391906126a4565b90505f670de0b6b3a76400008983610d1b9190612636565b610d2591906126a4565b90505f610d39610d348c6109ee565b611a12565b90505f7f000000000000000000000000000000000000000000000000000000000000000073ffffffffffffffffffffffffffffffffffffffff166318160ddd6040518163ffffffff1660e01b8152600401602060405180830381865afa158015610da5573d5f803e3d5ffd5b505050506040513d601f19601f82011682018060405250810190610dc9919061254e565b90505f8103610de5575f42995099505050505050505050610e11565b5f818385610df39190612636565b610dfd91906126a4565b9050806009549a509a505050505050505050505b9250929050565b60075481565b7fcab5a0bfe0b79d2c4b1c2e02599fa044d115b7511f9659307cb4276950967709610e488161182a565b5f7f000000000000000000000000000000000000000000000000000000000000000073ffffffffffffffffffffffffffffffffffffffff166318160ddd6040518163ffffffff1660e01b8152600401602060405180830381865afa158015610eb2573d5f803e3d5ffd5b505050506040513d601f19601f82011682018060405250810190610ed6919061254e565b90505f8103610f7f577f000000000000000000000000000000000000000000000000000000000000000073ffffffffffffffffffffffffffffffffffffffff166301e1d1146040518163ffffffff1660e01b8152600401602060405180830381865afa158015610f48573d5f803e3d5ffd5b505050506040513d601f19601f82011682018060405250810190610f6c919061254e565b60088190555042600981905550506110b2565b5f7f000000000000000000000000000000000000000000000000000000000000000073ffffffffffffffffffffffffffffffffffffffff166301e1d1146040518163ffffffff1660e01b8152600401602060405180830381865afa158015610fe9573d5f803e3d5ffd5b505050506040513d601f19601f8201168201806040525081019061100d919061254e565b90505f60085490505f8103611020578190505b808211156110485780826007546110379190612636565b61104191906126a4565b6007819055505b81600881905550426009819055507f5b53298bb8901f0e05ee029d68f87506fcd975ca57d8893ce9f9e11922f340e9600754828411611087575f611094565b82846110939190612603565b5b5f426040516110a6949392919061270d565b60405180910390a15050505b50565b60095481565b5f805f600954036110d1575f8091509150611223565b5f600954426110e09190612603565b90505f81036110f5575f809250925050611223565b5f60085490505f7f000000000000000000000000000000000000000000000000000000000000000073ffffffffffffffffffffffffffffffffffffffff166301e1d1146040518163ffffffff1660e01b8152600401602060405180830381865afa158015611165573d5f803e3d5ffd5b505050506040513d601f19601f82011682018060405250810190611189919061254e565b9050818111158061119957505f81145b156111ac575f8394509450505050611223565b5f83670de0b6b3a764000084846111c39190612603565b6111cd9190612636565b6111d791906126a4565b90505f670de0b6b3a76400006301e13380836111f39190612636565b6111fd91906126a4565b9050826127108261120e9190612636565b61121891906126a4565b965084955050505050505b9091565b5f611230611407565b61123a3384611a3b565b5f61124484611a12565b90507f000000000000000000000000000000000000000000000000000000000000000073ffffffffffffffffffffffffffffffffffffffff1663ba0876528285306040518463ffffffff1660e01b81526004016112a393929190612750565b6020604051808303815f875af11580156112bf573d5f803e3d5ffd5b505050506040513d601f19601f820116820180604052508101906112e3919061254e565b9150506112ee611684565b92915050565b60085481565b611303826108ef565b61130c8161182a565b6113168383611928565b50505050565b5f60015f8473ffffffffffffffffffffffffffffffffffffffff1673ffffffffffffffffffffffffffffffffffffffff1681526020019081526020015f205f8373ffffffffffffffffffffffffffffffffffffffff1673ffffffffffffffffffffffffffffffffffffffff1681526020019081526020015f2054905092915050565b5f7f01ffc9a7000000000000000000000000000000000000000000000000000000007bffffffffffffffffffffffffffffffffffffffffffffffffffffffff1916827bffffffffffffffffffffffffffffffffffffffffffffffffffffffff1916149050919050565b600260065403611443576040517f3ee5aeb500000000000000000000000000000000000000000000000000000000815260040160405180910390fd5b6002600681905550565b6114c9848573ffffffffffffffffffffffffffffffffffffffff166323b872dd86868660405160240161148293929190612785565b604051602081830303815290604052915060e01b6020820180517bffffffffffffffffffffffffffffffffffffffffffffffffffffffff8381831617835250505050611aba565b50505050565b5f8373ffffffffffffffffffffffffffffffffffffffff1663095ea7b384846040516024016114ff9291906127ba565b604051602081830303815290604052915060e01b6020820180517bffffffffffffffffffffffffffffffffffffffffffffffffffffffff8381831617835250505050905061154d8482611b55565b6115d6576115cb848573ffffffffffffffffffffffffffffffffffffffff1663095ea7b3865f6040516024016115849291906127e1565b604051602081830303815290604052915060e01b6020820180517bffffffffffffffffffffffffffffffffffffffffffffffffffffffff8381831617835250505050611aba565b6115d58482611aba565b5b50505050565b5f670de0b6b3a7640000600754836115f49190612636565b6115fe91906126a4565b9050919050565b5f73ffffffffffffffffffffffffffffffffffffffff168273ffffffffffffffffffffffffffffffffffffffff1603611675575f6040517fec442f0500000000000000000000000000000000000000000000000000000000815260040161166c9190612808565b60405180910390fd5b6116805f8383611bae565b5050565b6001600681905550565b5f33905090565b6116a28383836001611dc7565b505050565b5f6116b2848461131c565b90507fffffffffffffffffffffffffffffffffffffffffffffffffffffffffffffffff8110156117345781811015611725578281836040517ffb8f41b200000000000000000000000000000000000000000000000000000000815260040161171c93929190612821565b60405180910390fd5b61173384848484035f611dc7565b5b50505050565b5f73ffffffffffffffffffffffffffffffffffffffff168373ffffffffffffffffffffffffffffffffffffffff16036117aa575f6040517f96c6fd1e0000000000000000000000000000000000000000000000000000000081526004016117a19190612808565b60405180910390fd5b5f73ffffffffffffffffffffffffffffffffffffffff168273ffffffffffffffffffffffffffffffffffffffff160361181a575f6040517fec442f050000000000000000000000000000000000000000000000000000000081526004016118119190612808565b60405180910390fd5b611825838383611bae565b505050565b61183b8161183661168e565b611f96565b50565b5f6118498383610a33565b61191e57600160055f8581526020019081526020015f205f015f8473ffffffffffffffffffffffffffffffffffffffff1673ffffffffffffffffffffffffffffffffffffffff1681526020019081526020015f205f6101000a81548160ff0219169083151502179055506118bb61168e565b73ffffffffffffffffffffffffffffffffffffffff168273ffffffffffffffffffffffffffffffffffffffff16847f2f8788117e7eff1d82e926ec794901d17c78024a50270940304540a733656f0d60405160405180910390a460019050611922565b5f90505b92915050565b5f6119338383610a33565b15611a08575f60055f8581526020019081526020015f205f015f8473ffffffffffffffffffffffffffffffffffffffff1673ffffffffffffffffffffffffffffffffffffffff1681526020019081526020015f205f6101000a81548160ff0219169083151502179055506119a561168e565b73ffffffffffffffffffffffffffffffffffffffff168273ffffffffffffffffffffffffffffffffffffffff16847ff6391f5c32d9c69d2a47ea670b442974b53935d1edc7fd64eb21e047a839171b60405160405180910390a460019050611a0c565b5f90505b92915050565b5f600754670de0b6b3a764000083611a2a9190612636565b611a3491906126a4565b9050919050565b5f73ffffffffffffffffffffffffffffffffffffffff168273ffffffffffffffffffffffffffffffffffffffff1603611aab575f6040517f96c6fd1e000000000000000000000000000000000000000000000000000000008152600401611aa29190612808565b60405180910390fd5b611ab6825f83611bae565b5050565b5f8060205f8451602086015f885af180611ad9576040513d5f823e3d81fd5b3d92505f519150505f8214611af2576001811415611b0d565b5f8473ffffffffffffffffffffffffffffffffffffffff163b145b15611b4f57836040517f5274afe7000000000000000000000000000000000000000000000000000000008152600401611b469190612808565b60405180910390fd5b50505050565b5f805f8060205f8651602088015f8a5af192503d91505f519050828015611ba357505f8214611b875760018114611ba2565b5f8673ffffffffffffffffffffffffffffffffffffffff163b115b5b935050505092915050565b5f73ffffffffffffffffffffffffffffffffffffffff168373ffffffffffffffffffffffffffffffffffffffff1603611bfe578060025f828254611bf29190612856565b92505081905550611ccc565b5f805f8573ffffffffffffffffffffffffffffffffffffffff1673ffffffffffffffffffffffffffffffffffffffff1681526020019081526020015f2054905081811015611c87578381836040517fe450d38c000000000000000000000000000000000000000000000000000000008152600401611c7e93929190612821565b60405180910390fd5b8181035f808673ffffffffffffffffffffffffffffffffffffffff1673ffffffffffffffffffffffffffffffffffffffff1681526020019081526020015f2081905550505b5f73ffffffffffffffffffffffffffffffffffffffff168273ffffffffffffffffffffffffffffffffffffffff1603611d13578060025f8282540392505081905550611d5d565b805f808473ffffffffffffffffffffffffffffffffffffffff1673ffffffffffffffffffffffffffffffffffffffff1681526020019081526020015f205f82825401925050819055505b8173ffffffffffffffffffffffffffffffffffffffff168373ffffffffffffffffffffffffffffffffffffffff167fddf252ad1be2c89b69c2b068fc378daa952ba7f163c4a11628f55a4df523b3ef83604051611dba9190612178565b60405180910390a3505050565b5f73ffffffffffffffffffffffffffffffffffffffff168473ffffffffffffffffffffffffffffffffffffffff1603611e37575f6040517fe602df05000000000000000000000000000000000000000000000000000000008152600401611e2e9190612808565b60405180910390fd5b5f73ffffffffffffffffffffffffffffffffffffffff168373ffffffffffffffffffffffffffffffffffffffff1603611ea7575f6040517f94280d62000000000000000000000000000000000000000000000000000000008152600401611e9e9190612808565b60405180910390fd5b8160015f8673ffffffffffffffffffffffffffffffffffffffff1673ffffffffffffffffffffffffffffffffffffffff1681526020019081526020015f205f8573ffffffffffffffffffffffffffffffffffffffff1673ffffffffffffffffffffffffffffffffffffffff1681526020019081526020015f20819055508015611f90578273ffffffffffffffffffffffffffffffffffffffff168473ffffffffffffffffffffffffffffffffffffffff167f8c5be1e5ebec7d5bd14f71427d1e84f3dd0314c0f7b2291e5b200ac8c7c3b92584604051611f879190612178565b60405180910390a35b50505050565b611fa08282610a33565b611fe35780826040517fe2517d3f000000000000000000000000000000000000000000000000000000008152600401611fda929190612889565b60405180910390fd5b5050565b5f80fd5b5f7fffffffff0000000000000000000000000000000000000000000000000000000082169050919050565b61201f81611feb565b8114612029575f80fd5b50565b5f8135905061203a81612016565b92915050565b5f6020828403121561205557612054611fe7565b5b5f6120628482850161202c565b91505092915050565b5f8115159050919050565b61207f8161206b565b82525050565b5f6020820190506120985f830184612076565b92915050565b5f819050919050565b6120b08161209e565b81146120ba575f80fd5b50565b5f813590506120cb816120a7565b92915050565b5f73ffffffffffffffffffffffffffffffffffffffff82169050919050565b5f6120fa826120d1565b9050919050565b61210a816120f0565b8114612114575f80fd5b50565b5f8135905061212581612101565b92915050565b5f806040838503121561214157612140611fe7565b5b5f61214e858286016120bd565b925050602061215f85828601612117565b9150509250929050565b6121728161209e565b82525050565b5f60208201905061218b5f830184612169565b92915050565b5f81519050919050565b5f82825260208201905092915050565b5f5b838110156121c85780820151818401526020810190506121ad565b5f8484015250505050565b5f601f19601f8301169050919050565b5f6121ed82612191565b6121f7818561219b565b93506122078185602086016121ab565b612210816121d3565b840191505092915050565b5f6020820190508181035f83015261223381846121e3565b905092915050565b5f806040838503121561225157612250611fe7565b5b5f61225e85828601612117565b925050602061226f858286016120bd565b9150509250929050565b5f819050919050565b61228b81612279565b82525050565b5f6020820190506122a45f830184612282565b92915050565b5f805f606084860312156122c1576122c0611fe7565b5b5f6122ce86828701612117565b93505060206122df86828701612117565b92505060406122f0868287016120bd565b9150509250925092565b61230381612279565b811461230d575f80fd5b50565b5f8135905061231e816122fa565b92915050565b5f6020828403121561233957612338611fe7565b5b5f61234684828501612310565b91505092915050565b5f806040838503121561236557612364611fe7565b5b5f61237285828601612310565b925050602061238385828601612117565b9150509250929050565b5f60ff82169050919050565b6123a28161238d565b82525050565b5f6020820190506123bb5f830184612399565b92915050565b5f819050919050565b5f6123e46123df6123da846120d1565b6123c1565b6120d1565b9050919050565b5f6123f5826123ca565b9050919050565b5f612406826123eb565b9050919050565b612416816123fc565b82525050565b5f60208201905061242f5f83018461240d565b92915050565b5f6020828403121561244a57612449611fe7565b5b5f61245784828501612117565b91505092915050565b5f6040820190506124735f830185612169565b6124806020830184612169565b9392505050565b5f806040838503121561249d5761249c611fe7565b5b5f6124aa85828601612117565b92505060206124bb85828601612117565b9150509250929050565b5f815190506124d381612101565b92915050565b5f602082840312156124ee576124ed611fe7565b5b5f6124fb848285016124c5565b91505092915050565b61250d816120f0565b82525050565b5f6040820190506125265f830185612169565b6125336020830184612504565b9392505050565b5f81519050612548816120a7565b92915050565b5f6020828403121561256357612562611fe7565b5b5f6125708482850161253a565b91505092915050565b7f4e487b71000000000000000000000000000000000000000000000000000000005f52602260045260245ffd5b5f60028204905060018216806125bd57607f821691505b6020821081036125d0576125cf612579565b5b50919050565b7f4e487b71000000000000000000000000000000000000000000000000000000005f52601160045260245ffd5b5f61260d8261209e565b91506126188361209e565b92508282039050818111156126305761262f6125d6565b5b92915050565b5f6126408261209e565b915061264b8361209e565b92508282026126598161209e565b915082820484148315176126705761266f6125d6565b5b5092915050565b7f4e487b71000000000000000000000000000000000000000000000000000000005f52601260045260245ffd5b5f6126ae8261209e565b91506126b98361209e565b9250826126c9576126c8612677565b5b828204905092915050565b5f819050919050565b5f6126f76126f26126ed846126d4565b6123c1565b61209e565b9050919050565b612707816126dd565b82525050565b5f6080820190506127205f830187612169565b61272d6020830186612169565b61273a60408301856126fe565b6127476060830184612169565b95945050505050565b5f6060820190506127635f830186612169565b6127706020830185612504565b61277d6040830184612504565b949350505050565b5f6060820190506127985f830186612504565b6127a56020830185612504565b6127b26040830184612169565b949350505050565b5f6040820190506127cd5f830185612504565b6127da6020830184612169565b9392505050565b5f6040820190506127f45f830185612504565b61280160208301846126fe565b9392505050565b5f60208201905061281b5f830184612504565b92915050565b5f6060820190506128345f830186612504565b6128416020830185612169565b61284e6040830184612169565b949350505050565b5f6128608261209e565b915061286b8361209e565b9250828201905080821115612883576128826125d6565b5b92915050565b5f60408201905061289c5f830185612504565b6128a96020830184612282565b939250505056fea2646970667358221220102d52461c0e79b89e494db267af51d54e240845af15fb886987d7bb74565e3b64736f6c63430008180033",
    "linkReferences": {}
  },
  "methodIdentifiers": {
    "AGENT_ROLE()": "22459e18",
    "DEFAULT_ADMIN_ROLE()": "a217fddf",
    "VAULT()": "411557d1",
    "allowance(address,address)": "dd62ed3e",
    "approve(address,uint256)": "095ea7b3",
    "balanceOf(address)": "70a08231",
    "currentApy()": "b996de67",
    "decimals()": "313ce567",
    "estimateUserEarnings(address,uint256)": "aac24dbb",
    "getRoleAdmin(bytes32)": "248a9ca3",
    "grantRole(bytes32,address)": "2f2ff15d",
    "hasRole(bytes32,address)": "91d14854",
    "lastRebaseAssets()": "ca4e3550",
    "lastRebaseTimestamp()": "b86a2fd7",
    "name()": "06fdde03",
    "rebase()": "af14052c",
    "rebasingIndex()": "adb3791c",
    "renounceRole(bytes32,address)": "36568abe",
    "revokeRole(bytes32,address)": "d547741f",
    "supportsInterface(bytes4)": "01ffc9a7",
    "symbol()": "95d89b41",
    "totalSupply()": "18160ddd",
    "transfer(address,uint256)": "a9059cbb",
    "transferFrom(address,address,uint256)": "23b872dd",
    "underlyingSharesOf(address)": "44b5f9dc",
    "wrapDeposit(uint256,address)": "02376922",
    "wrapRedeem(uint256,address)": "ca0bdb1f"
  },
  "id": 42
}